{
    "contractName": "Democratiz_Art",
    "abi": [
        {
            "inputs": [],
            "stateMutability": "nonpayable",
            "type": "constructor"
        },
        {
            "anonymous": false,
            "inputs": [
                {
                    "indexed": false,
                    "internalType": "address",
                    "name": "_address",
                    "type": "address"
                }
            ],
            "name": "AdminRegistered",
            "type": "event"
        },
        {
            "anonymous": false,
            "inputs": [
                {
                    "indexed": true,
                    "internalType": "address",
                    "name": "owner",
                    "type": "address"
                },
                {
                    "indexed": true,
                    "internalType": "address",
                    "name": "approved",
                    "type": "address"
                },
                {
                    "indexed": true,
                    "internalType": "uint256",
                    "name": "tokenId",
                    "type": "uint256"
                }
            ],
            "name": "Approval",
            "type": "event"
        },
        {
            "anonymous": false,
            "inputs": [
                {
                    "indexed": true,
                    "internalType": "address",
                    "name": "owner",
                    "type": "address"
                },
                {
                    "indexed": true,
                    "internalType": "address",
                    "name": "operator",
                    "type": "address"
                },
                {
                    "indexed": false,
                    "internalType": "bool",
                    "name": "approved",
                    "type": "bool"
                }
            ],
            "name": "ApprovalForAll",
            "type": "event"
        },
        {
            "anonymous": false,
            "inputs": [
                {
                    "indexed": false,
                    "internalType": "address",
                    "name": "_address",
                    "type": "address"
                }
            ],
            "name": "ArtistRegistered",
            "type": "event"
        },
        {
            "anonymous": false,
            "inputs": [
                {
                    "indexed": true,
                    "internalType": "uint256",
                    "name": "tokenId",
                    "type": "uint256"
                },
                {
                    "indexed": false,
                    "internalType": "address",
                    "name": "seller",
                    "type": "address"
                },
                {
                    "indexed": false,
                    "internalType": "address",
                    "name": "owner",
                    "type": "address"
                },
                {
                    "indexed": false,
                    "internalType": "uint256",
                    "name": "price",
                    "type": "uint256"
                },
                {
                    "indexed": false,
                    "internalType": "bool",
                    "name": "sold",
                    "type": "bool"
                }
            ],
            "name": "MarketItemCreated",
            "type": "event"
        },
        {
            "anonymous": false,
            "inputs": [
                {
                    "indexed": true,
                    "internalType": "address",
                    "name": "from",
                    "type": "address"
                },
                {
                    "indexed": true,
                    "internalType": "address",
                    "name": "to",
                    "type": "address"
                },
                {
                    "indexed": true,
                    "internalType": "uint256",
                    "name": "tokenId",
                    "type": "uint256"
                }
            ],
            "name": "Transfer",
            "type": "event"
        },
        {
            "inputs": [
                {
                    "internalType": "address",
                    "name": "_address",
                    "type": "address"
                }
            ],
            "name": "adminRegistered",
            "outputs": [
                {
                    "internalType": "bool",
                    "name": "",
                    "type": "bool"
                }
            ],
            "stateMutability": "view",
            "type": "function"
        },
        {
            "inputs": [
                {
                    "internalType": "address",
                    "name": "to",
                    "type": "address"
                },
                {
                    "internalType": "uint256",
                    "name": "tokenId",
                    "type": "uint256"
                }
            ],
            "name": "approve",
            "outputs": [],
            "stateMutability": "nonpayable",
            "type": "function"
        },
        {
            "inputs": [
                {
                    "internalType": "address",
                    "name": "_address",
                    "type": "address"
                }
            ],
            "name": "artistRegistered",
            "outputs": [
                {
                    "internalType": "bool",
                    "name": "",
                    "type": "bool"
                }
            ],
            "stateMutability": "view",
            "type": "function"
        },
        {
            "inputs": [
                {
                    "internalType": "address",
                    "name": "owner",
                    "type": "address"
                }
            ],
            "name": "balanceOf",
            "outputs": [
                {
                    "internalType": "uint256",
                    "name": "",
                    "type": "uint256"
                }
            ],
            "stateMutability": "view",
            "type": "function"
        },
        {
            "inputs": [],
            "name": "checkSuperAdmin",
            "outputs": [
                {
                    "internalType": "address",
                    "name": "",
                    "type": "address"
                }
            ],
            "stateMutability": "view",
            "type": "function"
        },
        {
            "inputs": [
                {
                    "internalType": "uint256",
                    "name": "tokenId",
                    "type": "uint256"
                }
            ],
            "name": "createMarketSale",
            "outputs": [],
            "stateMutability": "payable",
            "type": "function"
        },
        {
            "inputs": [
                {
                    "internalType": "string",
                    "name": "tokenURI",
                    "type": "string"
                },
                {
                    "internalType": "uint256",
                    "name": "price",
                    "type": "uint256"
                }
            ],
            "name": "createToken",
            "outputs": [
                {
                    "internalType": "uint256",
                    "name": "",
                    "type": "uint256"
                }
            ],
            "stateMutability": "payable",
            "type": "function"
        },
        {
            "inputs": [],
            "name": "fetchItemsListed",
            "outputs": [
                {
                    "components": [
                        {
                            "internalType": "uint256",
                            "name": "tokenId",
                            "type": "uint256"
                        },
                        {
                            "internalType": "address payable",
                            "name": "seller",
                            "type": "address"
                        },
                        {
                            "internalType": "address payable",
                            "name": "owner",
                            "type": "address"
                        },
                        {
                            "internalType": "uint256",
                            "name": "price",
                            "type": "uint256"
                        },
                        {
                            "internalType": "bool",
                            "name": "sold",
                            "type": "bool"
                        }
                    ],
                    "internalType": "struct Democratiz_Art.MarketItem[]",
                    "name": "",
                    "type": "tuple[]"
                }
            ],
            "stateMutability": "view",
            "type": "function"
        },
        {
            "inputs": [],
            "name": "fetchMarketItems",
            "outputs": [
                {
                    "components": [
                        {
                            "internalType": "uint256",
                            "name": "tokenId",
                            "type": "uint256"
                        },
                        {
                            "internalType": "address payable",
                            "name": "seller",
                            "type": "address"
                        },
                        {
                            "internalType": "address payable",
                            "name": "owner",
                            "type": "address"
                        },
                        {
                            "internalType": "uint256",
                            "name": "price",
                            "type": "uint256"
                        },
                        {
                            "internalType": "bool",
                            "name": "sold",
                            "type": "bool"
                        }
                    ],
                    "internalType": "struct Democratiz_Art.MarketItem[]",
                    "name": "",
                    "type": "tuple[]"
                }
            ],
            "stateMutability": "view",
            "type": "function"
        },
        {
            "inputs": [],
            "name": "fetchMyNFTs",
            "outputs": [
                {
                    "components": [
                        {
                            "internalType": "uint256",
                            "name": "tokenId",
                            "type": "uint256"
                        },
                        {
                            "internalType": "address payable",
                            "name": "seller",
                            "type": "address"
                        },
                        {
                            "internalType": "address payable",
                            "name": "owner",
                            "type": "address"
                        },
                        {
                            "internalType": "uint256",
                            "name": "price",
                            "type": "uint256"
                        },
                        {
                            "internalType": "bool",
                            "name": "sold",
                            "type": "bool"
                        }
                    ],
                    "internalType": "struct Democratiz_Art.MarketItem[]",
                    "name": "",
                    "type": "tuple[]"
                }
            ],
            "stateMutability": "view",
            "type": "function"
        },
        {
            "inputs": [
                {
                    "internalType": "uint256",
                    "name": "tokenId",
                    "type": "uint256"
                }
            ],
            "name": "getApproved",
            "outputs": [
                {
                    "internalType": "address",
                    "name": "",
                    "type": "address"
                }
            ],
            "stateMutability": "view",
            "type": "function"
        },
        {
            "inputs": [
                {
                    "internalType": "uint256",
                    "name": "tokenId",
                    "type": "uint256"
                }
            ],
            "name": "getListedTokenForId",
            "outputs": [
                {
                    "components": [
                        {
                            "internalType": "uint256",
                            "name": "tokenId",
                            "type": "uint256"
                        },
                        {
                            "internalType": "address payable",
                            "name": "seller",
                            "type": "address"
                        },
                        {
                            "internalType": "address payable",
                            "name": "owner",
                            "type": "address"
                        },
                        {
                            "internalType": "uint256",
                            "name": "price",
                            "type": "uint256"
                        },
                        {
                            "internalType": "bool",
                            "name": "sold",
                            "type": "bool"
                        }
                    ],
                    "internalType": "struct Democratiz_Art.MarketItem",
                    "name": "",
                    "type": "tuple"
                }
            ],
            "stateMutability": "view",
            "type": "function"
        },
        {
            "inputs": [],
            "name": "getListingPrice",
            "outputs": [
                {
                    "internalType": "uint256",
                    "name": "",
                    "type": "uint256"
                }
            ],
            "stateMutability": "view",
            "type": "function"
        },
        {
            "inputs": [
                {
                    "internalType": "address",
                    "name": "owner",
                    "type": "address"
                },
                {
                    "internalType": "address",
                    "name": "operator",
                    "type": "address"
                }
            ],
            "name": "isApprovedForAll",
            "outputs": [
                {
                    "internalType": "bool",
                    "name": "",
                    "type": "bool"
                }
            ],
            "stateMutability": "view",
            "type": "function"
        },
        {
            "inputs": [],
            "name": "name",
            "outputs": [
                {
                    "internalType": "string",
                    "name": "",
                    "type": "string"
                }
            ],
            "stateMutability": "view",
            "type": "function"
        },
        {
            "inputs": [
                {
                    "internalType": "uint256",
                    "name": "tokenId",
                    "type": "uint256"
                }
            ],
            "name": "ownerOf",
            "outputs": [
                {
                    "internalType": "address",
                    "name": "",
                    "type": "address"
                }
            ],
            "stateMutability": "view",
            "type": "function"
        },
        {
            "inputs": [
                {
                    "internalType": "uint256",
                    "name": "tokenId",
                    "type": "uint256"
                },
                {
                    "internalType": "uint256",
                    "name": "price",
                    "type": "uint256"
                }
            ],
            "name": "reSellToken",
            "outputs": [],
            "stateMutability": "payable",
            "type": "function"
        },
        {
            "inputs": [
                {
                    "internalType": "address",
                    "name": "_address",
                    "type": "address"
                }
            ],
            "name": "registerAdmin",
            "outputs": [],
            "stateMutability": "nonpayable",
            "type": "function"
        },
        {
            "inputs": [
                {
                    "internalType": "address",
                    "name": "_address",
                    "type": "address"
                }
            ],
            "name": "registerArtist",
            "outputs": [],
            "stateMutability": "nonpayable",
            "type": "function"
        },
        {
            "inputs": [
                {
                    "internalType": "address",
                    "name": "from",
                    "type": "address"
                },
                {
                    "internalType": "address",
                    "name": "to",
                    "type": "address"
                },
                {
                    "internalType": "uint256",
                    "name": "tokenId",
                    "type": "uint256"
                }
            ],
            "name": "safeTransferFrom",
            "outputs": [],
            "stateMutability": "nonpayable",
            "type": "function"
        },
        {
            "inputs": [
                {
                    "internalType": "address",
                    "name": "from",
                    "type": "address"
                },
                {
                    "internalType": "address",
                    "name": "to",
                    "type": "address"
                },
                {
                    "internalType": "uint256",
                    "name": "tokenId",
                    "type": "uint256"
                },
                {
                    "internalType": "bytes",
                    "name": "data",
                    "type": "bytes"
                }
            ],
            "name": "safeTransferFrom",
            "outputs": [],
            "stateMutability": "nonpayable",
            "type": "function"
        },
        {
            "inputs": [
                {
                    "internalType": "address",
                    "name": "operator",
                    "type": "address"
                },
                {
                    "internalType": "bool",
                    "name": "approved",
                    "type": "bool"
                }
            ],
            "name": "setApprovalForAll",
            "outputs": [],
            "stateMutability": "nonpayable",
            "type": "function"
        },
        {
            "inputs": [
                {
                    "internalType": "bytes4",
                    "name": "interfaceId",
                    "type": "bytes4"
                }
            ],
            "name": "supportsInterface",
            "outputs": [
                {
                    "internalType": "bool",
                    "name": "",
                    "type": "bool"
                }
            ],
            "stateMutability": "view",
            "type": "function"
        },
        {
            "inputs": [],
            "name": "symbol",
            "outputs": [
                {
                    "internalType": "string",
                    "name": "",
                    "type": "string"
                }
            ],
            "stateMutability": "view",
            "type": "function"
        },
        {
            "inputs": [
                {
                    "internalType": "uint256",
                    "name": "tokenId",
                    "type": "uint256"
                }
            ],
            "name": "tokenURI",
            "outputs": [
                {
                    "internalType": "string",
                    "name": "",
                    "type": "string"
                }
            ],
            "stateMutability": "view",
            "type": "function"
        },
        {
            "inputs": [
                {
                    "internalType": "address",
                    "name": "from",
                    "type": "address"
                },
                {
                    "internalType": "address",
                    "name": "to",
                    "type": "address"
                },
                {
                    "internalType": "uint256",
                    "name": "tokenId",
                    "type": "uint256"
                }
            ],
            "name": "transferFrom",
            "outputs": [],
            "stateMutability": "nonpayable",
            "type": "function"
        },
        {
            "inputs": [
                {
                    "internalType": "uint256",
                    "name": "_listingPrice",
                    "type": "uint256"
                }
            ],
            "name": "updateListingPrice",
            "outputs": [],
            "stateMutability": "payable",
            "type": "function"
        }
    ],
    "bytecode": "60806040526605543df729c0006009553480156200001c57600080fd5b50604051806040016040528060128152602001711391950811195b5bd8dc985d1a5e97d05c9d60721b81525060405180604001604052806005815260200164111053919560da1b815250816000908162000077919062000146565b50600162000086828262000146565b5050600b80546001600160a01b031916331790555062000212565b634e487b7160e01b600052604160045260246000fd5b600181811c90821680620000cc57607f821691505b602082108103620000ed57634e487b7160e01b600052602260045260246000fd5b50919050565b601f8211156200014157600081815260208120601f850160051c810160208610156200011c5750805b601f850160051c820191505b818110156200013d5782815560010162000128565b5050505b505050565b81516001600160401b03811115620001625762000162620000a1565b6200017a81620001738454620000b7565b84620000f3565b602080601f831160018114620001b25760008415620001995750858301515b600019600386901b1c1916600185901b1785556200013d565b600085815260208120601f198616915b82811015620001e357888601518255948401946001909101908401620001c2565b5085821015620002025787850151600019600388901b60f8161c191681555b5050505050600190811b01905550565b61280980620002226000396000f3fe60806040526004361061019c5760003560e01c806370a08231116100ec578063b88d4fde1161008a578063c38c581311610064578063c38c581314610482578063c87b56dd146104a2578063db68cae6146104c2578063e985e9c5146104fb57600080fd5b8063b88d4fde14610431578063be9af53614610451578063c0b776d51461046457600080fd5b80638e264590116100c65780638e264590146103bc57806395d89b41146103e9578063a22cb465146103fe578063ae677aa31461041e57600080fd5b806370a082311461037657806372b3b6201461039657806385535b25146103a957600080fd5b8063202e37401161015957806342842e0e1161013357806342842e0e1461030157806345f8fa80146103215780634cb33d5b146103365780636352211e1461035657600080fd5b8063202e37401461029357806323b872dd146102a8578063316ee9fb146102c857600080fd5b806301ffc9a7146101a157806306fdde03146101d6578063081812fc146101f8578063095ea7b3146102305780630f08efe01461025257806312e8558514610274575b600080fd5b3480156101ad57600080fd5b506101c16101bc3660046120ef565b610544565b60405190151581526020015b60405180910390f35b3480156101e257600080fd5b506101eb610596565b6040516101cd919061215c565b34801561020457600080fd5b5061021861021336600461216f565b610628565b6040516001600160a01b0390911681526020016101cd565b34801561023c57600080fd5b5061025061024b3660046121a4565b61064f565b005b34801561025e57600080fd5b50610267610769565b6040516101cd919061220e565b34801561028057600080fd5b506009545b6040519081526020016101cd565b34801561029f57600080fd5b506102676108e0565b3480156102b457600080fd5b506102506102c336600461225c565b610a94565b3480156102d457600080fd5b506101c16102e3366004612298565b6001600160a01b03166000908152600d602052604090205460ff1690565b34801561030d57600080fd5b5061025061031c36600461225c565b610ac5565b34801561032d57600080fd5b50610267610ae0565b34801561034257600080fd5b50610250610351366004612298565b610c94565b34801561036257600080fd5b5061021861037136600461216f565b610db7565b34801561038257600080fd5b50610285610391366004612298565b610e17565b6102856103a436600461233f565b610e9d565b6102506103b7366004612398565b610edf565b3480156103c857600080fd5b506103dc6103d736600461216f565b61101f565b6040516101cd91906123ba565b3480156103f557600080fd5b506101eb611089565b34801561040a57600080fd5b506102506104193660046123c8565b611098565b61025061042c36600461216f565b6110a3565b34801561043d57600080fd5b5061025061044c366004612404565b61114e565b61025061045f36600461216f565b611186565b34801561047057600080fd5b50600b546001600160a01b0316610218565b34801561048e57600080fd5b5061025061049d366004612298565b6112ec565b3480156104ae57600080fd5b506101eb6104bd36600461216f565b611438565b3480156104ce57600080fd5b506101c16104dd366004612298565b6001600160a01b03166000908152600c602052604090205460ff1690565b34801561050757600080fd5b506101c1610516366004612480565b6001600160a01b03918216600090815260056020908152604080832093909416825291909152205460ff1690565b60006001600160e01b031982166380ac58cd60e01b148061057557506001600160e01b03198216635b5e139f60e01b145b8061059057506301ffc9a760e01b6001600160e01b03198316145b92915050565b6060600080546105a5906124b3565b80601f01602080910402602001604051908101604052809291908181526020018280546105d1906124b3565b801561061e5780601f106105f35761010080835404028352916020019161061e565b820191906000526020600020905b81548152906001019060200180831161060157829003601f168201915b5050505050905090565b600061063382611548565b506000908152600460205260409020546001600160a01b031690565b600061065a82610db7565b9050806001600160a01b0316836001600160a01b0316036106cc5760405162461bcd60e51b815260206004820152602160248201527f4552433732313a20617070726f76616c20746f2063757272656e74206f776e656044820152603960f91b60648201526084015b60405180910390fd5b336001600160a01b03821614806106e857506106e88133610516565b61075a5760405162461bcd60e51b815260206004820152603d60248201527f4552433732313a20617070726f76652063616c6c6572206973206e6f7420746f60448201527f6b656e206f776e6572206f7220617070726f76656420666f7220616c6c00000060648201526084016106c3565b61076483836115aa565b505050565b6060600061077660075490565b9050600061078360085490565b6007546107909190612503565b90506000808267ffffffffffffffff8111156107ae576107ae6122b3565b6040519080825280602002602001820160405280156107e757816020015b6107d46120ab565b8152602001906001900390816107cc5790505b50905060005b848110156108d75730600e6000610805846001612516565b81526020810191909152604001600020600201546001600160a01b0316036108c5576000610834826001612516565b6000818152600e6020908152604091829020825160a0810184528154815260018201546001600160a01b039081169382019390935260028201549092169282019290925260038201546060820152600482015460ff1615156080820152855192935090918590879081106108aa576108aa612529565b60209081029190910101526108c0600186612516565b945050505b806108cf8161253f565b9150506107ed565b50949350505050565b606060006108ed60075490565b905060008060005b8381101561094f5733600e600061090d846001612516565b81526020810191909152604001600020600201546001600160a01b03160361093d5761093a600184612516565b92505b806109478161253f565b9150506108f5565b5060008267ffffffffffffffff81111561096b5761096b6122b3565b6040519080825280602002602001820160405280156109a457816020015b6109916120ab565b8152602001906001900390816109895790505b50905060005b848110156108d75733600e60006109c2846001612516565b81526020810191909152604001600020600201546001600160a01b031603610a825760006109f1826001612516565b6000818152600e6020908152604091829020825160a0810184528154815260018201546001600160a01b039081169382019390935260028201549092169282019290925260038201546060820152600482015460ff161515608082015285519293509091859087908110610a6757610a67612529565b6020908102919091010152610a7d600186612516565b945050505b80610a8c8161253f565b9150506109aa565b610a9e3382611618565b610aba5760405162461bcd60e51b81526004016106c390612558565b610764838383611696565b6107648383836040518060200160405280600081525061114e565b60606000610aed60075490565b905060008060005b83811015610b4f5733600e6000610b0d846001612516565b81526020810191909152604001600020600101546001600160a01b031603610b3d57610b3a600184612516565b92505b80610b478161253f565b915050610af5565b5060008267ffffffffffffffff811115610b6b57610b6b6122b3565b604051908082528060200260200182016040528015610ba457816020015b610b916120ab565b815260200190600190039081610b895790505b50905060005b848110156108d75733600e6000610bc2846001612516565b81526020810191909152604001600020600101546001600160a01b031603610c82576000610bf1826001612516565b6000818152600e6020908152604091829020825160a0810184528154815260018201546001600160a01b039081169382019390935260028201549092169282019290925260038201546060820152600482015460ff161515608082015285519293509091859087908110610c6757610c67612529565b6020908102919091010152610c7d600186612516565b945050505b80610c8c8161253f565b915050610baa565b336000908152600c602052604090205460ff16610cf35760405162461bcd60e51b815260206004820152601f60248201527f566f7573206e27c3aa746573207061732061646d696e6973747261746575720060448201526064016106c3565b6001600160a01b0381166000908152600d602052604090205460ff1615610d5c5760405162461bcd60e51b815260206004820152601b60248201527f417274697374652064c3a96ac3a020656e72656769737472c3a92e000000000060448201526064016106c3565b6001600160a01b0381166000818152600d6020908152604091829020805460ff1916600117905590519182527fa8476a100dfe10a5a1eaf141fb52ce03e930b3592d93f086ea603b0f9152649a91015b60405180910390a150565b6000818152600260205260408120546001600160a01b0316806105905760405162461bcd60e51b8152602060048201526018602482015277115490cdcc8c4e881a5b9d985b1a59081d1bdad95b88125160421b60448201526064016106c3565b60006001600160a01b038216610e815760405162461bcd60e51b815260206004820152602960248201527f4552433732313a2061646472657373207a65726f206973206e6f7420612076616044820152683634b21037bbb732b960b91b60648201526084016106c3565b506001600160a01b031660009081526003602052604090205490565b6000610ead600780546001019055565b6000610eb860075490565b9050610ec43382611807565b610ece81856119a0565b610ed88184611a33565b9392505050565b6000828152600e60205260409020600201546001600160a01b03163314610f5e5760405162461bcd60e51b815260206004820152602d60248201527f566f7573206e27c3aa74657320706173206c652070726f707269c3a97461697260448201526c329032329031b2903a37b5b2b760991b60648201526084016106c3565b6009543414610fc05760405162461bcd60e51b815260206004820152602860248201527f4c65207072697820646f697420c3aa74726520c3a967616c20617520707269786044820152672064c3a966696e6960c01b60648201526084016106c3565b6000828152600e6020526040902060048101805460ff19169055600381018290556001810180546001600160a01b0319908116331790915560029091018054909116301790556110106008611bec565b61101b333084611696565b5050565b6110276120ab565b506000908152600e6020908152604091829020825160a0810184528154815260018201546001600160a01b03908116938201939093526002820154909216928201929092526003820154606082015260049091015460ff161515608082015290565b6060600180546105a5906124b3565b61101b338383611c43565b600a546001600160a01b031633146111495760405162461bcd60e51b815260206004820152605f60248201527f4c652070726978206475206c697374696e6720737572206c6120706c6174656660448201527f6f726d65206e65207065757420c3aa747265206d6f64696669c3a9207175652060648201527f706172206c652070726f707269c3a9746169726520647520636f6e7472617400608482015260a4016106c3565b600955565b6111583383611618565b6111745760405162461bcd60e51b81526004016106c390612558565b61118084848484611d11565b50505050565b6000818152600e602052604090206003015434811461120d5760405162461bcd60e51b815260206004820152603860248201527f4d65726369206427696e646971756572206c6520707269782064656d616e64c360448201527fa920706f75722066696e616c69736572206c276163686174000000000000000060648201526084016106c3565b6000828152600e602052604090206002810180546001600160a01b0319908116331790915560048201805460ff191660019081179091559091018054909116905561125c600880546001019055565b611267303384611696565b600a546009546040516001600160a01b039092169181156108fc0291906000818181858888f193505050501580156112a3573d6000803e3d6000fd5b506000828152600e60205260408082206001015490516001600160a01b03909116913480156108fc02929091818181858888f19350505050158015610764573d6000803e3d6000fd5b600b546001600160a01b0316331461137b5760405162461bcd60e51b815260206004820152604660248201527f4c65732041646d696e69737472617465757273206e652070657576656e7420c360448201527faa74726520656e726769737472c3a9732071756520706172206c6520737570656064820152653920b236b4b760d11b608482015260a4016106c3565b6001600160a01b0381166000908152600c602052604090205460ff16156113e45760405162461bcd60e51b815260206004820181905260248201527f436574746520706572736f6e6e65206573742064c3a96ac3a02061646d696e2e60448201526064016106c3565b6001600160a01b0381166000818152600c6020908152604091829020805460ff1916600117905590519182527fac0f15283d37631c15b481bc07dc402bcfc030956bcd94b5585f71d92e84c3da9101610dac565b606061144382611548565b6000828152600660205260408120805461145c906124b3565b80601f0160208091040260200160405190810160405280929190818152602001828054611488906124b3565b80156114d55780601f106114aa576101008083540402835291602001916114d5565b820191906000526020600020905b8154815290600101906020018083116114b857829003601f168201915b5050505050905060006114f360408051602081019091526000815290565b90508051600003611505575092915050565b81511561153757808260405160200161151f9291906125a5565b60405160208183030381529060405292505050919050565b61154084611d44565b949350505050565b6000818152600260205260409020546001600160a01b03166115a75760405162461bcd60e51b8152602060048201526018602482015277115490cdcc8c4e881a5b9d985b1a59081d1bdad95b88125160421b60448201526064016106c3565b50565b600081815260046020526040902080546001600160a01b0319166001600160a01b03841690811790915581906115df82610db7565b6001600160a01b03167f8c5be1e5ebec7d5bd14f71427d1e84f3dd0314c0f7b2291e5b200ac8c7c3b92560405160405180910390a45050565b60008061162483610db7565b9050806001600160a01b0316846001600160a01b0316148061166b57506001600160a01b0380821660009081526005602090815260408083209388168352929052205460ff165b806115405750836001600160a01b031661168484610628565b6001600160a01b031614949350505050565b826001600160a01b03166116a982610db7565b6001600160a01b0316146116cf5760405162461bcd60e51b81526004016106c3906125d4565b6001600160a01b0382166117315760405162461bcd60e51b8152602060048201526024808201527f4552433732313a207472616e7366657220746f20746865207a65726f206164646044820152637265737360e01b60648201526084016106c3565b61173e8383836001611db7565b826001600160a01b031661175182610db7565b6001600160a01b0316146117775760405162461bcd60e51b81526004016106c3906125d4565b600081815260046020908152604080832080546001600160a01b03199081169091556001600160a01b0387811680865260038552838620805460001901905590871680865283862080546001019055868652600290945282852080549092168417909155905184937fddf252ad1be2c89b69c2b068fc378daa952ba7f163c4a11628f55a4df523b3ef91a4505050565b6001600160a01b03821661185d5760405162461bcd60e51b815260206004820181905260248201527f4552433732313a206d696e7420746f20746865207a65726f206164647265737360448201526064016106c3565b6000818152600260205260409020546001600160a01b0316156118c25760405162461bcd60e51b815260206004820152601c60248201527f4552433732313a20746f6b656e20616c7265616479206d696e7465640000000060448201526064016106c3565b6118d0600083836001611db7565b6000818152600260205260409020546001600160a01b0316156119355760405162461bcd60e51b815260206004820152601c60248201527f4552433732313a20746f6b656e20616c7265616479206d696e7465640000000060448201526064016106c3565b6001600160a01b038216600081815260036020908152604080832080546001019055848352600290915280822080546001600160a01b0319168417905551839291907fddf252ad1be2c89b69c2b068fc378daa952ba7f163c4a11628f55a4df523b3ef908290a45050565b6000828152600260205260409020546001600160a01b0316611a1b5760405162461bcd60e51b815260206004820152602e60248201527f45524337323155524953746f726167653a2055524920736574206f66206e6f6e60448201526d32bc34b9ba32b73a103a37b5b2b760911b60648201526084016106c3565b60008281526006602052604090206107648282612667565b60008111611a8e5760405162461bcd60e51b815260206004820152602260248201527f4c65207072697820646f697420c3aa74726520737570c3a9726965757220c3a0604482015261020360f41b60648201526084016106c3565b6009543414611b07576040805162461bcd60e51b81526020600482015260248101919091527f4c65207072697820646f697420c3aa74726520737570c3a9726965757220c3a060448201527f206c6120636f6d6d697373696f6e206465206c6120706c617465666f726d652e60648201526084016106c3565b6040805160a08101825283815233602080830182815230848601818152606086018881526000608088018181528b8252600e909652979097209551865591516001860180546001600160a01b03199081166001600160a01b0393841617909155925160028701805490941691161790915593516003840155516004909201805460ff191692151592909217909155611b9f9184611696565b604080513381523060208201529081018290526000606082015282907fb640004f1d14576d0c209e240cad0410e0d8c0c33a09375861fbadae2588a98d9060800160405180910390a25050565b805480611c3b5760405162461bcd60e51b815260206004820152601b60248201527f436f756e7465723a2064656372656d656e74206f766572666c6f77000000000060448201526064016106c3565b600019019055565b816001600160a01b0316836001600160a01b031603611ca45760405162461bcd60e51b815260206004820152601960248201527f4552433732313a20617070726f766520746f2063616c6c65720000000000000060448201526064016106c3565b6001600160a01b03838116600081815260056020908152604080832094871680845294825291829020805460ff191686151590811790915591519182527f17307eab39ab6107e8899845ad3d59bd9653f200f220920489ca2b5937696c31910160405180910390a3505050565b611d1c848484611696565b611d2884848484611e3f565b6111805760405162461bcd60e51b81526004016106c390612727565b6060611d4f82611548565b6000611d6660408051602081019091526000815290565b90506000815111611d865760405180602001604052806000815250610ed8565b80611d9084611f40565b604051602001611da19291906125a5565b6040516020818303038152906040529392505050565b6001811115611180576001600160a01b03841615611dfd576001600160a01b03841660009081526003602052604081208054839290611df7908490612503565b90915550505b6001600160a01b03831615611180576001600160a01b03831660009081526003602052604081208054839290611e34908490612516565b909155505050505050565b60006001600160a01b0384163b15611f3557604051630a85bd0160e11b81526001600160a01b0385169063150b7a0290611e83903390899088908890600401612779565b6020604051808303816000875af1925050508015611ebe575060408051601f3d908101601f19168201909252611ebb918101906127b6565b60015b611f1b573d808015611eec576040519150601f19603f3d011682016040523d82523d6000602084013e611ef1565b606091505b508051600003611f135760405162461bcd60e51b81526004016106c390612727565b805181602001fd5b6001600160e01b031916630a85bd0160e11b149050611540565b506001949350505050565b60606000611f4d83611fd3565b600101905060008167ffffffffffffffff811115611f6d57611f6d6122b3565b6040519080825280601f01601f191660200182016040528015611f97576020820181803683370190505b5090508181016020015b600019016f181899199a1a9b1b9c1cb0b131b232b360811b600a86061a8153600a8504945084611fa157509392505050565b60008072184f03e93ff9f4daa797ed6e38ed64bf6a1f0160401b83106120125772184f03e93ff9f4daa797ed6e38ed64bf6a1f0160401b830492506040015b6d04ee2d6d415b85acef8100000000831061203e576d04ee2d6d415b85acef8100000000830492506020015b662386f26fc10000831061205c57662386f26fc10000830492506010015b6305f5e1008310612074576305f5e100830492506008015b612710831061208857612710830492506004015b6064831061209a576064830492506002015b600a83106105905760010192915050565b6040805160a08101825260008082526020820181905291810182905260608101829052608081019190915290565b6001600160e01b0319811681146115a757600080fd5b60006020828403121561210157600080fd5b8135610ed8816120d9565b60005b8381101561212757818101518382015260200161210f565b50506000910152565b6000815180845261214881602086016020860161210c565b601f01601f19169290920160200192915050565b602081526000610ed86020830184612130565b60006020828403121561218157600080fd5b5035919050565b80356001600160a01b038116811461219f57600080fd5b919050565b600080604083850312156121b757600080fd5b6121c083612188565b946020939093013593505050565b805182526020808201516001600160a01b039081169184019190915260408083015190911690830152606080820151908301526080908101511515910152565b6020808252825182820181905260009190848201906040850190845b818110156122505761223d8385516121ce565b9284019260a0929092019160010161222a565b50909695505050505050565b60008060006060848603121561227157600080fd5b61227a84612188565b925061228860208501612188565b9150604084013590509250925092565b6000602082840312156122aa57600080fd5b610ed882612188565b634e487b7160e01b600052604160045260246000fd5b600067ffffffffffffffff808411156122e4576122e46122b3565b604051601f8501601f19908116603f0116810190828211818310171561230c5761230c6122b3565b8160405280935085815286868601111561232557600080fd5b858560208301376000602087830101525050509392505050565b6000806040838503121561235257600080fd5b823567ffffffffffffffff81111561236957600080fd5b8301601f8101851361237a57600080fd5b612389858235602084016122c9565b95602094909401359450505050565b600080604083850312156123ab57600080fd5b50508035926020909101359150565b60a0810161059082846121ce565b600080604083850312156123db57600080fd5b6123e483612188565b9150602083013580151581146123f957600080fd5b809150509250929050565b6000806000806080858703121561241a57600080fd5b61242385612188565b935061243160208601612188565b925060408501359150606085013567ffffffffffffffff81111561245457600080fd5b8501601f8101871361246557600080fd5b612474878235602084016122c9565b91505092959194509250565b6000806040838503121561249357600080fd5b61249c83612188565b91506124aa60208401612188565b90509250929050565b600181811c908216806124c757607f821691505b6020821081036124e757634e487b7160e01b600052602260045260246000fd5b50919050565b634e487b7160e01b600052601160045260246000fd5b81810381811115610590576105906124ed565b80820180821115610590576105906124ed565b634e487b7160e01b600052603260045260246000fd5b600060018201612551576125516124ed565b5060010190565b6020808252602d908201527f4552433732313a2063616c6c6572206973206e6f7420746f6b656e206f776e6560408201526c1c881bdc88185c1c1c9bdd9959609a1b606082015260800190565b600083516125b781846020880161210c565b8351908301906125cb81836020880161210c565b01949350505050565b60208082526025908201527f4552433732313a207472616e736665722066726f6d20696e636f72726563742060408201526437bbb732b960d91b606082015260800190565b601f82111561076457600081815260208120601f850160051c810160208610156126405750805b601f850160051c820191505b8181101561265f5782815560010161264c565b505050505050565b815167ffffffffffffffff811115612681576126816122b3565b6126958161268f84546124b3565b84612619565b602080601f8311600181146126ca57600084156126b25750858301515b600019600386901b1c1916600185901b17855561265f565b600085815260208120601f198616915b828110156126f9578886015182559484019460019091019084016126da565b50858210156127175787850151600019600388901b60f8161c191681555b5050505050600190811b01905550565b60208082526032908201527f4552433732313a207472616e7366657220746f206e6f6e20455243373231526560408201527131b2b4bb32b91034b6b83632b6b2b73a32b960711b606082015260800190565b6001600160a01b03858116825284166020820152604081018390526080606082018190526000906127ac90830184612130565b9695505050505050565b6000602082840312156127c857600080fd5b8151610ed8816120d956fea264697066735822122083115ab00d08c4d42fd43f8d2ad09afe24731062d757fe26f4d5d8c12b647ac464736f6c63430008110033",
    "sourcePath": "/home/blu3m00n/Documents/Informatique/Dveloppement/Alyra/Ethereum/Projets/democratiz_art/contracts/Democratiz_Art.sol",
    "compiler": {
        "name": "solc",
        "version": "0.8.17+commit.8df45f5f"
    },
    "functionHashes": {
        "adminRegistered(address)": "db68cae6",
        "approve(address,uint256)": "095ea7b3",
        "artistRegistered(address)": "316ee9fb",
        "balanceOf(address)": "70a08231",
        "checkSuperAdmin()": "c0b776d5",
        "createMarketSale(uint256)": "be9af536",
        "createToken(string,uint256)": "72b3b620",
        "fetchItemsListed()": "45f8fa80",
        "fetchMarketItems()": "0f08efe0",
        "fetchMyNFTs()": "202e3740",
        "getApproved(uint256)": "081812fc",
        "getListedTokenForId(uint256)": "8e264590",
        "getListingPrice()": "12e85585",
        "isApprovedForAll(address,address)": "e985e9c5",
        "name()": "06fdde03",
        "ownerOf(uint256)": "6352211e",
        "reSellToken(uint256,uint256)": "85535b25",
        "registerAdmin(address)": "c38c5813",
        "registerArtist(address)": "4cb33d5b",
        "safeTransferFrom(address,address,uint256)": "42842e0e",
        "safeTransferFrom(address,address,uint256,bytes)": "b88d4fde",
        "setApprovalForAll(address,bool)": "a22cb465",
        "supportsInterface(bytes4)": "01ffc9a7",
        "symbol()": "95d89b41",
        "tokenURI(uint256)": "c87b56dd",
        "transferFrom(address,address,uint256)": "23b872dd",
        "updateListingPrice(uint256)": "ae677aa3"
    },
    "gasEstimates": {
        "creation": {
            "codeDepositCost": "2049800",
            "executionCost": "infinite",
            "totalCost": "infinite"
        },
        "external": {
            "adminRegistered(address)": "2626",
            "approve(address,uint256)": "infinite",
            "artistRegistered(address)": "2628",
            "balanceOf(address)": "2635",
            "checkSuperAdmin()": "2420",
            "createMarketSale(uint256)": "infinite",
            "createToken(string,uint256)": "infinite",
            "fetchItemsListed()": "infinite",
            "fetchMarketItems()": "infinite",
            "fetchMyNFTs()": "infinite",
            "getApproved(uint256)": "4792",
            "getListedTokenForId(uint256)": "11486",
            "getListingPrice()": "2415",
            "isApprovedForAll(address,address)": "infinite",
            "name()": "infinite",
            "ownerOf(uint256)": "2649",
            "reSellToken(uint256,uint256)": "infinite",
            "registerAdmin(address)": "30090",
            "registerArtist(address)": "30175",
            "safeTransferFrom(address,address,uint256)": "infinite",
            "safeTransferFrom(address,address,uint256,bytes)": "infinite",
            "setApprovalForAll(address,bool)": "26772",
            "supportsInterface(bytes4)": "534",
            "symbol()": "infinite",
            "tokenURI(uint256)": "infinite",
            "transferFrom(address,address,uint256)": "infinite",
            "updateListingPrice(uint256)": "24551"
        },
        "internal": {
            "createMarketItem(uint256,uint256)": "infinite"
        }
    }
}