{
  "_format": "hh-sol-artifact-1",
  "contractName": "Democratiz_Art",
  "sourceName": "contracts/Democratiz_Art.sol",
  "abi": [
    {
      "inputs": [],
      "stateMutability": "nonpayable",
      "type": "constructor"
    },
    {
      "anonymous": false,
      "inputs": [
        {
          "indexed": false,
          "internalType": "address",
          "name": "_address",
          "type": "address"
        }
      ],
      "name": "AdminRegistered",
      "type": "event"
    },
    {
      "anonymous": false,
      "inputs": [
        {
          "indexed": true,
          "internalType": "address",
          "name": "owner",
          "type": "address"
        },
        {
          "indexed": true,
          "internalType": "address",
          "name": "approved",
          "type": "address"
        },
        {
          "indexed": true,
          "internalType": "uint256",
          "name": "tokenId",
          "type": "uint256"
        }
      ],
      "name": "Approval",
      "type": "event"
    },
    {
      "anonymous": false,
      "inputs": [
        {
          "indexed": true,
          "internalType": "address",
          "name": "owner",
          "type": "address"
        },
        {
          "indexed": true,
          "internalType": "address",
          "name": "operator",
          "type": "address"
        },
        {
          "indexed": false,
          "internalType": "bool",
          "name": "approved",
          "type": "bool"
        }
      ],
      "name": "ApprovalForAll",
      "type": "event"
    },
    {
      "anonymous": false,
      "inputs": [
        {
          "indexed": false,
          "internalType": "address",
          "name": "_address",
          "type": "address"
        }
      ],
      "name": "ArtistRegistered",
      "type": "event"
    },
    {
      "anonymous": false,
      "inputs": [
        {
          "indexed": true,
          "internalType": "address",
          "name": "previousOwner",
          "type": "address"
        },
        {
          "indexed": true,
          "internalType": "address",
          "name": "newOwner",
          "type": "address"
        }
      ],
      "name": "OwnershipTransferred",
      "type": "event"
    },
    {
      "anonymous": false,
      "inputs": [
        {
          "indexed": true,
          "internalType": "address",
          "name": "from",
          "type": "address"
        },
        {
          "indexed": true,
          "internalType": "address",
          "name": "to",
          "type": "address"
        },
        {
          "indexed": true,
          "internalType": "uint256",
          "name": "tokenId",
          "type": "uint256"
        }
      ],
      "name": "Transfer",
      "type": "event"
    },
    {
      "anonymous": false,
      "inputs": [
        {
          "indexed": true,
          "internalType": "uint256",
          "name": "tokenId",
          "type": "uint256"
        },
        {
          "indexed": false,
          "internalType": "address",
          "name": "seller",
          "type": "address"
        },
        {
          "indexed": false,
          "internalType": "address",
          "name": "propr",
          "type": "address"
        },
        {
          "indexed": false,
          "internalType": "uint256",
          "name": "price",
          "type": "uint256"
        },
        {
          "indexed": false,
          "internalType": "bool",
          "name": "sold",
          "type": "bool"
        }
      ],
      "name": "idToMarketItemCreated",
      "type": "event"
    },
    {
      "inputs": [
        {
          "internalType": "address",
          "name": "_address",
          "type": "address"
        }
      ],
      "name": "adminRegistered",
      "outputs": [
        {
          "internalType": "bool",
          "name": "",
          "type": "bool"
        }
      ],
      "stateMutability": "view",
      "type": "function"
    },
    {
      "inputs": [
        {
          "internalType": "address",
          "name": "to",
          "type": "address"
        },
        {
          "internalType": "uint256",
          "name": "tokenId",
          "type": "uint256"
        }
      ],
      "name": "approve",
      "outputs": [],
      "stateMutability": "nonpayable",
      "type": "function"
    },
    {
      "inputs": [
        {
          "internalType": "address",
          "name": "_address",
          "type": "address"
        }
      ],
      "name": "artistRegistered",
      "outputs": [
        {
          "internalType": "bool",
          "name": "",
          "type": "bool"
        }
      ],
      "stateMutability": "view",
      "type": "function"
    },
    {
      "inputs": [
        {
          "internalType": "address",
          "name": "owner",
          "type": "address"
        }
      ],
      "name": "balanceOf",
      "outputs": [
        {
          "internalType": "uint256",
          "name": "",
          "type": "uint256"
        }
      ],
      "stateMutability": "view",
      "type": "function"
    },
    {
      "inputs": [
        {
          "internalType": "uint256",
          "name": "tokenId",
          "type": "uint256"
        }
      ],
      "name": "createMarketSale",
      "outputs": [],
      "stateMutability": "payable",
      "type": "function"
    },
    {
      "inputs": [
        {
          "internalType": "string",
          "name": "tokenURI",
          "type": "string"
        },
        {
          "internalType": "uint256",
          "name": "price",
          "type": "uint256"
        }
      ],
      "name": "createToken",
      "outputs": [
        {
          "internalType": "uint256",
          "name": "",
          "type": "uint256"
        }
      ],
      "stateMutability": "payable",
      "type": "function"
    },
    {
      "inputs": [],
      "name": "fetchItemsListed",
      "outputs": [
        {
          "components": [
            {
              "internalType": "uint256",
              "name": "tokenId",
              "type": "uint256"
            },
            {
              "internalType": "address payable",
              "name": "seller",
              "type": "address"
            },
            {
              "internalType": "address payable",
              "name": "propr",
              "type": "address"
            },
            {
              "internalType": "uint256",
              "name": "price",
              "type": "uint256"
            },
            {
              "internalType": "bool",
              "name": "sold",
              "type": "bool"
            }
          ],
          "internalType": "struct Democratiz_Art.MarketItem[]",
          "name": "",
          "type": "tuple[]"
        }
      ],
      "stateMutability": "view",
      "type": "function"
    },
    {
      "inputs": [],
      "name": "fetchMarketItem",
      "outputs": [
        {
          "components": [
            {
              "internalType": "uint256",
              "name": "tokenId",
              "type": "uint256"
            },
            {
              "internalType": "address payable",
              "name": "seller",
              "type": "address"
            },
            {
              "internalType": "address payable",
              "name": "propr",
              "type": "address"
            },
            {
              "internalType": "uint256",
              "name": "price",
              "type": "uint256"
            },
            {
              "internalType": "bool",
              "name": "sold",
              "type": "bool"
            }
          ],
          "internalType": "struct Democratiz_Art.MarketItem[]",
          "name": "",
          "type": "tuple[]"
        }
      ],
      "stateMutability": "view",
      "type": "function"
    },
    {
      "inputs": [],
      "name": "fetchMyNFT",
      "outputs": [
        {
          "components": [
            {
              "internalType": "uint256",
              "name": "tokenId",
              "type": "uint256"
            },
            {
              "internalType": "address payable",
              "name": "seller",
              "type": "address"
            },
            {
              "internalType": "address payable",
              "name": "propr",
              "type": "address"
            },
            {
              "internalType": "uint256",
              "name": "price",
              "type": "uint256"
            },
            {
              "internalType": "bool",
              "name": "sold",
              "type": "bool"
            }
          ],
          "internalType": "struct Democratiz_Art.MarketItem[]",
          "name": "",
          "type": "tuple[]"
        }
      ],
      "stateMutability": "view",
      "type": "function"
    },
    {
      "inputs": [
        {
          "internalType": "uint256",
          "name": "tokenId",
          "type": "uint256"
        }
      ],
      "name": "getApproved",
      "outputs": [
        {
          "internalType": "address",
          "name": "",
          "type": "address"
        }
      ],
      "stateMutability": "view",
      "type": "function"
    },
    {
      "inputs": [],
      "name": "getListingPrice",
      "outputs": [
        {
          "internalType": "uint256",
          "name": "",
          "type": "uint256"
        }
      ],
      "stateMutability": "view",
      "type": "function"
    },
    {
      "inputs": [
        {
          "internalType": "address",
          "name": "owner",
          "type": "address"
        },
        {
          "internalType": "address",
          "name": "operator",
          "type": "address"
        }
      ],
      "name": "isApprovedForAll",
      "outputs": [
        {
          "internalType": "bool",
          "name": "",
          "type": "bool"
        }
      ],
      "stateMutability": "view",
      "type": "function"
    },
    {
      "inputs": [],
      "name": "name",
      "outputs": [
        {
          "internalType": "string",
          "name": "",
          "type": "string"
        }
      ],
      "stateMutability": "view",
      "type": "function"
    },
    {
      "inputs": [],
      "name": "owner",
      "outputs": [
        {
          "internalType": "address",
          "name": "",
          "type": "address"
        }
      ],
      "stateMutability": "view",
      "type": "function"
    },
    {
      "inputs": [
        {
          "internalType": "uint256",
          "name": "tokenId",
          "type": "uint256"
        }
      ],
      "name": "ownerOf",
      "outputs": [
        {
          "internalType": "address",
          "name": "",
          "type": "address"
        }
      ],
      "stateMutability": "view",
      "type": "function"
    },
    {
      "inputs": [
        {
          "internalType": "uint256",
          "name": "tokenId",
          "type": "uint256"
        },
        {
          "internalType": "uint256",
          "name": "price",
          "type": "uint256"
        }
      ],
      "name": "reSellToken",
      "outputs": [],
      "stateMutability": "payable",
      "type": "function"
    },
    {
      "inputs": [
        {
          "internalType": "address",
          "name": "_address",
          "type": "address"
        }
      ],
      "name": "registerAdmin",
      "outputs": [],
      "stateMutability": "nonpayable",
      "type": "function"
    },
    {
      "inputs": [
        {
          "internalType": "address",
          "name": "_address",
          "type": "address"
        }
      ],
      "name": "registerArtist",
      "outputs": [],
      "stateMutability": "nonpayable",
      "type": "function"
    },
    {
      "inputs": [],
      "name": "renounceOwnership",
      "outputs": [],
      "stateMutability": "nonpayable",
      "type": "function"
    },
    {
      "inputs": [
        {
          "internalType": "address",
          "name": "from",
          "type": "address"
        },
        {
          "internalType": "address",
          "name": "to",
          "type": "address"
        },
        {
          "internalType": "uint256",
          "name": "tokenId",
          "type": "uint256"
        }
      ],
      "name": "safeTransferFrom",
      "outputs": [],
      "stateMutability": "nonpayable",
      "type": "function"
    },
    {
      "inputs": [
        {
          "internalType": "address",
          "name": "from",
          "type": "address"
        },
        {
          "internalType": "address",
          "name": "to",
          "type": "address"
        },
        {
          "internalType": "uint256",
          "name": "tokenId",
          "type": "uint256"
        },
        {
          "internalType": "bytes",
          "name": "data",
          "type": "bytes"
        }
      ],
      "name": "safeTransferFrom",
      "outputs": [],
      "stateMutability": "nonpayable",
      "type": "function"
    },
    {
      "inputs": [
        {
          "internalType": "address",
          "name": "operator",
          "type": "address"
        },
        {
          "internalType": "bool",
          "name": "approved",
          "type": "bool"
        }
      ],
      "name": "setApprovalForAll",
      "outputs": [],
      "stateMutability": "nonpayable",
      "type": "function"
    },
    {
      "inputs": [
        {
          "internalType": "bytes4",
          "name": "interfaceId",
          "type": "bytes4"
        }
      ],
      "name": "supportsInterface",
      "outputs": [
        {
          "internalType": "bool",
          "name": "",
          "type": "bool"
        }
      ],
      "stateMutability": "view",
      "type": "function"
    },
    {
      "inputs": [],
      "name": "symbol",
      "outputs": [
        {
          "internalType": "string",
          "name": "",
          "type": "string"
        }
      ],
      "stateMutability": "view",
      "type": "function"
    },
    {
      "inputs": [
        {
          "internalType": "uint256",
          "name": "tokenId",
          "type": "uint256"
        }
      ],
      "name": "tokenURI",
      "outputs": [
        {
          "internalType": "string",
          "name": "",
          "type": "string"
        }
      ],
      "stateMutability": "view",
      "type": "function"
    },
    {
      "inputs": [
        {
          "internalType": "address",
          "name": "from",
          "type": "address"
        },
        {
          "internalType": "address",
          "name": "to",
          "type": "address"
        },
        {
          "internalType": "uint256",
          "name": "tokenId",
          "type": "uint256"
        }
      ],
      "name": "transferFrom",
      "outputs": [],
      "stateMutability": "nonpayable",
      "type": "function"
    },
    {
      "inputs": [
        {
          "internalType": "address",
          "name": "newOwner",
          "type": "address"
        }
      ],
      "name": "transferOwnership",
      "outputs": [],
      "stateMutability": "nonpayable",
      "type": "function"
    },
    {
      "inputs": [
        {
          "internalType": "uint256",
          "name": "_listingPrice",
          "type": "uint256"
        }
      ],
      "name": "updateListingPrice",
      "outputs": [],
      "stateMutability": "payable",
      "type": "function"
    }
  ],
  "bytecode": "0x60806040526605543df729c000600a553480156200001c57600080fd5b506040518060400160405280601281526020017f4e46542044656d6f63726174697a5f41727400000000000000000000000000008152506040518060400160405280600581526020017f44414e465400000000000000000000000000000000000000000000000000000081525081600090816200009a919062000443565b508060019081620000ac919062000443565b505050620000cf620000c3620000fb60201b60201c565b6200010360201b60201c565b3373ffffffffffffffffffffffffffffffffffffffff16600b60009054906101000a905050506200052a565b600033905090565b6000600760009054906101000a900473ffffffffffffffffffffffffffffffffffffffff16905081600760006101000a81548173ffffffffffffffffffffffffffffffffffffffff021916908373ffffffffffffffffffffffffffffffffffffffff1602179055508173ffffffffffffffffffffffffffffffffffffffff168173ffffffffffffffffffffffffffffffffffffffff167f8be0079c531659141344cd1fd0a4f28419497f9722a3daafe3b4186f6b6457e060405160405180910390a35050565b600081519050919050565b7f4e487b7100000000000000000000000000000000000000000000000000000000600052604160045260246000fd5b7f4e487b7100000000000000000000000000000000000000000000000000000000600052602260045260246000fd5b600060028204905060018216806200024b57607f821691505b60208210810362000261576200026062000203565b5b50919050565b60008190508160005260206000209050919050565b60006020601f8301049050919050565b600082821b905092915050565b600060088302620002cb7fffffffffffffffffffffffffffffffffffffffffffffffffffffffffffffffff826200028c565b620002d786836200028c565b95508019841693508086168417925050509392505050565b6000819050919050565b6000819050919050565b6000620003246200031e6200031884620002ef565b620002f9565b620002ef565b9050919050565b6000819050919050565b620003408362000303565b620003586200034f826200032b565b84845462000299565b825550505050565b600090565b6200036f62000360565b6200037c81848462000335565b505050565b5b81811015620003a4576200039860008262000365565b60018101905062000382565b5050565b601f821115620003f357620003bd8162000267565b620003c8846200027c565b81016020851015620003d8578190505b620003f0620003e7856200027c565b83018262000381565b50505b505050565b600082821c905092915050565b60006200041860001984600802620003f8565b1980831691505092915050565b600062000433838362000405565b9150826002028217905092915050565b6200044e82620001c9565b67ffffffffffffffff8111156200046a5762000469620001d4565b5b62000476825462000232565b62000483828285620003a8565b600060209050601f831160018114620004bb5760008415620004a6578287015190505b620004b2858262000425565b86555062000522565b601f198416620004cb8662000267565b60005b82811015620004f557848901518255600182019150602085019450602081019050620004ce565b8683101562000515578489015162000511601f89168262000405565b8355505b6001600288020188555050505b505050505050565b614c7a806200053a6000396000f3fe6080604052600436106101b75760003560e01c806385535b25116100ec578063be9af5361161008a578063c87b56dd11610064578063c87b56dd146105d4578063db68cae614610611578063e985e9c51461064e578063f2fde38b1461068b576101b7565b8063be9af53614610564578063c18763f714610580578063c38c5813146105ab576101b7565b806395d89b41116100c657806395d89b41146104cb578063a22cb465146104f6578063ae677aa31461051f578063b88d4fde1461053b576101b7565b806385535b25146104595780638da5cb5b146104755780638fafd021146104a0576101b7565b806342842e0e116101595780636352211e116101335780636352211e1461039857806370a08231146103d5578063715018a61461041257806372b3b62014610429576101b7565b806342842e0e1461031b57806345f8fa80146103445780634cb33d5b1461036f576101b7565b8063095ea7b311610195578063095ea7b31461026157806312e855851461028a57806323b872dd146102b5578063316ee9fb146102de576101b7565b806301ffc9a7146101bc57806306fdde03146101f9578063081812fc14610224575b600080fd5b3480156101c857600080fd5b506101e360048036038101906101de91906132d6565b6106b4565b6040516101f0919061331e565b60405180910390f35b34801561020557600080fd5b5061020e610796565b60405161021b91906133c9565b60405180910390f35b34801561023057600080fd5b5061024b60048036038101906102469190613421565b610828565b604051610258919061348f565b60405180910390f35b34801561026d57600080fd5b50610288600480360381019061028391906134d6565b61086e565b005b34801561029657600080fd5b5061029f610985565b6040516102ac9190613525565b60405180910390f35b3480156102c157600080fd5b506102dc60048036038101906102d79190613540565b61098f565b005b3480156102ea57600080fd5b5061030560048036038101906103009190613593565b6109ef565b604051610312919061331e565b60405180910390f35b34801561032757600080fd5b50610342600480360381019061033d9190613540565b610a45565b005b34801561035057600080fd5b50610359610a65565b6040516103669190613716565b60405180910390f35b34801561037b57600080fd5b5061039660048036038101906103919190613593565b610d51565b005b3480156103a457600080fd5b506103bf60048036038101906103ba9190613421565b610efc565b6040516103cc919061348f565b60405180910390f35b3480156103e157600080fd5b506103fc60048036038101906103f79190613593565b610f82565b6040516104099190613525565b60405180910390f35b34801561041e57600080fd5b50610427611039565b005b610443600480360381019061043e919061386d565b61104d565b6040516104509190613525565b60405180910390f35b610473600480360381019061046e91906138c9565b61108f565b005b34801561048157600080fd5b5061048a611284565b604051610497919061348f565b60405180910390f35b3480156104ac57600080fd5b506104b56112ae565b6040516104c29190613716565b60405180910390f35b3480156104d757600080fd5b506104e0611516565b6040516104ed91906133c9565b60405180910390f35b34801561050257600080fd5b5061051d60048036038101906105189190613935565b6115a8565b005b61053960048036038101906105349190613421565b6115be565b005b34801561054757600080fd5b50610562600480360381019061055d9190613a16565b6115d0565b005b61057e60048036038101906105799190613421565b611632565b005b34801561058c57600080fd5b5061059561186a565b6040516105a29190613716565b60405180910390f35b3480156105b757600080fd5b506105d260048036038101906105cd9190613593565b611b56565b005b3480156105e057600080fd5b506105fb60048036038101906105f69190613421565b611c7d565b60405161060891906133c9565b60405180910390f35b34801561061d57600080fd5b5061063860048036038101906106339190613593565b611d8f565b604051610645919061331e565b60405180910390f35b34801561065a57600080fd5b5061067560048036038101906106709190613a99565b611de5565b604051610682919061331e565b60405180910390f35b34801561069757600080fd5b506106b260048036038101906106ad9190613593565b611e79565b005b60007f80ac58cd000000000000000000000000000000000000000000000000000000007bffffffffffffffffffffffffffffffffffffffffffffffffffffffff1916827bffffffffffffffffffffffffffffffffffffffffffffffffffffffff1916148061077f57507f5b5e139f000000000000000000000000000000000000000000000000000000007bffffffffffffffffffffffffffffffffffffffffffffffffffffffff1916827bffffffffffffffffffffffffffffffffffffffffffffffffffffffff1916145b8061078f575061078e82611efc565b5b9050919050565b6060600080546107a590613b08565b80601f01602080910402602001604051908101604052809291908181526020018280546107d190613b08565b801561081e5780601f106107f35761010080835404028352916020019161081e565b820191906000526020600020905b81548152906001019060200180831161080157829003601f168201915b5050505050905090565b600061083382611f66565b6004600083815260200190815260200160002060009054906101000a900473ffffffffffffffffffffffffffffffffffffffff169050919050565b600061087982610efc565b90508073ffffffffffffffffffffffffffffffffffffffff168373ffffffffffffffffffffffffffffffffffffffff16036108e9576040517f08c379a00000000000000000000000000000000000000000000000000000000081526004016108e090613bab565b60405180910390fd5b8073ffffffffffffffffffffffffffffffffffffffff16610908611fb1565b73ffffffffffffffffffffffffffffffffffffffff161480610937575061093681610931611fb1565b611de5565b5b610976576040517f08c379a000000000000000000000000000000000000000000000000000000000815260040161096d90613c3d565b60405180910390fd5b6109808383611fb9565b505050565b6000600a54905090565b6109a061099a611fb1565b82612072565b6109df576040517f08c379a00000000000000000000000000000000000000000000000000000000081526004016109d690613ccf565b60405180910390fd5b6109ea838383612107565b505050565b6000600d60008373ffffffffffffffffffffffffffffffffffffffff1673ffffffffffffffffffffffffffffffffffffffff16815260200190815260200160002060009054906101000a900460ff169050919050565b610a60838383604051806020016040528060008152506115d0565b505050565b60606000610a736008612400565b905060008060005b83811015610b1b573373ffffffffffffffffffffffffffffffffffffffff16600e6000600184610aab9190613d1e565b815260200190815260200160002060010160009054906101000a900473ffffffffffffffffffffffffffffffffffffffff1673ffffffffffffffffffffffffffffffffffffffff1603610b0857600181610b059190613d1e565b92505b8080610b1390613d52565b915050610a7b565b5060008267ffffffffffffffff811115610b3857610b37613742565b5b604051908082528060200260200182016040528015610b7157816020015b610b5e61320d565b815260200190600190039081610b565790505b50905060005b84811015610d46573373ffffffffffffffffffffffffffffffffffffffff16600e6000600184610ba79190613d1e565b815260200190815260200160002060010160009054906101000a900473ffffffffffffffffffffffffffffffffffffffff1673ffffffffffffffffffffffffffffffffffffffff1603610d33576000600182610c039190613d1e565b90506000600e60008381526020019081526020016000209050806040518060a0016040529081600082015481526020016001820160009054906101000a900473ffffffffffffffffffffffffffffffffffffffff1673ffffffffffffffffffffffffffffffffffffffff1673ffffffffffffffffffffffffffffffffffffffff1681526020016002820160009054906101000a900473ffffffffffffffffffffffffffffffffffffffff1673ffffffffffffffffffffffffffffffffffffffff1673ffffffffffffffffffffffffffffffffffffffff168152602001600382015481526020016004820160009054906101000a900460ff161515151581525050848681518110610d1657610d15613d9a565b5b6020026020010181905250600185610d2e9190613d1e565b945050505b8080610d3e90613d52565b915050610b77565b508094505050505090565b600c60003373ffffffffffffffffffffffffffffffffffffffff1673ffffffffffffffffffffffffffffffffffffffff16815260200190815260200160002060009054906101000a900460ff16610ddd576040517f08c379a0000000000000000000000000000000000000000000000000000000008152600401610dd490613e15565b60405180910390fd5b600d60008273ffffffffffffffffffffffffffffffffffffffff1673ffffffffffffffffffffffffffffffffffffffff16815260200190815260200160002060009054906101000a900460ff1615610e6a576040517f08c379a0000000000000000000000000000000000000000000000000000000008152600401610e6190613e81565b60405180910390fd5b6001600d60008373ffffffffffffffffffffffffffffffffffffffff1673ffffffffffffffffffffffffffffffffffffffff16815260200190815260200160002060006101000a81548160ff0219169083151502179055507fa8476a100dfe10a5a1eaf141fb52ce03e930b3592d93f086ea603b0f9152649a81604051610ef1919061348f565b60405180910390a150565b600080610f088361240e565b9050600073ffffffffffffffffffffffffffffffffffffffff168173ffffffffffffffffffffffffffffffffffffffff1603610f79576040517f08c379a0000000000000000000000000000000000000000000000000000000008152600401610f7090613eed565b60405180910390fd5b80915050919050565b60008073ffffffffffffffffffffffffffffffffffffffff168273ffffffffffffffffffffffffffffffffffffffff1603610ff2576040517f08c379a0000000000000000000000000000000000000000000000000000000008152600401610fe990613f7f565b60405180910390fd5b600360008373ffffffffffffffffffffffffffffffffffffffff1673ffffffffffffffffffffffffffffffffffffffff168152602001908152602001600020549050919050565b61104161244b565b61104b60006124c9565b565b6000611059600861258f565b60006110656008612400565b905061107133826125a5565b61107b81856127c2565b611085818461282f565b8091505092915050565b3373ffffffffffffffffffffffffffffffffffffffff16600e600084815260200190815260200160002060020160009054906101000a900473ffffffffffffffffffffffffffffffffffffffff1673ffffffffffffffffffffffffffffffffffffffff1614611133576040517f08c379a000000000000000000000000000000000000000000000000000000000815260040161112a90614011565b60405180910390fd5b600a543414611177576040517f08c379a000000000000000000000000000000000000000000000000000000000815260040161116e906140a3565b60405180910390fd5b6000600e600084815260200190815260200160002060040160006101000a81548160ff02191690831515021790555080600e60008481526020019081526020016000206003018190555033600e600084815260200190815260200160002060010160006101000a81548173ffffffffffffffffffffffffffffffffffffffff021916908373ffffffffffffffffffffffffffffffffffffffff16021790555030600e600084815260200190815260200160002060020160006101000a81548173ffffffffffffffffffffffffffffffffffffffff021916908373ffffffffffffffffffffffffffffffffffffffff1602179055506112756009612a32565b611280333084612107565b5050565b6000600760009054906101000a900473ffffffffffffffffffffffffffffffffffffffff16905090565b606060006112bc6008612400565b905060006112ca6009612400565b6112d46008612400565b6112de91906140c3565b90506000808267ffffffffffffffff8111156112fd576112fc613742565b5b60405190808252806020026020018201604052801561133657816020015b61132361320d565b81526020019060019003908161131b5790505b50905060005b8481101561150b573073ffffffffffffffffffffffffffffffffffffffff16600e600060018461136c9190613d1e565b815260200190815260200160002060020160009054906101000a900473ffffffffffffffffffffffffffffffffffffffff1673ffffffffffffffffffffffffffffffffffffffff16036114f85760006001826113c89190613d1e565b90506000600e60008381526020019081526020016000209050806040518060a0016040529081600082015481526020016001820160009054906101000a900473ffffffffffffffffffffffffffffffffffffffff1673ffffffffffffffffffffffffffffffffffffffff1673ffffffffffffffffffffffffffffffffffffffff1681526020016002820160009054906101000a900473ffffffffffffffffffffffffffffffffffffffff1673ffffffffffffffffffffffffffffffffffffffff1673ffffffffffffffffffffffffffffffffffffffff168152602001600382015481526020016004820160009054906101000a900460ff1615151515815250508486815181106114db576114da613d9a565b5b60200260200101819052506001856114f39190613d1e565b945050505b808061150390613d52565b91505061133c565b508094505050505090565b60606001805461152590613b08565b80601f016020809104026020016040519081016040528092919081815260200182805461155190613b08565b801561159e5780601f106115735761010080835404028352916020019161159e565b820191906000526020600020905b81548152906001019060200180831161158157829003601f168201915b5050505050905090565b6115ba6115b3611fb1565b8383612a8e565b5050565b6115c661244b565b80600a8190555050565b6115e16115db611fb1565b83612072565b611620576040517f08c379a000000000000000000000000000000000000000000000000000000000815260040161161790613ccf565b60405180910390fd5b61162c84848484612bfa565b50505050565b6000600e600083815260200190815260200160002060030154905080341461168f576040517f08c379a000000000000000000000000000000000000000000000000000000000815260040161168690614169565b60405180910390fd5b33600e600084815260200190815260200160002060020160006101000a81548173ffffffffffffffffffffffffffffffffffffffff021916908373ffffffffffffffffffffffffffffffffffffffff1602179055506001600e600084815260200190815260200160002060040160006101000a81548160ff0219169083151502179055506000600e600084815260200190815260200160002060010160006101000a81548173ffffffffffffffffffffffffffffffffffffffff021916908373ffffffffffffffffffffffffffffffffffffffff160217905550611773600961258f565b61177e303384612107565b600b60009054906101000a900473ffffffffffffffffffffffffffffffffffffffff1673ffffffffffffffffffffffffffffffffffffffff166108fc600a549081150290604051600060405180830381858888f193505050501580156117e8573d6000803e3d6000fd5b50600e600083815260200190815260200160002060010160009054906101000a900473ffffffffffffffffffffffffffffffffffffffff1673ffffffffffffffffffffffffffffffffffffffff166108fc349081150290604051600060405180830381858888f19350505050158015611865573d6000803e3d6000fd5b505050565b606060006118786008612400565b905060008060005b83811015611920573373ffffffffffffffffffffffffffffffffffffffff16600e60006001846118b09190613d1e565b815260200190815260200160002060020160009054906101000a900473ffffffffffffffffffffffffffffffffffffffff1673ffffffffffffffffffffffffffffffffffffffff160361190d5760018161190a9190613d1e565b92505b808061191890613d52565b915050611880565b5060008267ffffffffffffffff81111561193d5761193c613742565b5b60405190808252806020026020018201604052801561197657816020015b61196361320d565b81526020019060019003908161195b5790505b50905060005b84811015611b4b573373ffffffffffffffffffffffffffffffffffffffff16600e60006001846119ac9190613d1e565b815260200190815260200160002060020160009054906101000a900473ffffffffffffffffffffffffffffffffffffffff1673ffffffffffffffffffffffffffffffffffffffff1603611b38576000600182611a089190613d1e565b90506000600e60008381526020019081526020016000209050806040518060a0016040529081600082015481526020016001820160009054906101000a900473ffffffffffffffffffffffffffffffffffffffff1673ffffffffffffffffffffffffffffffffffffffff1673ffffffffffffffffffffffffffffffffffffffff1681526020016002820160009054906101000a900473ffffffffffffffffffffffffffffffffffffffff1673ffffffffffffffffffffffffffffffffffffffff1673ffffffffffffffffffffffffffffffffffffffff168152602001600382015481526020016004820160009054906101000a900460ff161515151581525050848681518110611b1b57611b1a613d9a565b5b6020026020010181905250600185611b339190613d1e565b945050505b8080611b4390613d52565b91505061197c565b508094505050505090565b611b5e61244b565b600c60008273ffffffffffffffffffffffffffffffffffffffff1673ffffffffffffffffffffffffffffffffffffffff16815260200190815260200160002060009054906101000a900460ff1615611beb576040517f08c379a0000000000000000000000000000000000000000000000000000000008152600401611be2906141d5565b60405180910390fd5b6001600c60008373ffffffffffffffffffffffffffffffffffffffff1673ffffffffffffffffffffffffffffffffffffffff16815260200190815260200160002060006101000a81548160ff0219169083151502179055507fac0f15283d37631c15b481bc07dc402bcfc030956bcd94b5585f71d92e84c3da81604051611c72919061348f565b60405180910390a150565b6060611c8882611f66565b6000600660008481526020019081526020016000208054611ca890613b08565b80601f0160208091040260200160405190810160405280929190818152602001828054611cd490613b08565b8015611d215780601f10611cf657610100808354040283529160200191611d21565b820191906000526020600020905b815481529060010190602001808311611d0457829003601f168201915b505050505090506000611d32612c56565b90506000815103611d47578192505050611d8a565b600082511115611d7c578082604051602001611d64929190614231565b60405160208183030381529060405292505050611d8a565b611d8584612c6d565b925050505b919050565b6000600c60008373ffffffffffffffffffffffffffffffffffffffff1673ffffffffffffffffffffffffffffffffffffffff16815260200190815260200160002060009054906101000a900460ff169050919050565b6000600560008473ffffffffffffffffffffffffffffffffffffffff1673ffffffffffffffffffffffffffffffffffffffff16815260200190815260200160002060008373ffffffffffffffffffffffffffffffffffffffff1673ffffffffffffffffffffffffffffffffffffffff16815260200190815260200160002060009054906101000a900460ff16905092915050565b611e8161244b565b600073ffffffffffffffffffffffffffffffffffffffff168173ffffffffffffffffffffffffffffffffffffffff1603611ef0576040517f08c379a0000000000000000000000000000000000000000000000000000000008152600401611ee7906142c7565b60405180910390fd5b611ef9816124c9565b50565b60007f01ffc9a7000000000000000000000000000000000000000000000000000000007bffffffffffffffffffffffffffffffffffffffffffffffffffffffff1916827bffffffffffffffffffffffffffffffffffffffffffffffffffffffff1916149050919050565b611f6f81612cd5565b611fae576040517f08c379a0000000000000000000000000000000000000000000000000000000008152600401611fa590613eed565b60405180910390fd5b50565b600033905090565b816004600083815260200190815260200160002060006101000a81548173ffffffffffffffffffffffffffffffffffffffff021916908373ffffffffffffffffffffffffffffffffffffffff160217905550808273ffffffffffffffffffffffffffffffffffffffff1661202c83610efc565b73ffffffffffffffffffffffffffffffffffffffff167f8c5be1e5ebec7d5bd14f71427d1e84f3dd0314c0f7b2291e5b200ac8c7c3b92560405160405180910390a45050565b60008061207e83610efc565b90508073ffffffffffffffffffffffffffffffffffffffff168473ffffffffffffffffffffffffffffffffffffffff1614806120c057506120bf8185611de5565b5b806120fe57508373ffffffffffffffffffffffffffffffffffffffff166120e684610828565b73ffffffffffffffffffffffffffffffffffffffff16145b91505092915050565b8273ffffffffffffffffffffffffffffffffffffffff1661212782610efc565b73ffffffffffffffffffffffffffffffffffffffff161461217d576040517f08c379a000000000000000000000000000000000000000000000000000000000815260040161217490614359565b60405180910390fd5b600073ffffffffffffffffffffffffffffffffffffffff168273ffffffffffffffffffffffffffffffffffffffff16036121ec576040517f08c379a00000000000000000000000000000000000000000000000000000000081526004016121e3906143eb565b60405180910390fd5b6121f98383836001612d16565b8273ffffffffffffffffffffffffffffffffffffffff1661221982610efc565b73ffffffffffffffffffffffffffffffffffffffff161461226f576040517f08c379a000000000000000000000000000000000000000000000000000000000815260040161226690614359565b60405180910390fd5b6004600082815260200190815260200160002060006101000a81549073ffffffffffffffffffffffffffffffffffffffff02191690556001600360008573ffffffffffffffffffffffffffffffffffffffff1673ffffffffffffffffffffffffffffffffffffffff168152602001908152602001600020600082825403925050819055506001600360008473ffffffffffffffffffffffffffffffffffffffff1673ffffffffffffffffffffffffffffffffffffffff16815260200190815260200160002060008282540192505081905550816002600083815260200190815260200160002060006101000a81548173ffffffffffffffffffffffffffffffffffffffff021916908373ffffffffffffffffffffffffffffffffffffffff160217905550808273ffffffffffffffffffffffffffffffffffffffff168473ffffffffffffffffffffffffffffffffffffffff167fddf252ad1be2c89b69c2b068fc378daa952ba7f163c4a11628f55a4df523b3ef60405160405180910390a46123fb8383836001612e3c565b505050565b600081600001549050919050565b60006002600083815260200190815260200160002060009054906101000a900473ffffffffffffffffffffffffffffffffffffffff169050919050565b612453611fb1565b73ffffffffffffffffffffffffffffffffffffffff16612471611284565b73ffffffffffffffffffffffffffffffffffffffff16146124c7576040517f08c379a00000000000000000000000000000000000000000000000000000000081526004016124be90614457565b60405180910390fd5b565b6000600760009054906101000a900473ffffffffffffffffffffffffffffffffffffffff16905081600760006101000a81548173ffffffffffffffffffffffffffffffffffffffff021916908373ffffffffffffffffffffffffffffffffffffffff1602179055508173ffffffffffffffffffffffffffffffffffffffff168173ffffffffffffffffffffffffffffffffffffffff167f8be0079c531659141344cd1fd0a4f28419497f9722a3daafe3b4186f6b6457e060405160405180910390a35050565b6001816000016000828254019250508190555050565b600073ffffffffffffffffffffffffffffffffffffffff168273ffffffffffffffffffffffffffffffffffffffff1603612614576040517f08c379a000000000000000000000000000000000000000000000000000000000815260040161260b906144c3565b60405180910390fd5b61261d81612cd5565b1561265d576040517f08c379a00000000000000000000000000000000000000000000000000000000081526004016126549061452f565b60405180910390fd5b61266b600083836001612d16565b61267481612cd5565b156126b4576040517f08c379a00000000000000000000000000000000000000000000000000000000081526004016126ab9061452f565b60405180910390fd5b6001600360008473ffffffffffffffffffffffffffffffffffffffff1673ffffffffffffffffffffffffffffffffffffffff16815260200190815260200160002060008282540192505081905550816002600083815260200190815260200160002060006101000a81548173ffffffffffffffffffffffffffffffffffffffff021916908373ffffffffffffffffffffffffffffffffffffffff160217905550808273ffffffffffffffffffffffffffffffffffffffff16600073ffffffffffffffffffffffffffffffffffffffff167fddf252ad1be2c89b69c2b068fc378daa952ba7f163c4a11628f55a4df523b3ef60405160405180910390a46127be600083836001612e3c565b5050565b6127cb82612cd5565b61280a576040517f08c379a0000000000000000000000000000000000000000000000000000000008152600401612801906145c1565b60405180910390fd5b8060066000848152602001908152602001600020908161282a919061478d565b505050565b60008111612872576040517f08c379a0000000000000000000000000000000000000000000000000000000008152600401612869906148d1565b60405180910390fd5b600a5434146128b6576040517f08c379a00000000000000000000000000000000000000000000000000000000081526004016128ad90614963565b60405180910390fd5b6040518060a001604052808381526020013373ffffffffffffffffffffffffffffffffffffffff1681526020013073ffffffffffffffffffffffffffffffffffffffff16815260200182815260200160001515815250600e60008481526020019081526020016000206000820151816000015560208201518160010160006101000a81548173ffffffffffffffffffffffffffffffffffffffff021916908373ffffffffffffffffffffffffffffffffffffffff16021790555060408201518160020160006101000a81548173ffffffffffffffffffffffffffffffffffffffff021916908373ffffffffffffffffffffffffffffffffffffffff1602179055506060820151816003015560808201518160040160006101000a81548160ff0219169083151502179055509050506129ef333084612107565b817f3e6929b95aadb146b3880d299110d50a3e90a467efc5c0c9827e521b59b02d153330846000604051612a269493929190614983565b60405180910390a25050565b60008160000154905060008111612a7e576040517f08c379a0000000000000000000000000000000000000000000000000000000008152600401612a7590614a14565b60405180910390fd5b6001810382600001819055505050565b8173ffffffffffffffffffffffffffffffffffffffff168373ffffffffffffffffffffffffffffffffffffffff1603612afc576040517f08c379a0000000000000000000000000000000000000000000000000000000008152600401612af390614a80565b60405180910390fd5b80600560008573ffffffffffffffffffffffffffffffffffffffff1673ffffffffffffffffffffffffffffffffffffffff16815260200190815260200160002060008473ffffffffffffffffffffffffffffffffffffffff1673ffffffffffffffffffffffffffffffffffffffff16815260200190815260200160002060006101000a81548160ff0219169083151502179055508173ffffffffffffffffffffffffffffffffffffffff168373ffffffffffffffffffffffffffffffffffffffff167f17307eab39ab6107e8899845ad3d59bd9653f200f220920489ca2b5937696c3183604051612bed919061331e565b60405180910390a3505050565b612c05848484612107565b612c1184848484612e42565b612c50576040517f08c379a0000000000000000000000000000000000000000000000000000000008152600401612c4790614b12565b60405180910390fd5b50505050565b606060405180602001604052806000815250905090565b6060612c7882611f66565b6000612c82612c56565b90506000815111612ca25760405180602001604052806000815250612ccd565b80612cac84612fc9565b604051602001612cbd929190614231565b6040516020818303038152906040525b915050919050565b60008073ffffffffffffffffffffffffffffffffffffffff16612cf78361240e565b73ffffffffffffffffffffffffffffffffffffffff1614159050919050565b6001811115612e3657600073ffffffffffffffffffffffffffffffffffffffff168473ffffffffffffffffffffffffffffffffffffffff1614612daa5780600360008673ffffffffffffffffffffffffffffffffffffffff1673ffffffffffffffffffffffffffffffffffffffff1681526020019081526020016000206000828254612da291906140c3565b925050819055505b600073ffffffffffffffffffffffffffffffffffffffff168373ffffffffffffffffffffffffffffffffffffffff1614612e355780600360008573ffffffffffffffffffffffffffffffffffffffff1673ffffffffffffffffffffffffffffffffffffffff1681526020019081526020016000206000828254612e2d9190613d1e565b925050819055505b5b50505050565b50505050565b6000612e638473ffffffffffffffffffffffffffffffffffffffff16613097565b15612fbc578373ffffffffffffffffffffffffffffffffffffffff1663150b7a02612e8c611fb1565b8786866040518563ffffffff1660e01b8152600401612eae9493929190614b87565b6020604051808303816000875af1925050508015612eea57506040513d601f19601f82011682018060405250810190612ee79190614be8565b60015b612f6c573d8060008114612f1a576040519150601f19603f3d011682016040523d82523d6000602084013e612f1f565b606091505b506000815103612f64576040517f08c379a0000000000000000000000000000000000000000000000000000000008152600401612f5b90614b12565b60405180910390fd5b805181602001fd5b63150b7a0260e01b7bffffffffffffffffffffffffffffffffffffffffffffffffffffffff1916817bffffffffffffffffffffffffffffffffffffffffffffffffffffffff191614915050612fc1565b600190505b949350505050565b606060006001612fd8846130ba565b01905060008167ffffffffffffffff811115612ff757612ff6613742565b5b6040519080825280601f01601f1916602001820160405280156130295781602001600182028036833780820191505090505b509050600082602001820190505b60011561308c578080600190039150507f3031323334353637383961626364656600000000000000000000000000000000600a86061a8153600a85816130805761307f614c15565b5b04945060008503613037575b819350505050919050565b6000808273ffffffffffffffffffffffffffffffffffffffff163b119050919050565b600080600090507a184f03e93ff9f4daa797ed6e38ed64bf6a1f0100000000000000008310613118577a184f03e93ff9f4daa797ed6e38ed64bf6a1f010000000000000000838161310e5761310d614c15565b5b0492506040810190505b6d04ee2d6d415b85acef81000000008310613155576d04ee2d6d415b85acef8100000000838161314b5761314a614c15565b5b0492506020810190505b662386f26fc10000831061318457662386f26fc10000838161317a57613179614c15565b5b0492506010810190505b6305f5e10083106131ad576305f5e10083816131a3576131a2614c15565b5b0492506008810190505b61271083106131d25761271083816131c8576131c7614c15565b5b0492506004810190505b606483106131f557606483816131eb576131ea614c15565b5b0492506002810190505b600a8310613204576001810190505b80915050919050565b6040518060a0016040528060008152602001600073ffffffffffffffffffffffffffffffffffffffff168152602001600073ffffffffffffffffffffffffffffffffffffffff168152602001600081526020016000151581525090565b6000604051905090565b600080fd5b600080fd5b60007fffffffff0000000000000000000000000000000000000000000000000000000082169050919050565b6132b38161327e565b81146132be57600080fd5b50565b6000813590506132d0816132aa565b92915050565b6000602082840312156132ec576132eb613274565b5b60006132fa848285016132c1565b91505092915050565b60008115159050919050565b61331881613303565b82525050565b6000602082019050613333600083018461330f565b92915050565b600081519050919050565b600082825260208201905092915050565b60005b83811015613373578082015181840152602081019050613358565b60008484015250505050565b6000601f19601f8301169050919050565b600061339b82613339565b6133a58185613344565b93506133b5818560208601613355565b6133be8161337f565b840191505092915050565b600060208201905081810360008301526133e38184613390565b905092915050565b6000819050919050565b6133fe816133eb565b811461340957600080fd5b50565b60008135905061341b816133f5565b92915050565b60006020828403121561343757613436613274565b5b60006134458482850161340c565b91505092915050565b600073ffffffffffffffffffffffffffffffffffffffff82169050919050565b60006134798261344e565b9050919050565b6134898161346e565b82525050565b60006020820190506134a46000830184613480565b92915050565b6134b38161346e565b81146134be57600080fd5b50565b6000813590506134d0816134aa565b92915050565b600080604083850312156134ed576134ec613274565b5b60006134fb858286016134c1565b925050602061350c8582860161340c565b9150509250929050565b61351f816133eb565b82525050565b600060208201905061353a6000830184613516565b92915050565b60008060006060848603121561355957613558613274565b5b6000613567868287016134c1565b9350506020613578868287016134c1565b92505060406135898682870161340c565b9150509250925092565b6000602082840312156135a9576135a8613274565b5b60006135b7848285016134c1565b91505092915050565b600081519050919050565b600082825260208201905092915050565b6000819050602082019050919050565b6135f5816133eb565b82525050565b60006136068261344e565b9050919050565b613616816135fb565b82525050565b61362581613303565b82525050565b60a08201600082015161364160008501826135ec565b506020820151613654602085018261360d565b506040820151613667604085018261360d565b50606082015161367a60608501826135ec565b50608082015161368d608085018261361c565b50505050565b600061369f838361362b565b60a08301905092915050565b6000602082019050919050565b60006136c3826135c0565b6136cd81856135cb565b93506136d8836135dc565b8060005b838110156137095781516136f08882613693565b97506136fb836136ab565b9250506001810190506136dc565b5085935050505092915050565b6000602082019050818103600083015261373081846136b8565b905092915050565b600080fd5b600080fd5b7f4e487b7100000000000000000000000000000000000000000000000000000000600052604160045260246000fd5b61377a8261337f565b810181811067ffffffffffffffff8211171561379957613798613742565b5b80604052505050565b60006137ac61326a565b90506137b88282613771565b919050565b600067ffffffffffffffff8211156137d8576137d7613742565b5b6137e18261337f565b9050602081019050919050565b82818337600083830152505050565b600061381061380b846137bd565b6137a2565b90508281526020810184848401111561382c5761382b61373d565b5b6138378482856137ee565b509392505050565b600082601f83011261385457613853613738565b5b81356138648482602086016137fd565b91505092915050565b6000806040838503121561388457613883613274565b5b600083013567ffffffffffffffff8111156138a2576138a1613279565b5b6138ae8582860161383f565b92505060206138bf8582860161340c565b9150509250929050565b600080604083850312156138e0576138df613274565b5b60006138ee8582860161340c565b92505060206138ff8582860161340c565b9150509250929050565b61391281613303565b811461391d57600080fd5b50565b60008135905061392f81613909565b92915050565b6000806040838503121561394c5761394b613274565b5b600061395a858286016134c1565b925050602061396b85828601613920565b9150509250929050565b600067ffffffffffffffff8211156139905761398f613742565b5b6139998261337f565b9050602081019050919050565b60006139b96139b484613975565b6137a2565b9050828152602081018484840111156139d5576139d461373d565b5b6139e08482856137ee565b509392505050565b600082601f8301126139fd576139fc613738565b5b8135613a0d8482602086016139a6565b91505092915050565b60008060008060808587031215613a3057613a2f613274565b5b6000613a3e878288016134c1565b9450506020613a4f878288016134c1565b9350506040613a608782880161340c565b925050606085013567ffffffffffffffff811115613a8157613a80613279565b5b613a8d878288016139e8565b91505092959194509250565b60008060408385031215613ab057613aaf613274565b5b6000613abe858286016134c1565b9250506020613acf858286016134c1565b9150509250929050565b7f4e487b7100000000000000000000000000000000000000000000000000000000600052602260045260246000fd5b60006002820490506001821680613b2057607f821691505b602082108103613b3357613b32613ad9565b5b50919050565b7f4552433732313a20617070726f76616c20746f2063757272656e74206f776e6560008201527f7200000000000000000000000000000000000000000000000000000000000000602082015250565b6000613b95602183613344565b9150613ba082613b39565b604082019050919050565b60006020820190508181036000830152613bc481613b88565b9050919050565b7f4552433732313a20617070726f76652063616c6c6572206973206e6f7420746f60008201527f6b656e206f776e6572206f7220617070726f76656420666f7220616c6c000000602082015250565b6000613c27603d83613344565b9150613c3282613bcb565b604082019050919050565b60006020820190508181036000830152613c5681613c1a565b9050919050565b7f4552433732313a2063616c6c6572206973206e6f7420746f6b656e206f776e6560008201527f72206f7220617070726f76656400000000000000000000000000000000000000602082015250565b6000613cb9602d83613344565b9150613cc482613c5d565b604082019050919050565b60006020820190508181036000830152613ce881613cac565b9050919050565b7f4e487b7100000000000000000000000000000000000000000000000000000000600052601160045260246000fd5b6000613d29826133eb565b9150613d34836133eb565b9250828201905080821115613d4c57613d4b613cef565b5b92915050565b6000613d5d826133eb565b91507fffffffffffffffffffffffffffffffffffffffffffffffffffffffffffffffff8203613d8f57613d8e613cef565b5b600182019050919050565b7f4e487b7100000000000000000000000000000000000000000000000000000000600052603260045260246000fd5b7f566f7573206e27c3aa746573207061732061646d696e69737472617465757200600082015250565b6000613dff601f83613344565b9150613e0a82613dc9565b602082019050919050565b60006020820190508181036000830152613e2e81613df2565b9050919050565b7f417274697374652064c3a96ac3a020656e72656769737472c3a92e0000000000600082015250565b6000613e6b601b83613344565b9150613e7682613e35565b602082019050919050565b60006020820190508181036000830152613e9a81613e5e565b9050919050565b7f4552433732313a20696e76616c696420746f6b656e2049440000000000000000600082015250565b6000613ed7601883613344565b9150613ee282613ea1565b602082019050919050565b60006020820190508181036000830152613f0681613eca565b9050919050565b7f4552433732313a2061646472657373207a65726f206973206e6f74206120766160008201527f6c6964206f776e65720000000000000000000000000000000000000000000000602082015250565b6000613f69602983613344565b9150613f7482613f0d565b604082019050919050565b60006020820190508181036000830152613f9881613f5c565b9050919050565b7f566f7573206e27c3aa74657320706173206c652070726f707269c3a97461697260008201527f6520646520636520746f6b656e00000000000000000000000000000000000000602082015250565b6000613ffb602d83613344565b915061400682613f9f565b604082019050919050565b6000602082019050818103600083015261402a81613fee565b9050919050565b7f4c65207072697820646f697420c3aa74726520c3a967616c206175207072697860008201527f2064c3a966696e69000000000000000000000000000000000000000000000000602082015250565b600061408d602883613344565b915061409882614031565b604082019050919050565b600060208201905081810360008301526140bc81614080565b9050919050565b60006140ce826133eb565b91506140d9836133eb565b92508282039050818111156140f1576140f0613cef565b5b92915050565b7f4d65726369206427696e646971756572206c6520707269782064656d616e64c360008201527fa920706f75722066696e616c69736572206c2761636861740000000000000000602082015250565b6000614153603883613344565b915061415e826140f7565b604082019050919050565b6000602082019050818103600083015261418281614146565b9050919050565b7f436574746520706572736f6e6e65206573742064c3a96ac3a02061646d696e2e600082015250565b60006141bf602083613344565b91506141ca82614189565b602082019050919050565b600060208201905081810360008301526141ee816141b2565b9050919050565b600081905092915050565b600061420b82613339565b61421581856141f5565b9350614225818560208601613355565b80840191505092915050565b600061423d8285614200565b91506142498284614200565b91508190509392505050565b7f4f776e61626c653a206e6577206f776e657220697320746865207a65726f206160008201527f6464726573730000000000000000000000000000000000000000000000000000602082015250565b60006142b1602683613344565b91506142bc82614255565b604082019050919050565b600060208201905081810360008301526142e0816142a4565b9050919050565b7f4552433732313a207472616e736665722066726f6d20696e636f72726563742060008201527f6f776e6572000000000000000000000000000000000000000000000000000000602082015250565b6000614343602583613344565b915061434e826142e7565b604082019050919050565b6000602082019050818103600083015261437281614336565b9050919050565b7f4552433732313a207472616e7366657220746f20746865207a65726f2061646460008201527f7265737300000000000000000000000000000000000000000000000000000000602082015250565b60006143d5602483613344565b91506143e082614379565b604082019050919050565b60006020820190508181036000830152614404816143c8565b9050919050565b7f4f776e61626c653a2063616c6c6572206973206e6f7420746865206f776e6572600082015250565b6000614441602083613344565b915061444c8261440b565b602082019050919050565b6000602082019050818103600083015261447081614434565b9050919050565b7f4552433732313a206d696e7420746f20746865207a65726f2061646472657373600082015250565b60006144ad602083613344565b91506144b882614477565b602082019050919050565b600060208201905081810360008301526144dc816144a0565b9050919050565b7f4552433732313a20746f6b656e20616c7265616479206d696e74656400000000600082015250565b6000614519601c83613344565b9150614524826144e3565b602082019050919050565b600060208201905081810360008301526145488161450c565b9050919050565b7f45524337323155524953746f726167653a2055524920736574206f66206e6f6e60008201527f6578697374656e7420746f6b656e000000000000000000000000000000000000602082015250565b60006145ab602e83613344565b91506145b68261454f565b604082019050919050565b600060208201905081810360008301526145da8161459e565b9050919050565b60008190508160005260206000209050919050565b60006020601f8301049050919050565b600082821b905092915050565b6000600883026146437fffffffffffffffffffffffffffffffffffffffffffffffffffffffffffffffff82614606565b61464d8683614606565b95508019841693508086168417925050509392505050565b6000819050919050565b600061468a614685614680846133eb565b614665565b6133eb565b9050919050565b6000819050919050565b6146a48361466f565b6146b86146b082614691565b848454614613565b825550505050565b600090565b6146cd6146c0565b6146d881848461469b565b505050565b5b818110156146fc576146f16000826146c5565b6001810190506146de565b5050565b601f82111561474157614712816145e1565b61471b846145f6565b8101602085101561472a578190505b61473e614736856145f6565b8301826146dd565b50505b505050565b600082821c905092915050565b600061476460001984600802614746565b1980831691505092915050565b600061477d8383614753565b9150826002028217905092915050565b61479682613339565b67ffffffffffffffff8111156147af576147ae613742565b5b6147b98254613b08565b6147c4828285614700565b600060209050601f8311600181146147f757600084156147e5578287015190505b6147ef8582614771565b865550614857565b601f198416614805866145e1565b60005b8281101561482d57848901518255600182019150602085019450602081019050614808565b8683101561484a5784890151614846601f891682614753565b8355505b6001600288020188555050505b505050505050565b7f4c65207072697820646f697420c3aa74726520737570c3a9726965757220c3a060008201527f2030000000000000000000000000000000000000000000000000000000000000602082015250565b60006148bb602283613344565b91506148c68261485f565b604082019050919050565b600060208201905081810360008301526148ea816148ae565b9050919050565b7f4c65207072697820646f697420c3aa74726520737570c3a9726965757220c3a060008201527f206c6120636f6d6d697373696f6e206465206c6120706c617465666f726d652e602082015250565b600061494d604083613344565b9150614958826148f1565b604082019050919050565b6000602082019050818103600083015261497c81614940565b9050919050565b60006080820190506149986000830187613480565b6149a56020830186613480565b6149b26040830185613516565b6149bf606083018461330f565b95945050505050565b7f436f756e7465723a2064656372656d656e74206f766572666c6f770000000000600082015250565b60006149fe601b83613344565b9150614a09826149c8565b602082019050919050565b60006020820190508181036000830152614a2d816149f1565b9050919050565b7f4552433732313a20617070726f766520746f2063616c6c657200000000000000600082015250565b6000614a6a601983613344565b9150614a7582614a34565b602082019050919050565b60006020820190508181036000830152614a9981614a5d565b9050919050565b7f4552433732313a207472616e7366657220746f206e6f6e20455243373231526560008201527f63656976657220696d706c656d656e7465720000000000000000000000000000602082015250565b6000614afc603283613344565b9150614b0782614aa0565b604082019050919050565b60006020820190508181036000830152614b2b81614aef565b9050919050565b600081519050919050565b600082825260208201905092915050565b6000614b5982614b32565b614b638185614b3d565b9350614b73818560208601613355565b614b7c8161337f565b840191505092915050565b6000608082019050614b9c6000830187613480565b614ba96020830186613480565b614bb66040830185613516565b8181036060830152614bc88184614b4e565b905095945050505050565b600081519050614be2816132aa565b92915050565b600060208284031215614bfe57614bfd613274565b5b6000614c0c84828501614bd3565b91505092915050565b7f4e487b7100000000000000000000000000000000000000000000000000000000600052601260045260246000fdfea26469706673582212209d931a15bc97ff7e0e843a8b47f7a6ec27ae427cfb55511a1a50a35a3b1b4b5e64736f6c63430008110033",
  "linkReferences": {},
  "deployedLinkReferences": {}
}