{
  "_format": "hh-sol-artifact-1",
  "contractName": "Democratiz_Art",
  "sourceName": "contracts/Democratiz_Art.sol",
  "abi": [
    {
      "inputs": [],
      "stateMutability": "nonpayable",
      "type": "constructor"
    },
    {
      "anonymous": false,
      "inputs": [
        {
          "indexed": false,
          "internalType": "address",
          "name": "_address",
          "type": "address"
        }
      ],
      "name": "AdminRegistered",
      "type": "event"
    },
    {
      "anonymous": false,
      "inputs": [
        {
          "indexed": true,
          "internalType": "address",
          "name": "owner",
          "type": "address"
        },
        {
          "indexed": true,
          "internalType": "address",
          "name": "approved",
          "type": "address"
        },
        {
          "indexed": true,
          "internalType": "uint256",
          "name": "tokenId",
          "type": "uint256"
        }
      ],
      "name": "Approval",
      "type": "event"
    },
    {
      "anonymous": false,
      "inputs": [
        {
          "indexed": true,
          "internalType": "address",
          "name": "owner",
          "type": "address"
        },
        {
          "indexed": true,
          "internalType": "address",
          "name": "operator",
          "type": "address"
        },
        {
          "indexed": false,
          "internalType": "bool",
          "name": "approved",
          "type": "bool"
        }
      ],
      "name": "ApprovalForAll",
      "type": "event"
    },
    {
      "anonymous": false,
      "inputs": [
        {
          "indexed": false,
          "internalType": "address",
          "name": "_address",
          "type": "address"
        }
      ],
      "name": "ArtistRegistered",
      "type": "event"
    },
    {
      "anonymous": false,
      "inputs": [
        {
          "indexed": true,
          "internalType": "address",
          "name": "from",
          "type": "address"
        },
        {
          "indexed": true,
          "internalType": "address",
          "name": "to",
          "type": "address"
        },
        {
          "indexed": true,
          "internalType": "uint256",
          "name": "tokenId",
          "type": "uint256"
        }
      ],
      "name": "Transfer",
      "type": "event"
    },
    {
      "anonymous": false,
      "inputs": [
        {
          "indexed": true,
          "internalType": "uint256",
          "name": "tokenId",
          "type": "uint256"
        },
        {
          "indexed": false,
          "internalType": "address",
          "name": "seller",
          "type": "address"
        },
        {
          "indexed": false,
          "internalType": "address",
          "name": "owner",
          "type": "address"
        },
        {
          "indexed": false,
          "internalType": "uint256",
          "name": "price",
          "type": "uint256"
        },
        {
          "indexed": false,
          "internalType": "bool",
          "name": "sold",
          "type": "bool"
        }
      ],
      "name": "idToMarketItemCreated",
      "type": "event"
    },
    {
      "inputs": [
        {
          "internalType": "address",
          "name": "_address",
          "type": "address"
        }
      ],
      "name": "adminRegistered",
      "outputs": [
        {
          "internalType": "bool",
          "name": "",
          "type": "bool"
        }
      ],
      "stateMutability": "view",
      "type": "function"
    },
    {
      "inputs": [
        {
          "internalType": "address",
          "name": "to",
          "type": "address"
        },
        {
          "internalType": "uint256",
          "name": "tokenId",
          "type": "uint256"
        }
      ],
      "name": "approve",
      "outputs": [],
      "stateMutability": "nonpayable",
      "type": "function"
    },
    {
      "inputs": [
        {
          "internalType": "address",
          "name": "_address",
          "type": "address"
        }
      ],
      "name": "artistRegistered",
      "outputs": [
        {
          "internalType": "bool",
          "name": "",
          "type": "bool"
        }
      ],
      "stateMutability": "view",
      "type": "function"
    },
    {
      "inputs": [
        {
          "internalType": "address",
          "name": "owner",
          "type": "address"
        }
      ],
      "name": "balanceOf",
      "outputs": [
        {
          "internalType": "uint256",
          "name": "",
          "type": "uint256"
        }
      ],
      "stateMutability": "view",
      "type": "function"
    },
    {
      "inputs": [],
      "name": "checkSuperAdmin",
      "outputs": [
        {
          "internalType": "address",
          "name": "",
          "type": "address"
        }
      ],
      "stateMutability": "view",
      "type": "function"
    },
    {
      "inputs": [
        {
          "internalType": "uint256",
          "name": "tokenId",
          "type": "uint256"
        }
      ],
      "name": "createMarketSale",
      "outputs": [],
      "stateMutability": "payable",
      "type": "function"
    },
    {
      "inputs": [
        {
          "internalType": "string",
          "name": "tokenURI",
          "type": "string"
        },
        {
          "internalType": "uint256",
          "name": "price",
          "type": "uint256"
        }
      ],
      "name": "createToken",
      "outputs": [
        {
          "internalType": "uint256",
          "name": "",
          "type": "uint256"
        }
      ],
      "stateMutability": "payable",
      "type": "function"
    },
    {
      "inputs": [],
      "name": "fetchItemsListed",
      "outputs": [
        {
          "components": [
            {
              "internalType": "uint256",
              "name": "tokenId",
              "type": "uint256"
            },
            {
              "internalType": "address payable",
              "name": "seller",
              "type": "address"
            },
            {
              "internalType": "address payable",
              "name": "owner",
              "type": "address"
            },
            {
              "internalType": "uint256",
              "name": "price",
              "type": "uint256"
            },
            {
              "internalType": "bool",
              "name": "sold",
              "type": "bool"
            }
          ],
          "internalType": "struct Democratiz_Art.MarketItem[]",
          "name": "",
          "type": "tuple[]"
        }
      ],
      "stateMutability": "view",
      "type": "function"
    },
    {
      "inputs": [],
      "name": "fetchMarketItem",
      "outputs": [
        {
          "components": [
            {
              "internalType": "uint256",
              "name": "tokenId",
              "type": "uint256"
            },
            {
              "internalType": "address payable",
              "name": "seller",
              "type": "address"
            },
            {
              "internalType": "address payable",
              "name": "owner",
              "type": "address"
            },
            {
              "internalType": "uint256",
              "name": "price",
              "type": "uint256"
            },
            {
              "internalType": "bool",
              "name": "sold",
              "type": "bool"
            }
          ],
          "internalType": "struct Democratiz_Art.MarketItem[]",
          "name": "",
          "type": "tuple[]"
        }
      ],
      "stateMutability": "view",
      "type": "function"
    },
    {
      "inputs": [],
      "name": "fetchMyNFT",
      "outputs": [
        {
          "components": [
            {
              "internalType": "uint256",
              "name": "tokenId",
              "type": "uint256"
            },
            {
              "internalType": "address payable",
              "name": "seller",
              "type": "address"
            },
            {
              "internalType": "address payable",
              "name": "owner",
              "type": "address"
            },
            {
              "internalType": "uint256",
              "name": "price",
              "type": "uint256"
            },
            {
              "internalType": "bool",
              "name": "sold",
              "type": "bool"
            }
          ],
          "internalType": "struct Democratiz_Art.MarketItem[]",
          "name": "",
          "type": "tuple[]"
        }
      ],
      "stateMutability": "view",
      "type": "function"
    },
    {
      "inputs": [
        {
          "internalType": "uint256",
          "name": "tokenId",
          "type": "uint256"
        }
      ],
      "name": "getApproved",
      "outputs": [
        {
          "internalType": "address",
          "name": "",
          "type": "address"
        }
      ],
      "stateMutability": "view",
      "type": "function"
    },
    {
      "inputs": [
        {
          "internalType": "uint256",
          "name": "tokenId",
          "type": "uint256"
        }
      ],
      "name": "getListedTokenForId",
      "outputs": [
        {
          "components": [
            {
              "internalType": "uint256",
              "name": "tokenId",
              "type": "uint256"
            },
            {
              "internalType": "address payable",
              "name": "seller",
              "type": "address"
            },
            {
              "internalType": "address payable",
              "name": "owner",
              "type": "address"
            },
            {
              "internalType": "uint256",
              "name": "price",
              "type": "uint256"
            },
            {
              "internalType": "bool",
              "name": "sold",
              "type": "bool"
            }
          ],
          "internalType": "struct Democratiz_Art.MarketItem",
          "name": "",
          "type": "tuple"
        }
      ],
      "stateMutability": "view",
      "type": "function"
    },
    {
      "inputs": [],
      "name": "getListingPrice",
      "outputs": [
        {
          "internalType": "uint256",
          "name": "",
          "type": "uint256"
        }
      ],
      "stateMutability": "view",
      "type": "function"
    },
    {
      "inputs": [
        {
          "internalType": "address",
          "name": "owner",
          "type": "address"
        },
        {
          "internalType": "address",
          "name": "operator",
          "type": "address"
        }
      ],
      "name": "isApprovedForAll",
      "outputs": [
        {
          "internalType": "bool",
          "name": "",
          "type": "bool"
        }
      ],
      "stateMutability": "view",
      "type": "function"
    },
    {
      "inputs": [],
      "name": "name",
      "outputs": [
        {
          "internalType": "string",
          "name": "",
          "type": "string"
        }
      ],
      "stateMutability": "view",
      "type": "function"
    },
    {
      "inputs": [
        {
          "internalType": "uint256",
          "name": "tokenId",
          "type": "uint256"
        }
      ],
      "name": "ownerOf",
      "outputs": [
        {
          "internalType": "address",
          "name": "",
          "type": "address"
        }
      ],
      "stateMutability": "view",
      "type": "function"
    },
    {
      "inputs": [
        {
          "internalType": "uint256",
          "name": "tokenId",
          "type": "uint256"
        },
        {
          "internalType": "uint256",
          "name": "price",
          "type": "uint256"
        }
      ],
      "name": "reSellToken",
      "outputs": [],
      "stateMutability": "payable",
      "type": "function"
    },
    {
      "inputs": [
        {
          "internalType": "address",
          "name": "_address",
          "type": "address"
        }
      ],
      "name": "registerAdmin",
      "outputs": [],
      "stateMutability": "nonpayable",
      "type": "function"
    },
    {
      "inputs": [
        {
          "internalType": "address",
          "name": "_address",
          "type": "address"
        }
      ],
      "name": "registerArtist",
      "outputs": [],
      "stateMutability": "nonpayable",
      "type": "function"
    },
    {
      "inputs": [
        {
          "internalType": "address",
          "name": "from",
          "type": "address"
        },
        {
          "internalType": "address",
          "name": "to",
          "type": "address"
        },
        {
          "internalType": "uint256",
          "name": "tokenId",
          "type": "uint256"
        }
      ],
      "name": "safeTransferFrom",
      "outputs": [],
      "stateMutability": "nonpayable",
      "type": "function"
    },
    {
      "inputs": [
        {
          "internalType": "address",
          "name": "from",
          "type": "address"
        },
        {
          "internalType": "address",
          "name": "to",
          "type": "address"
        },
        {
          "internalType": "uint256",
          "name": "tokenId",
          "type": "uint256"
        },
        {
          "internalType": "bytes",
          "name": "data",
          "type": "bytes"
        }
      ],
      "name": "safeTransferFrom",
      "outputs": [],
      "stateMutability": "nonpayable",
      "type": "function"
    },
    {
      "inputs": [
        {
          "internalType": "address",
          "name": "operator",
          "type": "address"
        },
        {
          "internalType": "bool",
          "name": "approved",
          "type": "bool"
        }
      ],
      "name": "setApprovalForAll",
      "outputs": [],
      "stateMutability": "nonpayable",
      "type": "function"
    },
    {
      "inputs": [
        {
          "internalType": "bytes4",
          "name": "interfaceId",
          "type": "bytes4"
        }
      ],
      "name": "supportsInterface",
      "outputs": [
        {
          "internalType": "bool",
          "name": "",
          "type": "bool"
        }
      ],
      "stateMutability": "view",
      "type": "function"
    },
    {
      "inputs": [],
      "name": "symbol",
      "outputs": [
        {
          "internalType": "string",
          "name": "",
          "type": "string"
        }
      ],
      "stateMutability": "view",
      "type": "function"
    },
    {
      "inputs": [
        {
          "internalType": "uint256",
          "name": "tokenId",
          "type": "uint256"
        }
      ],
      "name": "tokenURI",
      "outputs": [
        {
          "internalType": "string",
          "name": "",
          "type": "string"
        }
      ],
      "stateMutability": "view",
      "type": "function"
    },
    {
      "inputs": [
        {
          "internalType": "address",
          "name": "from",
          "type": "address"
        },
        {
          "internalType": "address",
          "name": "to",
          "type": "address"
        },
        {
          "internalType": "uint256",
          "name": "tokenId",
          "type": "uint256"
        }
      ],
      "name": "transferFrom",
      "outputs": [],
      "stateMutability": "nonpayable",
      "type": "function"
    },
    {
      "inputs": [
        {
          "internalType": "uint256",
          "name": "_listingPrice",
          "type": "uint256"
        }
      ],
      "name": "updateListingPrice",
      "outputs": [],
      "stateMutability": "payable",
      "type": "function"
    }
  ],
  "bytecode": "0x60806040526605543df729c0006009553480156200001c57600080fd5b506040518060400160405280601281526020017f4e46542044656d6f63726174697a5f41727400000000000000000000000000008152506040518060400160405280600581526020017f44414e465400000000000000000000000000000000000000000000000000000081525081600090816200009a919062000396565b508060019081620000ac919062000396565b5050503373ffffffffffffffffffffffffffffffffffffffff16600a60009054906101000a9050505033600b60006101000a81548173ffffffffffffffffffffffffffffffffffffffff021916908373ffffffffffffffffffffffffffffffffffffffff1602179055506200047d565b600081519050919050565b7f4e487b7100000000000000000000000000000000000000000000000000000000600052604160045260246000fd5b7f4e487b7100000000000000000000000000000000000000000000000000000000600052602260045260246000fd5b600060028204905060018216806200019e57607f821691505b602082108103620001b457620001b362000156565b5b50919050565b60008190508160005260206000209050919050565b60006020601f8301049050919050565b600082821b905092915050565b6000600883026200021e7fffffffffffffffffffffffffffffffffffffffffffffffffffffffffffffffff82620001df565b6200022a8683620001df565b95508019841693508086168417925050509392505050565b6000819050919050565b6000819050919050565b600062000277620002716200026b8462000242565b6200024c565b62000242565b9050919050565b6000819050919050565b620002938362000256565b620002ab620002a2826200027e565b848454620001ec565b825550505050565b600090565b620002c2620002b3565b620002cf81848462000288565b505050565b5b81811015620002f757620002eb600082620002b8565b600181019050620002d5565b5050565b601f82111562000346576200031081620001ba565b6200031b84620001cf565b810160208510156200032b578190505b620003436200033a85620001cf565b830182620002d4565b50505b505050565b600082821c905092915050565b60006200036b600019846008026200034b565b1980831691505092915050565b600062000386838362000358565b9150826002028217905092915050565b620003a1826200011c565b67ffffffffffffffff811115620003bd57620003bc62000127565b5b620003c9825462000185565b620003d6828285620002fb565b600060209050601f8311600181146200040e5760008415620003f9578287015190505b62000405858262000378565b86555062000475565b601f1984166200041e86620001ba565b60005b82811015620004485784890151825560018201915060208501945060208101905062000421565b8683101562000468578489015162000464601f89168262000358565b8355505b6001600288020188555050505b505050505050565b614d8e806200048d6000396000f3fe60806040526004361061019c5760003560e01c806385535b25116100ec578063be9af5361161008a578063c38c581311610064578063c38c5813146105b6578063c87b56dd146105df578063db68cae61461061c578063e985e9c5146106595761019c565b8063be9af53614610544578063c0b776d514610560578063c18763f71461058b5761019c565b806395d89b41116100c657806395d89b41146104ab578063a22cb465146104d6578063ae677aa3146104ff578063b88d4fde1461051b5761019c565b806385535b25146104275780638e264590146104435780638fafd021146104805761019c565b8063316ee9fb116101595780634cb33d5b116101335780634cb33d5b146103545780636352211e1461037d57806370a08231146103ba57806372b3b620146103f75761019c565b8063316ee9fb146102c357806342842e0e1461030057806345f8fa80146103295761019c565b806301ffc9a7146101a157806306fdde03146101de578063081812fc14610209578063095ea7b31461024657806312e855851461026f57806323b872dd1461029a575b600080fd5b3480156101ad57600080fd5b506101c860048036038101906101c391906132f5565b610696565b6040516101d5919061333d565b60405180910390f35b3480156101ea57600080fd5b506101f3610778565b60405161020091906133e8565b60405180910390f35b34801561021557600080fd5b50610230600480360381019061022b9190613440565b61080a565b60405161023d91906134ae565b60405180910390f35b34801561025257600080fd5b5061026d600480360381019061026891906134f5565b610850565b005b34801561027b57600080fd5b50610284610967565b6040516102919190613544565b60405180910390f35b3480156102a657600080fd5b506102c160048036038101906102bc919061355f565b610971565b005b3480156102cf57600080fd5b506102ea60048036038101906102e591906135b2565b6109d1565b6040516102f7919061333d565b60405180910390f35b34801561030c57600080fd5b506103276004803603810190610322919061355f565b610a27565b005b34801561033557600080fd5b5061033e610a47565b60405161034b9190613735565b60405180910390f35b34801561036057600080fd5b5061037b600480360381019061037691906135b2565b610d33565b005b34801561038957600080fd5b506103a4600480360381019061039f9190613440565b610ede565b6040516103b191906134ae565b60405180910390f35b3480156103c657600080fd5b506103e160048036038101906103dc91906135b2565b610f64565b6040516103ee9190613544565b60405180910390f35b610411600480360381019061040c919061388c565b61101b565b60405161041e9190613544565b60405180910390f35b610441600480360381019061043c91906138e8565b61105d565b005b34801561044f57600080fd5b5061046a60048036038101906104659190613440565b611252565b6040516104779190613990565b60405180910390f35b34801561048c57600080fd5b5061049561135a565b6040516104a29190613735565b60405180910390f35b3480156104b757600080fd5b506104c06115c2565b6040516104cd91906133e8565b60405180910390f35b3480156104e257600080fd5b506104fd60048036038101906104f891906139d7565b611654565b005b61051960048036038101906105149190613440565b61166a565b005b34801561052757600080fd5b50610542600480360381019061053d9190613ab8565b611704565b005b61055e60048036038101906105599190613440565b611766565b005b34801561056c57600080fd5b5061057561199e565b60405161058291906134ae565b60405180910390f35b34801561059757600080fd5b506105a06119c8565b6040516105ad9190613735565b60405180910390f35b3480156105c257600080fd5b506105dd60048036038101906105d891906135b2565b611cb4565b005b3480156105eb57600080fd5b5061060660048036038101906106019190613440565b611e63565b60405161061391906133e8565b60405180910390f35b34801561062857600080fd5b50610643600480360381019061063e91906135b2565b611f75565b604051610650919061333d565b60405180910390f35b34801561066557600080fd5b50610680600480360381019061067b9190613b3b565b611fcb565b60405161068d919061333d565b60405180910390f35b60007f80ac58cd000000000000000000000000000000000000000000000000000000007bffffffffffffffffffffffffffffffffffffffffffffffffffffffff1916827bffffffffffffffffffffffffffffffffffffffffffffffffffffffff1916148061076157507f5b5e139f000000000000000000000000000000000000000000000000000000007bffffffffffffffffffffffffffffffffffffffffffffffffffffffff1916827bffffffffffffffffffffffffffffffffffffffffffffffffffffffff1916145b8061077157506107708261205f565b5b9050919050565b60606000805461078790613baa565b80601f01602080910402602001604051908101604052809291908181526020018280546107b390613baa565b80156108005780601f106107d557610100808354040283529160200191610800565b820191906000526020600020905b8154815290600101906020018083116107e357829003601f168201915b5050505050905090565b6000610815826120c9565b6004600083815260200190815260200160002060009054906101000a900473ffffffffffffffffffffffffffffffffffffffff169050919050565b600061085b82610ede565b90508073ffffffffffffffffffffffffffffffffffffffff168373ffffffffffffffffffffffffffffffffffffffff16036108cb576040517f08c379a00000000000000000000000000000000000000000000000000000000081526004016108c290613c4d565b60405180910390fd5b8073ffffffffffffffffffffffffffffffffffffffff166108ea612114565b73ffffffffffffffffffffffffffffffffffffffff161480610919575061091881610913612114565b611fcb565b5b610958576040517f08c379a000000000000000000000000000000000000000000000000000000000815260040161094f90613cdf565b60405180910390fd5b610962838361211c565b505050565b6000600954905090565b61098261097c612114565b826121d5565b6109c1576040517f08c379a00000000000000000000000000000000000000000000000000000000081526004016109b890613d71565b60405180910390fd5b6109cc83838361226a565b505050565b6000600d60008373ffffffffffffffffffffffffffffffffffffffff1673ffffffffffffffffffffffffffffffffffffffff16815260200190815260200160002060009054906101000a900460ff169050919050565b610a4283838360405180602001604052806000815250611704565b505050565b60606000610a556007612563565b905060008060005b83811015610afd573373ffffffffffffffffffffffffffffffffffffffff16600e6000600184610a8d9190613dc0565b815260200190815260200160002060010160009054906101000a900473ffffffffffffffffffffffffffffffffffffffff1673ffffffffffffffffffffffffffffffffffffffff1603610aea57600181610ae79190613dc0565b92505b8080610af590613df4565b915050610a5d565b5060008267ffffffffffffffff811115610b1a57610b19613761565b5b604051908082528060200260200182016040528015610b5357816020015b610b4061322c565b815260200190600190039081610b385790505b50905060005b84811015610d28573373ffffffffffffffffffffffffffffffffffffffff16600e6000600184610b899190613dc0565b815260200190815260200160002060010160009054906101000a900473ffffffffffffffffffffffffffffffffffffffff1673ffffffffffffffffffffffffffffffffffffffff1603610d15576000600182610be59190613dc0565b90506000600e60008381526020019081526020016000209050806040518060a0016040529081600082015481526020016001820160009054906101000a900473ffffffffffffffffffffffffffffffffffffffff1673ffffffffffffffffffffffffffffffffffffffff1673ffffffffffffffffffffffffffffffffffffffff1681526020016002820160009054906101000a900473ffffffffffffffffffffffffffffffffffffffff1673ffffffffffffffffffffffffffffffffffffffff1673ffffffffffffffffffffffffffffffffffffffff168152602001600382015481526020016004820160009054906101000a900460ff161515151581525050848681518110610cf857610cf7613e3c565b5b6020026020010181905250600185610d109190613dc0565b945050505b8080610d2090613df4565b915050610b59565b508094505050505090565b600c60003373ffffffffffffffffffffffffffffffffffffffff1673ffffffffffffffffffffffffffffffffffffffff16815260200190815260200160002060009054906101000a900460ff16610dbf576040517f08c379a0000000000000000000000000000000000000000000000000000000008152600401610db690613eb7565b60405180910390fd5b600d60008273ffffffffffffffffffffffffffffffffffffffff1673ffffffffffffffffffffffffffffffffffffffff16815260200190815260200160002060009054906101000a900460ff1615610e4c576040517f08c379a0000000000000000000000000000000000000000000000000000000008152600401610e4390613f23565b60405180910390fd5b6001600d60008373ffffffffffffffffffffffffffffffffffffffff1673ffffffffffffffffffffffffffffffffffffffff16815260200190815260200160002060006101000a81548160ff0219169083151502179055507fa8476a100dfe10a5a1eaf141fb52ce03e930b3592d93f086ea603b0f9152649a81604051610ed391906134ae565b60405180910390a150565b600080610eea83612571565b9050600073ffffffffffffffffffffffffffffffffffffffff168173ffffffffffffffffffffffffffffffffffffffff1603610f5b576040517f08c379a0000000000000000000000000000000000000000000000000000000008152600401610f5290613f8f565b60405180910390fd5b80915050919050565b60008073ffffffffffffffffffffffffffffffffffffffff168273ffffffffffffffffffffffffffffffffffffffff1603610fd4576040517f08c379a0000000000000000000000000000000000000000000000000000000008152600401610fcb90614021565b60405180910390fd5b600360008373ffffffffffffffffffffffffffffffffffffffff1673ffffffffffffffffffffffffffffffffffffffff168152602001908152602001600020549050919050565b600061102760076125ae565b60006110336007612563565b905061103f33826125c4565b61104981856127e1565b611053818461284e565b8091505092915050565b3373ffffffffffffffffffffffffffffffffffffffff16600e600084815260200190815260200160002060020160009054906101000a900473ffffffffffffffffffffffffffffffffffffffff1673ffffffffffffffffffffffffffffffffffffffff1614611101576040517f08c379a00000000000000000000000000000000000000000000000000000000081526004016110f8906140b3565b60405180910390fd5b6009543414611145576040517f08c379a000000000000000000000000000000000000000000000000000000000815260040161113c90614145565b60405180910390fd5b6000600e600084815260200190815260200160002060040160006101000a81548160ff02191690831515021790555080600e60008481526020019081526020016000206003018190555033600e600084815260200190815260200160002060010160006101000a81548173ffffffffffffffffffffffffffffffffffffffff021916908373ffffffffffffffffffffffffffffffffffffffff16021790555030600e600084815260200190815260200160002060020160006101000a81548173ffffffffffffffffffffffffffffffffffffffff021916908373ffffffffffffffffffffffffffffffffffffffff1602179055506112436008612a51565b61124e33308461226a565b5050565b61125a61322c565b600e60008381526020019081526020016000206040518060a0016040529081600082015481526020016001820160009054906101000a900473ffffffffffffffffffffffffffffffffffffffff1673ffffffffffffffffffffffffffffffffffffffff1673ffffffffffffffffffffffffffffffffffffffff1681526020016002820160009054906101000a900473ffffffffffffffffffffffffffffffffffffffff1673ffffffffffffffffffffffffffffffffffffffff1673ffffffffffffffffffffffffffffffffffffffff168152602001600382015481526020016004820160009054906101000a900460ff1615151515815250509050919050565b606060006113686007612563565b905060006113766008612563565b6113806007612563565b61138a9190614165565b90506000808267ffffffffffffffff8111156113a9576113a8613761565b5b6040519080825280602002602001820160405280156113e257816020015b6113cf61322c565b8152602001906001900390816113c75790505b50905060005b848110156115b7573073ffffffffffffffffffffffffffffffffffffffff16600e60006001846114189190613dc0565b815260200190815260200160002060020160009054906101000a900473ffffffffffffffffffffffffffffffffffffffff1673ffffffffffffffffffffffffffffffffffffffff16036115a45760006001826114749190613dc0565b90506000600e60008381526020019081526020016000209050806040518060a0016040529081600082015481526020016001820160009054906101000a900473ffffffffffffffffffffffffffffffffffffffff1673ffffffffffffffffffffffffffffffffffffffff1673ffffffffffffffffffffffffffffffffffffffff1681526020016002820160009054906101000a900473ffffffffffffffffffffffffffffffffffffffff1673ffffffffffffffffffffffffffffffffffffffff1673ffffffffffffffffffffffffffffffffffffffff168152602001600382015481526020016004820160009054906101000a900460ff16151515158152505084868151811061158757611586613e3c565b5b602002602001018190525060018561159f9190613dc0565b945050505b80806115af90613df4565b9150506113e8565b508094505050505090565b6060600180546115d190613baa565b80601f01602080910402602001604051908101604052809291908181526020018280546115fd90613baa565b801561164a5780601f1061161f5761010080835404028352916020019161164a565b820191906000526020600020905b81548152906001019060200180831161162d57829003601f168201915b5050505050905090565b61166661165f612114565b8383612aad565b5050565b3373ffffffffffffffffffffffffffffffffffffffff16600a60009054906101000a900473ffffffffffffffffffffffffffffffffffffffff1673ffffffffffffffffffffffffffffffffffffffff16146116fa576040517f08c379a00000000000000000000000000000000000000000000000000000000081526004016116f190614231565b60405180910390fd5b8060098190555050565b61171561170f612114565b836121d5565b611754576040517f08c379a000000000000000000000000000000000000000000000000000000000815260040161174b90613d71565b60405180910390fd5b61176084848484612c19565b50505050565b6000600e60008381526020019081526020016000206003015490508034146117c3576040517f08c379a00000000000000000000000000000000000000000000000000000000081526004016117ba906142c3565b60405180910390fd5b33600e600084815260200190815260200160002060020160006101000a81548173ffffffffffffffffffffffffffffffffffffffff021916908373ffffffffffffffffffffffffffffffffffffffff1602179055506001600e600084815260200190815260200160002060040160006101000a81548160ff0219169083151502179055506000600e600084815260200190815260200160002060010160006101000a81548173ffffffffffffffffffffffffffffffffffffffff021916908373ffffffffffffffffffffffffffffffffffffffff1602179055506118a760086125ae565b6118b230338461226a565b600a60009054906101000a900473ffffffffffffffffffffffffffffffffffffffff1673ffffffffffffffffffffffffffffffffffffffff166108fc6009549081150290604051600060405180830381858888f1935050505015801561191c573d6000803e3d6000fd5b50600e600083815260200190815260200160002060010160009054906101000a900473ffffffffffffffffffffffffffffffffffffffff1673ffffffffffffffffffffffffffffffffffffffff166108fc349081150290604051600060405180830381858888f19350505050158015611999573d6000803e3d6000fd5b505050565b6000600b60009054906101000a900473ffffffffffffffffffffffffffffffffffffffff16905090565b606060006119d66007612563565b905060008060005b83811015611a7e573373ffffffffffffffffffffffffffffffffffffffff16600e6000600184611a0e9190613dc0565b815260200190815260200160002060020160009054906101000a900473ffffffffffffffffffffffffffffffffffffffff1673ffffffffffffffffffffffffffffffffffffffff1603611a6b57600181611a689190613dc0565b92505b8080611a7690613df4565b9150506119de565b5060008267ffffffffffffffff811115611a9b57611a9a613761565b5b604051908082528060200260200182016040528015611ad457816020015b611ac161322c565b815260200190600190039081611ab95790505b50905060005b84811015611ca9573373ffffffffffffffffffffffffffffffffffffffff16600e6000600184611b0a9190613dc0565b815260200190815260200160002060020160009054906101000a900473ffffffffffffffffffffffffffffffffffffffff1673ffffffffffffffffffffffffffffffffffffffff1603611c96576000600182611b669190613dc0565b90506000600e60008381526020019081526020016000209050806040518060a0016040529081600082015481526020016001820160009054906101000a900473ffffffffffffffffffffffffffffffffffffffff1673ffffffffffffffffffffffffffffffffffffffff1673ffffffffffffffffffffffffffffffffffffffff1681526020016002820160009054906101000a900473ffffffffffffffffffffffffffffffffffffffff1673ffffffffffffffffffffffffffffffffffffffff1673ffffffffffffffffffffffffffffffffffffffff168152602001600382015481526020016004820160009054906101000a900460ff161515151581525050848681518110611c7957611c78613e3c565b5b6020026020010181905250600185611c919190613dc0565b945050505b8080611ca190613df4565b915050611ada565b508094505050505090565b3373ffffffffffffffffffffffffffffffffffffffff16600b60009054906101000a900473ffffffffffffffffffffffffffffffffffffffff1673ffffffffffffffffffffffffffffffffffffffff1614611d44576040517f08c379a0000000000000000000000000000000000000000000000000000000008152600401611d3b9061437b565b60405180910390fd5b600c60008273ffffffffffffffffffffffffffffffffffffffff1673ffffffffffffffffffffffffffffffffffffffff16815260200190815260200160002060009054906101000a900460ff1615611dd1576040517f08c379a0000000000000000000000000000000000000000000000000000000008152600401611dc8906143e7565b60405180910390fd5b6001600c60008373ffffffffffffffffffffffffffffffffffffffff1673ffffffffffffffffffffffffffffffffffffffff16815260200190815260200160002060006101000a81548160ff0219169083151502179055507fac0f15283d37631c15b481bc07dc402bcfc030956bcd94b5585f71d92e84c3da81604051611e5891906134ae565b60405180910390a150565b6060611e6e826120c9565b6000600660008481526020019081526020016000208054611e8e90613baa565b80601f0160208091040260200160405190810160405280929190818152602001828054611eba90613baa565b8015611f075780601f10611edc57610100808354040283529160200191611f07565b820191906000526020600020905b815481529060010190602001808311611eea57829003601f168201915b505050505090506000611f18612c75565b90506000815103611f2d578192505050611f70565b600082511115611f62578082604051602001611f4a929190614443565b60405160208183030381529060405292505050611f70565b611f6b84612c8c565b925050505b919050565b6000600c60008373ffffffffffffffffffffffffffffffffffffffff1673ffffffffffffffffffffffffffffffffffffffff16815260200190815260200160002060009054906101000a900460ff169050919050565b6000600560008473ffffffffffffffffffffffffffffffffffffffff1673ffffffffffffffffffffffffffffffffffffffff16815260200190815260200160002060008373ffffffffffffffffffffffffffffffffffffffff1673ffffffffffffffffffffffffffffffffffffffff16815260200190815260200160002060009054906101000a900460ff16905092915050565b60007f01ffc9a7000000000000000000000000000000000000000000000000000000007bffffffffffffffffffffffffffffffffffffffffffffffffffffffff1916827bffffffffffffffffffffffffffffffffffffffffffffffffffffffff1916149050919050565b6120d281612cf4565b612111576040517f08c379a000000000000000000000000000000000000000000000000000000000815260040161210890613f8f565b60405180910390fd5b50565b600033905090565b816004600083815260200190815260200160002060006101000a81548173ffffffffffffffffffffffffffffffffffffffff021916908373ffffffffffffffffffffffffffffffffffffffff160217905550808273ffffffffffffffffffffffffffffffffffffffff1661218f83610ede565b73ffffffffffffffffffffffffffffffffffffffff167f8c5be1e5ebec7d5bd14f71427d1e84f3dd0314c0f7b2291e5b200ac8c7c3b92560405160405180910390a45050565b6000806121e183610ede565b90508073ffffffffffffffffffffffffffffffffffffffff168473ffffffffffffffffffffffffffffffffffffffff16148061222357506122228185611fcb565b5b8061226157508373ffffffffffffffffffffffffffffffffffffffff166122498461080a565b73ffffffffffffffffffffffffffffffffffffffff16145b91505092915050565b8273ffffffffffffffffffffffffffffffffffffffff1661228a82610ede565b73ffffffffffffffffffffffffffffffffffffffff16146122e0576040517f08c379a00000000000000000000000000000000000000000000000000000000081526004016122d7906144d9565b60405180910390fd5b600073ffffffffffffffffffffffffffffffffffffffff168273ffffffffffffffffffffffffffffffffffffffff160361234f576040517f08c379a00000000000000000000000000000000000000000000000000000000081526004016123469061456b565b60405180910390fd5b61235c8383836001612d35565b8273ffffffffffffffffffffffffffffffffffffffff1661237c82610ede565b73ffffffffffffffffffffffffffffffffffffffff16146123d2576040517f08c379a00000000000000000000000000000000000000000000000000000000081526004016123c9906144d9565b60405180910390fd5b6004600082815260200190815260200160002060006101000a81549073ffffffffffffffffffffffffffffffffffffffff02191690556001600360008573ffffffffffffffffffffffffffffffffffffffff1673ffffffffffffffffffffffffffffffffffffffff168152602001908152602001600020600082825403925050819055506001600360008473ffffffffffffffffffffffffffffffffffffffff1673ffffffffffffffffffffffffffffffffffffffff16815260200190815260200160002060008282540192505081905550816002600083815260200190815260200160002060006101000a81548173ffffffffffffffffffffffffffffffffffffffff021916908373ffffffffffffffffffffffffffffffffffffffff160217905550808273ffffffffffffffffffffffffffffffffffffffff168473ffffffffffffffffffffffffffffffffffffffff167fddf252ad1be2c89b69c2b068fc378daa952ba7f163c4a11628f55a4df523b3ef60405160405180910390a461255e8383836001612e5b565b505050565b600081600001549050919050565b60006002600083815260200190815260200160002060009054906101000a900473ffffffffffffffffffffffffffffffffffffffff169050919050565b6001816000016000828254019250508190555050565b600073ffffffffffffffffffffffffffffffffffffffff168273ffffffffffffffffffffffffffffffffffffffff1603612633576040517f08c379a000000000000000000000000000000000000000000000000000000000815260040161262a906145d7565b60405180910390fd5b61263c81612cf4565b1561267c576040517f08c379a000000000000000000000000000000000000000000000000000000000815260040161267390614643565b60405180910390fd5b61268a600083836001612d35565b61269381612cf4565b156126d3576040517f08c379a00000000000000000000000000000000000000000000000000000000081526004016126ca90614643565b60405180910390fd5b6001600360008473ffffffffffffffffffffffffffffffffffffffff1673ffffffffffffffffffffffffffffffffffffffff16815260200190815260200160002060008282540192505081905550816002600083815260200190815260200160002060006101000a81548173ffffffffffffffffffffffffffffffffffffffff021916908373ffffffffffffffffffffffffffffffffffffffff160217905550808273ffffffffffffffffffffffffffffffffffffffff16600073ffffffffffffffffffffffffffffffffffffffff167fddf252ad1be2c89b69c2b068fc378daa952ba7f163c4a11628f55a4df523b3ef60405160405180910390a46127dd600083836001612e5b565b5050565b6127ea82612cf4565b612829576040517f08c379a0000000000000000000000000000000000000000000000000000000008152600401612820906146d5565b60405180910390fd5b8060066000848152602001908152602001600020908161284991906148a1565b505050565b60008111612891576040517f08c379a0000000000000000000000000000000000000000000000000000000008152600401612888906149e5565b60405180910390fd5b60095434146128d5576040517f08c379a00000000000000000000000000000000000000000000000000000000081526004016128cc90614a77565b60405180910390fd5b6040518060a001604052808381526020013373ffffffffffffffffffffffffffffffffffffffff1681526020013073ffffffffffffffffffffffffffffffffffffffff16815260200182815260200160001515815250600e60008481526020019081526020016000206000820151816000015560208201518160010160006101000a81548173ffffffffffffffffffffffffffffffffffffffff021916908373ffffffffffffffffffffffffffffffffffffffff16021790555060408201518160020160006101000a81548173ffffffffffffffffffffffffffffffffffffffff021916908373ffffffffffffffffffffffffffffffffffffffff1602179055506060820151816003015560808201518160040160006101000a81548160ff021916908315150217905550905050612a0e33308461226a565b817f3e6929b95aadb146b3880d299110d50a3e90a467efc5c0c9827e521b59b02d153330846000604051612a459493929190614a97565b60405180910390a25050565b60008160000154905060008111612a9d576040517f08c379a0000000000000000000000000000000000000000000000000000000008152600401612a9490614b28565b60405180910390fd5b6001810382600001819055505050565b8173ffffffffffffffffffffffffffffffffffffffff168373ffffffffffffffffffffffffffffffffffffffff1603612b1b576040517f08c379a0000000000000000000000000000000000000000000000000000000008152600401612b1290614b94565b60405180910390fd5b80600560008573ffffffffffffffffffffffffffffffffffffffff1673ffffffffffffffffffffffffffffffffffffffff16815260200190815260200160002060008473ffffffffffffffffffffffffffffffffffffffff1673ffffffffffffffffffffffffffffffffffffffff16815260200190815260200160002060006101000a81548160ff0219169083151502179055508173ffffffffffffffffffffffffffffffffffffffff168373ffffffffffffffffffffffffffffffffffffffff167f17307eab39ab6107e8899845ad3d59bd9653f200f220920489ca2b5937696c3183604051612c0c919061333d565b60405180910390a3505050565b612c2484848461226a565b612c3084848484612e61565b612c6f576040517f08c379a0000000000000000000000000000000000000000000000000000000008152600401612c6690614c26565b60405180910390fd5b50505050565b606060405180602001604052806000815250905090565b6060612c97826120c9565b6000612ca1612c75565b90506000815111612cc15760405180602001604052806000815250612cec565b80612ccb84612fe8565b604051602001612cdc929190614443565b6040516020818303038152906040525b915050919050565b60008073ffffffffffffffffffffffffffffffffffffffff16612d1683612571565b73ffffffffffffffffffffffffffffffffffffffff1614159050919050565b6001811115612e5557600073ffffffffffffffffffffffffffffffffffffffff168473ffffffffffffffffffffffffffffffffffffffff1614612dc95780600360008673ffffffffffffffffffffffffffffffffffffffff1673ffffffffffffffffffffffffffffffffffffffff1681526020019081526020016000206000828254612dc19190614165565b925050819055505b600073ffffffffffffffffffffffffffffffffffffffff168373ffffffffffffffffffffffffffffffffffffffff1614612e545780600360008573ffffffffffffffffffffffffffffffffffffffff1673ffffffffffffffffffffffffffffffffffffffff1681526020019081526020016000206000828254612e4c9190613dc0565b925050819055505b5b50505050565b50505050565b6000612e828473ffffffffffffffffffffffffffffffffffffffff166130b6565b15612fdb578373ffffffffffffffffffffffffffffffffffffffff1663150b7a02612eab612114565b8786866040518563ffffffff1660e01b8152600401612ecd9493929190614c9b565b6020604051808303816000875af1925050508015612f0957506040513d601f19601f82011682018060405250810190612f069190614cfc565b60015b612f8b573d8060008114612f39576040519150601f19603f3d011682016040523d82523d6000602084013e612f3e565b606091505b506000815103612f83576040517f08c379a0000000000000000000000000000000000000000000000000000000008152600401612f7a90614c26565b60405180910390fd5b805181602001fd5b63150b7a0260e01b7bffffffffffffffffffffffffffffffffffffffffffffffffffffffff1916817bffffffffffffffffffffffffffffffffffffffffffffffffffffffff191614915050612fe0565b600190505b949350505050565b606060006001612ff7846130d9565b01905060008167ffffffffffffffff81111561301657613015613761565b5b6040519080825280601f01601f1916602001820160405280156130485781602001600182028036833780820191505090505b509050600082602001820190505b6001156130ab578080600190039150507f3031323334353637383961626364656600000000000000000000000000000000600a86061a8153600a858161309f5761309e614d29565b5b04945060008503613056575b819350505050919050565b6000808273ffffffffffffffffffffffffffffffffffffffff163b119050919050565b600080600090507a184f03e93ff9f4daa797ed6e38ed64bf6a1f0100000000000000008310613137577a184f03e93ff9f4daa797ed6e38ed64bf6a1f010000000000000000838161312d5761312c614d29565b5b0492506040810190505b6d04ee2d6d415b85acef81000000008310613174576d04ee2d6d415b85acef8100000000838161316a57613169614d29565b5b0492506020810190505b662386f26fc1000083106131a357662386f26fc10000838161319957613198614d29565b5b0492506010810190505b6305f5e10083106131cc576305f5e10083816131c2576131c1614d29565b5b0492506008810190505b61271083106131f15761271083816131e7576131e6614d29565b5b0492506004810190505b60648310613214576064838161320a57613209614d29565b5b0492506002810190505b600a8310613223576001810190505b80915050919050565b6040518060a0016040528060008152602001600073ffffffffffffffffffffffffffffffffffffffff168152602001600073ffffffffffffffffffffffffffffffffffffffff168152602001600081526020016000151581525090565b6000604051905090565b600080fd5b600080fd5b60007fffffffff0000000000000000000000000000000000000000000000000000000082169050919050565b6132d28161329d565b81146132dd57600080fd5b50565b6000813590506132ef816132c9565b92915050565b60006020828403121561330b5761330a613293565b5b6000613319848285016132e0565b91505092915050565b60008115159050919050565b61333781613322565b82525050565b6000602082019050613352600083018461332e565b92915050565b600081519050919050565b600082825260208201905092915050565b60005b83811015613392578082015181840152602081019050613377565b60008484015250505050565b6000601f19601f8301169050919050565b60006133ba82613358565b6133c48185613363565b93506133d4818560208601613374565b6133dd8161339e565b840191505092915050565b6000602082019050818103600083015261340281846133af565b905092915050565b6000819050919050565b61341d8161340a565b811461342857600080fd5b50565b60008135905061343a81613414565b92915050565b60006020828403121561345657613455613293565b5b60006134648482850161342b565b91505092915050565b600073ffffffffffffffffffffffffffffffffffffffff82169050919050565b60006134988261346d565b9050919050565b6134a88161348d565b82525050565b60006020820190506134c3600083018461349f565b92915050565b6134d28161348d565b81146134dd57600080fd5b50565b6000813590506134ef816134c9565b92915050565b6000806040838503121561350c5761350b613293565b5b600061351a858286016134e0565b925050602061352b8582860161342b565b9150509250929050565b61353e8161340a565b82525050565b60006020820190506135596000830184613535565b92915050565b60008060006060848603121561357857613577613293565b5b6000613586868287016134e0565b9350506020613597868287016134e0565b92505060406135a88682870161342b565b9150509250925092565b6000602082840312156135c8576135c7613293565b5b60006135d6848285016134e0565b91505092915050565b600081519050919050565b600082825260208201905092915050565b6000819050602082019050919050565b6136148161340a565b82525050565b60006136258261346d565b9050919050565b6136358161361a565b82525050565b61364481613322565b82525050565b60a082016000820151613660600085018261360b565b506020820151613673602085018261362c565b506040820151613686604085018261362c565b506060820151613699606085018261360b565b5060808201516136ac608085018261363b565b50505050565b60006136be838361364a565b60a08301905092915050565b6000602082019050919050565b60006136e2826135df565b6136ec81856135ea565b93506136f7836135fb565b8060005b8381101561372857815161370f88826136b2565b975061371a836136ca565b9250506001810190506136fb565b5085935050505092915050565b6000602082019050818103600083015261374f81846136d7565b905092915050565b600080fd5b600080fd5b7f4e487b7100000000000000000000000000000000000000000000000000000000600052604160045260246000fd5b6137998261339e565b810181811067ffffffffffffffff821117156137b8576137b7613761565b5b80604052505050565b60006137cb613289565b90506137d78282613790565b919050565b600067ffffffffffffffff8211156137f7576137f6613761565b5b6138008261339e565b9050602081019050919050565b82818337600083830152505050565b600061382f61382a846137dc565b6137c1565b90508281526020810184848401111561384b5761384a61375c565b5b61385684828561380d565b509392505050565b600082601f83011261387357613872613757565b5b813561388384826020860161381c565b91505092915050565b600080604083850312156138a3576138a2613293565b5b600083013567ffffffffffffffff8111156138c1576138c0613298565b5b6138cd8582860161385e565b92505060206138de8582860161342b565b9150509250929050565b600080604083850312156138ff576138fe613293565b5b600061390d8582860161342b565b925050602061391e8582860161342b565b9150509250929050565b60a08201600082015161393e600085018261360b565b506020820151613951602085018261362c565b506040820151613964604085018261362c565b506060820151613977606085018261360b565b50608082015161398a608085018261363b565b50505050565b600060a0820190506139a56000830184613928565b92915050565b6139b481613322565b81146139bf57600080fd5b50565b6000813590506139d1816139ab565b92915050565b600080604083850312156139ee576139ed613293565b5b60006139fc858286016134e0565b9250506020613a0d858286016139c2565b9150509250929050565b600067ffffffffffffffff821115613a3257613a31613761565b5b613a3b8261339e565b9050602081019050919050565b6000613a5b613a5684613a17565b6137c1565b905082815260208101848484011115613a7757613a7661375c565b5b613a8284828561380d565b509392505050565b600082601f830112613a9f57613a9e613757565b5b8135613aaf848260208601613a48565b91505092915050565b60008060008060808587031215613ad257613ad1613293565b5b6000613ae0878288016134e0565b9450506020613af1878288016134e0565b9350506040613b028782880161342b565b925050606085013567ffffffffffffffff811115613b2357613b22613298565b5b613b2f87828801613a8a565b91505092959194509250565b60008060408385031215613b5257613b51613293565b5b6000613b60858286016134e0565b9250506020613b71858286016134e0565b9150509250929050565b7f4e487b7100000000000000000000000000000000000000000000000000000000600052602260045260246000fd5b60006002820490506001821680613bc257607f821691505b602082108103613bd557613bd4613b7b565b5b50919050565b7f4552433732313a20617070726f76616c20746f2063757272656e74206f776e6560008201527f7200000000000000000000000000000000000000000000000000000000000000602082015250565b6000613c37602183613363565b9150613c4282613bdb565b604082019050919050565b60006020820190508181036000830152613c6681613c2a565b9050919050565b7f4552433732313a20617070726f76652063616c6c6572206973206e6f7420746f60008201527f6b656e206f776e6572206f7220617070726f76656420666f7220616c6c000000602082015250565b6000613cc9603d83613363565b9150613cd482613c6d565b604082019050919050565b60006020820190508181036000830152613cf881613cbc565b9050919050565b7f4552433732313a2063616c6c6572206973206e6f7420746f6b656e206f776e6560008201527f72206f7220617070726f76656400000000000000000000000000000000000000602082015250565b6000613d5b602d83613363565b9150613d6682613cff565b604082019050919050565b60006020820190508181036000830152613d8a81613d4e565b9050919050565b7f4e487b7100000000000000000000000000000000000000000000000000000000600052601160045260246000fd5b6000613dcb8261340a565b9150613dd68361340a565b9250828201905080821115613dee57613ded613d91565b5b92915050565b6000613dff8261340a565b91507fffffffffffffffffffffffffffffffffffffffffffffffffffffffffffffffff8203613e3157613e30613d91565b5b600182019050919050565b7f4e487b7100000000000000000000000000000000000000000000000000000000600052603260045260246000fd5b7f566f7573206e27c3aa746573207061732061646d696e69737472617465757200600082015250565b6000613ea1601f83613363565b9150613eac82613e6b565b602082019050919050565b60006020820190508181036000830152613ed081613e94565b9050919050565b7f417274697374652064c3a96ac3a020656e72656769737472c3a92e0000000000600082015250565b6000613f0d601b83613363565b9150613f1882613ed7565b602082019050919050565b60006020820190508181036000830152613f3c81613f00565b9050919050565b7f4552433732313a20696e76616c696420746f6b656e2049440000000000000000600082015250565b6000613f79601883613363565b9150613f8482613f43565b602082019050919050565b60006020820190508181036000830152613fa881613f6c565b9050919050565b7f4552433732313a2061646472657373207a65726f206973206e6f74206120766160008201527f6c6964206f776e65720000000000000000000000000000000000000000000000602082015250565b600061400b602983613363565b915061401682613faf565b604082019050919050565b6000602082019050818103600083015261403a81613ffe565b9050919050565b7f566f7573206e27c3aa74657320706173206c65206f776e657269c3a97461697260008201527f6520646520636520746f6b656e00000000000000000000000000000000000000602082015250565b600061409d602d83613363565b91506140a882614041565b604082019050919050565b600060208201905081810360008301526140cc81614090565b9050919050565b7f4c65207072697820646f697420c3aa74726520c3a967616c206175207072697860008201527f2064c3a966696e69000000000000000000000000000000000000000000000000602082015250565b600061412f602883613363565b915061413a826140d3565b604082019050919050565b6000602082019050818103600083015261415e81614122565b9050919050565b60006141708261340a565b915061417b8361340a565b925082820390508181111561419357614192613d91565b5b92915050565b7f4c652070726978206475206c697374696e6720737572206c6120706c6174656660008201527f6f726d65206e65207065757420c3aa747265206d6f64696669c3a9207175652060208201527f706172206c652070726f707269c3a9746169726520647520636f6e7472617400604082015250565b600061421b605f83613363565b915061422682614199565b606082019050919050565b6000602082019050818103600083015261424a8161420e565b9050919050565b7f4d65726369206427696e646971756572206c6520707269782064656d616e64c360008201527fa920706f75722066696e616c69736572206c2761636861740000000000000000602082015250565b60006142ad603883613363565b91506142b882614251565b604082019050919050565b600060208201905081810360008301526142dc816142a0565b9050919050565b7f4c65732041646d696e69737472617465757273206e652070657576656e7420c360008201527faa74726520656e726769737472c3a9732071756520706172206c65207375706560208201527f7241646d696e0000000000000000000000000000000000000000000000000000604082015250565b6000614365604683613363565b9150614370826142e3565b606082019050919050565b6000602082019050818103600083015261439481614358565b9050919050565b7f436574746520706572736f6e6e65206573742064c3a96ac3a02061646d696e2e600082015250565b60006143d1602083613363565b91506143dc8261439b565b602082019050919050565b60006020820190508181036000830152614400816143c4565b9050919050565b600081905092915050565b600061441d82613358565b6144278185614407565b9350614437818560208601613374565b80840191505092915050565b600061444f8285614412565b915061445b8284614412565b91508190509392505050565b7f4552433732313a207472616e736665722066726f6d20696e636f72726563742060008201527f6f776e6572000000000000000000000000000000000000000000000000000000602082015250565b60006144c3602583613363565b91506144ce82614467565b604082019050919050565b600060208201905081810360008301526144f2816144b6565b9050919050565b7f4552433732313a207472616e7366657220746f20746865207a65726f2061646460008201527f7265737300000000000000000000000000000000000000000000000000000000602082015250565b6000614555602483613363565b9150614560826144f9565b604082019050919050565b6000602082019050818103600083015261458481614548565b9050919050565b7f4552433732313a206d696e7420746f20746865207a65726f2061646472657373600082015250565b60006145c1602083613363565b91506145cc8261458b565b602082019050919050565b600060208201905081810360008301526145f0816145b4565b9050919050565b7f4552433732313a20746f6b656e20616c7265616479206d696e74656400000000600082015250565b600061462d601c83613363565b9150614638826145f7565b602082019050919050565b6000602082019050818103600083015261465c81614620565b9050919050565b7f45524337323155524953746f726167653a2055524920736574206f66206e6f6e60008201527f6578697374656e7420746f6b656e000000000000000000000000000000000000602082015250565b60006146bf602e83613363565b91506146ca82614663565b604082019050919050565b600060208201905081810360008301526146ee816146b2565b9050919050565b60008190508160005260206000209050919050565b60006020601f8301049050919050565b600082821b905092915050565b6000600883026147577fffffffffffffffffffffffffffffffffffffffffffffffffffffffffffffffff8261471a565b614761868361471a565b95508019841693508086168417925050509392505050565b6000819050919050565b600061479e6147996147948461340a565b614779565b61340a565b9050919050565b6000819050919050565b6147b883614783565b6147cc6147c4826147a5565b848454614727565b825550505050565b600090565b6147e16147d4565b6147ec8184846147af565b505050565b5b81811015614810576148056000826147d9565b6001810190506147f2565b5050565b601f82111561485557614826816146f5565b61482f8461470a565b8101602085101561483e578190505b61485261484a8561470a565b8301826147f1565b50505b505050565b600082821c905092915050565b60006148786000198460080261485a565b1980831691505092915050565b60006148918383614867565b9150826002028217905092915050565b6148aa82613358565b67ffffffffffffffff8111156148c3576148c2613761565b5b6148cd8254613baa565b6148d8828285614814565b600060209050601f83116001811461490b57600084156148f9578287015190505b6149038582614885565b86555061496b565b601f198416614919866146f5565b60005b828110156149415784890151825560018201915060208501945060208101905061491c565b8683101561495e578489015161495a601f891682614867565b8355505b6001600288020188555050505b505050505050565b7f4c65207072697820646f697420c3aa74726520737570c3a9726965757220c3a060008201527f2030000000000000000000000000000000000000000000000000000000000000602082015250565b60006149cf602283613363565b91506149da82614973565b604082019050919050565b600060208201905081810360008301526149fe816149c2565b9050919050565b7f4c65207072697820646f697420c3aa74726520737570c3a9726965757220c3a060008201527f206c6120636f6d6d697373696f6e206465206c6120706c617465666f726d652e602082015250565b6000614a61604083613363565b9150614a6c82614a05565b604082019050919050565b60006020820190508181036000830152614a9081614a54565b9050919050565b6000608082019050614aac600083018761349f565b614ab9602083018661349f565b614ac66040830185613535565b614ad3606083018461332e565b95945050505050565b7f436f756e7465723a2064656372656d656e74206f766572666c6f770000000000600082015250565b6000614b12601b83613363565b9150614b1d82614adc565b602082019050919050565b60006020820190508181036000830152614b4181614b05565b9050919050565b7f4552433732313a20617070726f766520746f2063616c6c657200000000000000600082015250565b6000614b7e601983613363565b9150614b8982614b48565b602082019050919050565b60006020820190508181036000830152614bad81614b71565b9050919050565b7f4552433732313a207472616e7366657220746f206e6f6e20455243373231526560008201527f63656976657220696d706c656d656e7465720000000000000000000000000000602082015250565b6000614c10603283613363565b9150614c1b82614bb4565b604082019050919050565b60006020820190508181036000830152614c3f81614c03565b9050919050565b600081519050919050565b600082825260208201905092915050565b6000614c6d82614c46565b614c778185614c51565b9350614c87818560208601613374565b614c908161339e565b840191505092915050565b6000608082019050614cb0600083018761349f565b614cbd602083018661349f565b614cca6040830185613535565b8181036060830152614cdc8184614c62565b905095945050505050565b600081519050614cf6816132c9565b92915050565b600060208284031215614d1257614d11613293565b5b6000614d2084828501614ce7565b91505092915050565b7f4e487b7100000000000000000000000000000000000000000000000000000000600052601260045260246000fdfea2646970667358221220c3e58f8652480da073b46fea905fa9aa1e7b23f860f63722c132749495956a2564736f6c63430008110033",
  "linkReferences": {},
  "deployedLinkReferences": {}
}