{
  "_format": "hh-sol-artifact-1",
  "contractName": "Democratiz_Art",
  "sourceName": "contracts/Democratiz_Art.sol",
  "abi": [
    {
      "inputs": [],
      "stateMutability": "nonpayable",
      "type": "constructor"
    },
    {
      "anonymous": false,
      "inputs": [
        {
          "indexed": false,
          "internalType": "address",
          "name": "_address",
          "type": "address"
        }
      ],
      "name": "AdminRegistered",
      "type": "event"
    },
    {
      "anonymous": false,
      "inputs": [
        {
          "indexed": true,
          "internalType": "address",
          "name": "owner",
          "type": "address"
        },
        {
          "indexed": true,
          "internalType": "address",
          "name": "approved",
          "type": "address"
        },
        {
          "indexed": true,
          "internalType": "uint256",
          "name": "tokenId",
          "type": "uint256"
        }
      ],
      "name": "Approval",
      "type": "event"
    },
    {
      "anonymous": false,
      "inputs": [
        {
          "indexed": true,
          "internalType": "address",
          "name": "owner",
          "type": "address"
        },
        {
          "indexed": true,
          "internalType": "address",
          "name": "operator",
          "type": "address"
        },
        {
          "indexed": false,
          "internalType": "bool",
          "name": "approved",
          "type": "bool"
        }
      ],
      "name": "ApprovalForAll",
      "type": "event"
    },
    {
      "anonymous": false,
      "inputs": [
        {
          "indexed": false,
          "internalType": "address",
          "name": "_address",
          "type": "address"
        }
      ],
      "name": "ArtistRegistered",
      "type": "event"
    },
    {
      "anonymous": false,
      "inputs": [
        {
          "indexed": true,
          "internalType": "address",
          "name": "previousOwner",
          "type": "address"
        },
        {
          "indexed": true,
          "internalType": "address",
          "name": "newOwner",
          "type": "address"
        }
      ],
      "name": "OwnershipTransferred",
      "type": "event"
    },
    {
      "anonymous": false,
      "inputs": [
        {
          "indexed": true,
          "internalType": "address",
          "name": "from",
          "type": "address"
        },
        {
          "indexed": true,
          "internalType": "address",
          "name": "to",
          "type": "address"
        },
        {
          "indexed": true,
          "internalType": "uint256",
          "name": "tokenId",
          "type": "uint256"
        }
      ],
      "name": "Transfer",
      "type": "event"
    },
    {
      "anonymous": false,
      "inputs": [
        {
          "indexed": true,
          "internalType": "uint256",
          "name": "tokenId",
          "type": "uint256"
        },
        {
          "indexed": false,
          "internalType": "address",
          "name": "seller",
          "type": "address"
        },
        {
          "indexed": false,
          "internalType": "address",
          "name": "propr",
          "type": "address"
        },
        {
          "indexed": false,
          "internalType": "uint256",
          "name": "price",
          "type": "uint256"
        },
        {
          "indexed": false,
          "internalType": "bool",
          "name": "sold",
          "type": "bool"
        }
      ],
      "name": "idToMarketItemCreated",
      "type": "event"
    },
    {
      "inputs": [
        {
          "internalType": "address",
          "name": "_address",
          "type": "address"
        }
      ],
      "name": "adminRegistered",
      "outputs": [
        {
          "internalType": "bool",
          "name": "",
          "type": "bool"
        }
      ],
      "stateMutability": "view",
      "type": "function"
    },
    {
      "inputs": [
        {
          "internalType": "address",
          "name": "to",
          "type": "address"
        },
        {
          "internalType": "uint256",
          "name": "tokenId",
          "type": "uint256"
        }
      ],
      "name": "approve",
      "outputs": [],
      "stateMutability": "nonpayable",
      "type": "function"
    },
    {
      "inputs": [
        {
          "internalType": "address",
          "name": "_address",
          "type": "address"
        }
      ],
      "name": "artistRegistered",
      "outputs": [
        {
          "internalType": "bool",
          "name": "",
          "type": "bool"
        }
      ],
      "stateMutability": "view",
      "type": "function"
    },
    {
      "inputs": [
        {
          "internalType": "address",
          "name": "owner",
          "type": "address"
        }
      ],
      "name": "balanceOf",
      "outputs": [
        {
          "internalType": "uint256",
          "name": "",
          "type": "uint256"
        }
      ],
      "stateMutability": "view",
      "type": "function"
    },
    {
      "inputs": [
        {
          "internalType": "uint256",
          "name": "tokenId",
          "type": "uint256"
        }
      ],
      "name": "createMarketSale",
      "outputs": [],
      "stateMutability": "payable",
      "type": "function"
    },
    {
      "inputs": [
        {
          "internalType": "string",
          "name": "tokenURI",
          "type": "string"
        },
        {
          "internalType": "uint256",
          "name": "price",
          "type": "uint256"
        }
      ],
      "name": "createToken",
      "outputs": [
        {
          "internalType": "uint256",
          "name": "",
          "type": "uint256"
        }
      ],
      "stateMutability": "payable",
      "type": "function"
    },
    {
      "inputs": [],
      "name": "fetchItemsListed",
      "outputs": [
        {
          "components": [
            {
              "internalType": "uint256",
              "name": "tokenId",
              "type": "uint256"
            },
            {
              "internalType": "address payable",
              "name": "seller",
              "type": "address"
            },
            {
              "internalType": "address payable",
              "name": "propr",
              "type": "address"
            },
            {
              "internalType": "uint256",
              "name": "price",
              "type": "uint256"
            },
            {
              "internalType": "bool",
              "name": "sold",
              "type": "bool"
            }
          ],
          "internalType": "struct Democratiz_Art.MarketItem[]",
          "name": "",
          "type": "tuple[]"
        }
      ],
      "stateMutability": "view",
      "type": "function"
    },
    {
      "inputs": [],
      "name": "fetchMarketItem",
      "outputs": [
        {
          "components": [
            {
              "internalType": "uint256",
              "name": "tokenId",
              "type": "uint256"
            },
            {
              "internalType": "address payable",
              "name": "seller",
              "type": "address"
            },
            {
              "internalType": "address payable",
              "name": "propr",
              "type": "address"
            },
            {
              "internalType": "uint256",
              "name": "price",
              "type": "uint256"
            },
            {
              "internalType": "bool",
              "name": "sold",
              "type": "bool"
            }
          ],
          "internalType": "struct Democratiz_Art.MarketItem[]",
          "name": "",
          "type": "tuple[]"
        }
      ],
      "stateMutability": "view",
      "type": "function"
    },
    {
      "inputs": [],
      "name": "fetchMyNFT",
      "outputs": [
        {
          "components": [
            {
              "internalType": "uint256",
              "name": "tokenId",
              "type": "uint256"
            },
            {
              "internalType": "address payable",
              "name": "seller",
              "type": "address"
            },
            {
              "internalType": "address payable",
              "name": "propr",
              "type": "address"
            },
            {
              "internalType": "uint256",
              "name": "price",
              "type": "uint256"
            },
            {
              "internalType": "bool",
              "name": "sold",
              "type": "bool"
            }
          ],
          "internalType": "struct Democratiz_Art.MarketItem[]",
          "name": "",
          "type": "tuple[]"
        }
      ],
      "stateMutability": "view",
      "type": "function"
    },
    {
      "inputs": [
        {
          "internalType": "uint256",
          "name": "tokenId",
          "type": "uint256"
        }
      ],
      "name": "getApproved",
      "outputs": [
        {
          "internalType": "address",
          "name": "",
          "type": "address"
        }
      ],
      "stateMutability": "view",
      "type": "function"
    },
    {
      "inputs": [
        {
          "internalType": "uint256",
          "name": "tokenId",
          "type": "uint256"
        }
      ],
      "name": "getListedTokenForId",
      "outputs": [
        {
          "components": [
            {
              "internalType": "uint256",
              "name": "tokenId",
              "type": "uint256"
            },
            {
              "internalType": "address payable",
              "name": "seller",
              "type": "address"
            },
            {
              "internalType": "address payable",
              "name": "propr",
              "type": "address"
            },
            {
              "internalType": "uint256",
              "name": "price",
              "type": "uint256"
            },
            {
              "internalType": "bool",
              "name": "sold",
              "type": "bool"
            }
          ],
          "internalType": "struct Democratiz_Art.MarketItem",
          "name": "",
          "type": "tuple"
        }
      ],
      "stateMutability": "view",
      "type": "function"
    },
    {
      "inputs": [],
      "name": "getListingPrice",
      "outputs": [
        {
          "internalType": "uint256",
          "name": "",
          "type": "uint256"
        }
      ],
      "stateMutability": "view",
      "type": "function"
    },
    {
      "inputs": [
        {
          "internalType": "address",
          "name": "owner",
          "type": "address"
        },
        {
          "internalType": "address",
          "name": "operator",
          "type": "address"
        }
      ],
      "name": "isApprovedForAll",
      "outputs": [
        {
          "internalType": "bool",
          "name": "",
          "type": "bool"
        }
      ],
      "stateMutability": "view",
      "type": "function"
    },
    {
      "inputs": [],
      "name": "name",
      "outputs": [
        {
          "internalType": "string",
          "name": "",
          "type": "string"
        }
      ],
      "stateMutability": "view",
      "type": "function"
    },
    {
      "inputs": [],
      "name": "owner",
      "outputs": [
        {
          "internalType": "address",
          "name": "",
          "type": "address"
        }
      ],
      "stateMutability": "view",
      "type": "function"
    },
    {
      "inputs": [
        {
          "internalType": "uint256",
          "name": "tokenId",
          "type": "uint256"
        }
      ],
      "name": "ownerOf",
      "outputs": [
        {
          "internalType": "address",
          "name": "",
          "type": "address"
        }
      ],
      "stateMutability": "view",
      "type": "function"
    },
    {
      "inputs": [
        {
          "internalType": "uint256",
          "name": "tokenId",
          "type": "uint256"
        },
        {
          "internalType": "uint256",
          "name": "price",
          "type": "uint256"
        }
      ],
      "name": "reSellToken",
      "outputs": [],
      "stateMutability": "payable",
      "type": "function"
    },
    {
      "inputs": [
        {
          "internalType": "address",
          "name": "_address",
          "type": "address"
        }
      ],
      "name": "registerAdmin",
      "outputs": [],
      "stateMutability": "nonpayable",
      "type": "function"
    },
    {
      "inputs": [
        {
          "internalType": "address",
          "name": "_address",
          "type": "address"
        }
      ],
      "name": "registerArtist",
      "outputs": [],
      "stateMutability": "nonpayable",
      "type": "function"
    },
    {
      "inputs": [],
      "name": "renounceOwnership",
      "outputs": [],
      "stateMutability": "nonpayable",
      "type": "function"
    },
    {
      "inputs": [
        {
          "internalType": "address",
          "name": "from",
          "type": "address"
        },
        {
          "internalType": "address",
          "name": "to",
          "type": "address"
        },
        {
          "internalType": "uint256",
          "name": "tokenId",
          "type": "uint256"
        }
      ],
      "name": "safeTransferFrom",
      "outputs": [],
      "stateMutability": "nonpayable",
      "type": "function"
    },
    {
      "inputs": [
        {
          "internalType": "address",
          "name": "from",
          "type": "address"
        },
        {
          "internalType": "address",
          "name": "to",
          "type": "address"
        },
        {
          "internalType": "uint256",
          "name": "tokenId",
          "type": "uint256"
        },
        {
          "internalType": "bytes",
          "name": "data",
          "type": "bytes"
        }
      ],
      "name": "safeTransferFrom",
      "outputs": [],
      "stateMutability": "nonpayable",
      "type": "function"
    },
    {
      "inputs": [
        {
          "internalType": "address",
          "name": "operator",
          "type": "address"
        },
        {
          "internalType": "bool",
          "name": "approved",
          "type": "bool"
        }
      ],
      "name": "setApprovalForAll",
      "outputs": [],
      "stateMutability": "nonpayable",
      "type": "function"
    },
    {
      "inputs": [
        {
          "internalType": "bytes4",
          "name": "interfaceId",
          "type": "bytes4"
        }
      ],
      "name": "supportsInterface",
      "outputs": [
        {
          "internalType": "bool",
          "name": "",
          "type": "bool"
        }
      ],
      "stateMutability": "view",
      "type": "function"
    },
    {
      "inputs": [],
      "name": "symbol",
      "outputs": [
        {
          "internalType": "string",
          "name": "",
          "type": "string"
        }
      ],
      "stateMutability": "view",
      "type": "function"
    },
    {
      "inputs": [
        {
          "internalType": "uint256",
          "name": "tokenId",
          "type": "uint256"
        }
      ],
      "name": "tokenURI",
      "outputs": [
        {
          "internalType": "string",
          "name": "",
          "type": "string"
        }
      ],
      "stateMutability": "view",
      "type": "function"
    },
    {
      "inputs": [
        {
          "internalType": "address",
          "name": "from",
          "type": "address"
        },
        {
          "internalType": "address",
          "name": "to",
          "type": "address"
        },
        {
          "internalType": "uint256",
          "name": "tokenId",
          "type": "uint256"
        }
      ],
      "name": "transferFrom",
      "outputs": [],
      "stateMutability": "nonpayable",
      "type": "function"
    },
    {
      "inputs": [
        {
          "internalType": "address",
          "name": "newOwner",
          "type": "address"
        }
      ],
      "name": "transferOwnership",
      "outputs": [],
      "stateMutability": "nonpayable",
      "type": "function"
    },
    {
      "inputs": [
        {
          "internalType": "uint256",
          "name": "_listingPrice",
          "type": "uint256"
        }
      ],
      "name": "updateListingPrice",
      "outputs": [],
      "stateMutability": "payable",
      "type": "function"
    }
  ],
  "bytecode": "0x60806040526605543df729c000600a553480156200001c57600080fd5b506040518060400160405280601281526020017f4e46542044656d6f63726174697a5f41727400000000000000000000000000008152506040518060400160405280600581526020017f44414e465400000000000000000000000000000000000000000000000000000081525081600090816200009a919062000443565b508060019081620000ac919062000443565b505050620000cf620000c3620000fb60201b60201c565b6200010360201b60201c565b3373ffffffffffffffffffffffffffffffffffffffff16600b60009054906101000a905050506200052a565b600033905090565b6000600760009054906101000a900473ffffffffffffffffffffffffffffffffffffffff16905081600760006101000a81548173ffffffffffffffffffffffffffffffffffffffff021916908373ffffffffffffffffffffffffffffffffffffffff1602179055508173ffffffffffffffffffffffffffffffffffffffff168173ffffffffffffffffffffffffffffffffffffffff167f8be0079c531659141344cd1fd0a4f28419497f9722a3daafe3b4186f6b6457e060405160405180910390a35050565b600081519050919050565b7f4e487b7100000000000000000000000000000000000000000000000000000000600052604160045260246000fd5b7f4e487b7100000000000000000000000000000000000000000000000000000000600052602260045260246000fd5b600060028204905060018216806200024b57607f821691505b60208210810362000261576200026062000203565b5b50919050565b60008190508160005260206000209050919050565b60006020601f8301049050919050565b600082821b905092915050565b600060088302620002cb7fffffffffffffffffffffffffffffffffffffffffffffffffffffffffffffffff826200028c565b620002d786836200028c565b95508019841693508086168417925050509392505050565b6000819050919050565b6000819050919050565b6000620003246200031e6200031884620002ef565b620002f9565b620002ef565b9050919050565b6000819050919050565b620003408362000303565b620003586200034f826200032b565b84845462000299565b825550505050565b600090565b6200036f62000360565b6200037c81848462000335565b505050565b5b81811015620003a4576200039860008262000365565b60018101905062000382565b5050565b601f821115620003f357620003bd8162000267565b620003c8846200027c565b81016020851015620003d8578190505b620003f0620003e7856200027c565b83018262000381565b50505b505050565b600082821c905092915050565b60006200041860001984600802620003f8565b1980831691505092915050565b600062000433838362000405565b9150826002028217905092915050565b6200044e82620001c9565b67ffffffffffffffff8111156200046a5762000469620001d4565b5b62000476825462000232565b62000483828285620003a8565b600060209050601f831160018114620004bb5760008415620004a6578287015190505b620004b2858262000425565b86555062000522565b601f198416620004cb8662000267565b60005b82811015620004f557848901518255600182019150602085019450602081019050620004ce565b8683101562000515578489015162000511601f89168262000405565b8355505b6001600288020188555050505b505050505050565b614e4d806200053a6000396000f3fe6080604052600436106101c25760003560e01c806385535b25116100f7578063b88d4fde11610095578063c87b56dd11610064578063c87b56dd1461061c578063db68cae614610659578063e985e9c514610696578063f2fde38b146106d3576101c2565b8063b88d4fde14610583578063be9af536146105ac578063c18763f7146105c8578063c38c5813146105f3576101c2565b80638fafd021116100d15780638fafd021146104e857806395d89b4114610513578063a22cb4651461053e578063ae677aa314610567576101c2565b806385535b25146104645780638da5cb5b146104805780638e264590146104ab576101c2565b806342842e0e116101645780636352211e1161013e5780636352211e146103a357806370a08231146103e0578063715018a61461041d57806372b3b62014610434576101c2565b806342842e0e1461032657806345f8fa801461034f5780634cb33d5b1461037a576101c2565b8063095ea7b3116101a0578063095ea7b31461026c57806312e855851461029557806323b872dd146102c0578063316ee9fb146102e9576101c2565b806301ffc9a7146101c757806306fdde0314610204578063081812fc1461022f575b600080fd5b3480156101d357600080fd5b506101ee60048036038101906101e99190613426565b6106fc565b6040516101fb919061346e565b60405180910390f35b34801561021057600080fd5b506102196107de565b6040516102269190613519565b60405180910390f35b34801561023b57600080fd5b5061025660048036038101906102519190613571565b610870565b60405161026391906135df565b60405180910390f35b34801561027857600080fd5b50610293600480360381019061028e9190613626565b6108b6565b005b3480156102a157600080fd5b506102aa6109cd565b6040516102b79190613675565b60405180910390f35b3480156102cc57600080fd5b506102e760048036038101906102e29190613690565b6109d7565b005b3480156102f557600080fd5b50610310600480360381019061030b91906136e3565b610a37565b60405161031d919061346e565b60405180910390f35b34801561033257600080fd5b5061034d60048036038101906103489190613690565b610a8d565b005b34801561035b57600080fd5b50610364610aad565b6040516103719190613866565b60405180910390f35b34801561038657600080fd5b506103a1600480360381019061039c91906136e3565b610d99565b005b3480156103af57600080fd5b506103ca60048036038101906103c59190613571565b610f44565b6040516103d791906135df565b60405180910390f35b3480156103ec57600080fd5b50610407600480360381019061040291906136e3565b610fca565b6040516104149190613675565b60405180910390f35b34801561042957600080fd5b50610432611081565b005b61044e600480360381019061044991906139bd565b611095565b60405161045b9190613675565b60405180910390f35b61047e60048036038101906104799190613a19565b6110d7565b005b34801561048c57600080fd5b506104956112cc565b6040516104a291906135df565b60405180910390f35b3480156104b757600080fd5b506104d260048036038101906104cd9190613571565b6112f6565b6040516104df9190613ac1565b60405180910390f35b3480156104f457600080fd5b506104fd6113fe565b60405161050a9190613866565b60405180910390f35b34801561051f57600080fd5b50610528611666565b6040516105359190613519565b60405180910390f35b34801561054a57600080fd5b5061056560048036038101906105609190613b08565b6116f8565b005b610581600480360381019061057c9190613571565b61170e565b005b34801561058f57600080fd5b506105aa60048036038101906105a59190613be9565b611720565b005b6105c660048036038101906105c19190613571565b611782565b005b3480156105d457600080fd5b506105dd6119ba565b6040516105ea9190613866565b60405180910390f35b3480156105ff57600080fd5b5061061a600480360381019061061591906136e3565b611ca6565b005b34801561062857600080fd5b50610643600480360381019061063e9190613571565b611dcd565b6040516106509190613519565b60405180910390f35b34801561066557600080fd5b50610680600480360381019061067b91906136e3565b611edf565b60405161068d919061346e565b60405180910390f35b3480156106a257600080fd5b506106bd60048036038101906106b89190613c6c565b611f35565b6040516106ca919061346e565b60405180910390f35b3480156106df57600080fd5b506106fa60048036038101906106f591906136e3565b611fc9565b005b60007f80ac58cd000000000000000000000000000000000000000000000000000000007bffffffffffffffffffffffffffffffffffffffffffffffffffffffff1916827bffffffffffffffffffffffffffffffffffffffffffffffffffffffff191614806107c757507f5b5e139f000000000000000000000000000000000000000000000000000000007bffffffffffffffffffffffffffffffffffffffffffffffffffffffff1916827bffffffffffffffffffffffffffffffffffffffffffffffffffffffff1916145b806107d757506107d68261204c565b5b9050919050565b6060600080546107ed90613cdb565b80601f016020809104026020016040519081016040528092919081815260200182805461081990613cdb565b80156108665780601f1061083b57610100808354040283529160200191610866565b820191906000526020600020905b81548152906001019060200180831161084957829003601f168201915b5050505050905090565b600061087b826120b6565b6004600083815260200190815260200160002060009054906101000a900473ffffffffffffffffffffffffffffffffffffffff169050919050565b60006108c182610f44565b90508073ffffffffffffffffffffffffffffffffffffffff168373ffffffffffffffffffffffffffffffffffffffff1603610931576040517f08c379a000000000000000000000000000000000000000000000000000000000815260040161092890613d7e565b60405180910390fd5b8073ffffffffffffffffffffffffffffffffffffffff16610950612101565b73ffffffffffffffffffffffffffffffffffffffff16148061097f575061097e81610979612101565b611f35565b5b6109be576040517f08c379a00000000000000000000000000000000000000000000000000000000081526004016109b590613e10565b60405180910390fd5b6109c88383612109565b505050565b6000600a54905090565b6109e86109e2612101565b826121c2565b610a27576040517f08c379a0000000000000000000000000000000000000000000000000000000008152600401610a1e90613ea2565b60405180910390fd5b610a32838383612257565b505050565b6000600d60008373ffffffffffffffffffffffffffffffffffffffff1673ffffffffffffffffffffffffffffffffffffffff16815260200190815260200160002060009054906101000a900460ff169050919050565b610aa883838360405180602001604052806000815250611720565b505050565b60606000610abb6008612550565b905060008060005b83811015610b63573373ffffffffffffffffffffffffffffffffffffffff16600e6000600184610af39190613ef1565b815260200190815260200160002060010160009054906101000a900473ffffffffffffffffffffffffffffffffffffffff1673ffffffffffffffffffffffffffffffffffffffff1603610b5057600181610b4d9190613ef1565b92505b8080610b5b90613f25565b915050610ac3565b5060008267ffffffffffffffff811115610b8057610b7f613892565b5b604051908082528060200260200182016040528015610bb957816020015b610ba661335d565b815260200190600190039081610b9e5790505b50905060005b84811015610d8e573373ffffffffffffffffffffffffffffffffffffffff16600e6000600184610bef9190613ef1565b815260200190815260200160002060010160009054906101000a900473ffffffffffffffffffffffffffffffffffffffff1673ffffffffffffffffffffffffffffffffffffffff1603610d7b576000600182610c4b9190613ef1565b90506000600e60008381526020019081526020016000209050806040518060a0016040529081600082015481526020016001820160009054906101000a900473ffffffffffffffffffffffffffffffffffffffff1673ffffffffffffffffffffffffffffffffffffffff1673ffffffffffffffffffffffffffffffffffffffff1681526020016002820160009054906101000a900473ffffffffffffffffffffffffffffffffffffffff1673ffffffffffffffffffffffffffffffffffffffff1673ffffffffffffffffffffffffffffffffffffffff168152602001600382015481526020016004820160009054906101000a900460ff161515151581525050848681518110610d5e57610d5d613f6d565b5b6020026020010181905250600185610d769190613ef1565b945050505b8080610d8690613f25565b915050610bbf565b508094505050505090565b600c60003373ffffffffffffffffffffffffffffffffffffffff1673ffffffffffffffffffffffffffffffffffffffff16815260200190815260200160002060009054906101000a900460ff16610e25576040517f08c379a0000000000000000000000000000000000000000000000000000000008152600401610e1c90613fe8565b60405180910390fd5b600d60008273ffffffffffffffffffffffffffffffffffffffff1673ffffffffffffffffffffffffffffffffffffffff16815260200190815260200160002060009054906101000a900460ff1615610eb2576040517f08c379a0000000000000000000000000000000000000000000000000000000008152600401610ea990614054565b60405180910390fd5b6001600d60008373ffffffffffffffffffffffffffffffffffffffff1673ffffffffffffffffffffffffffffffffffffffff16815260200190815260200160002060006101000a81548160ff0219169083151502179055507fa8476a100dfe10a5a1eaf141fb52ce03e930b3592d93f086ea603b0f9152649a81604051610f3991906135df565b60405180910390a150565b600080610f508361255e565b9050600073ffffffffffffffffffffffffffffffffffffffff168173ffffffffffffffffffffffffffffffffffffffff1603610fc1576040517f08c379a0000000000000000000000000000000000000000000000000000000008152600401610fb8906140c0565b60405180910390fd5b80915050919050565b60008073ffffffffffffffffffffffffffffffffffffffff168273ffffffffffffffffffffffffffffffffffffffff160361103a576040517f08c379a000000000000000000000000000000000000000000000000000000000815260040161103190614152565b60405180910390fd5b600360008373ffffffffffffffffffffffffffffffffffffffff1673ffffffffffffffffffffffffffffffffffffffff168152602001908152602001600020549050919050565b61108961259b565b6110936000612619565b565b60006110a160086126df565b60006110ad6008612550565b90506110b933826126f5565b6110c38185612912565b6110cd818461297f565b8091505092915050565b3373ffffffffffffffffffffffffffffffffffffffff16600e600084815260200190815260200160002060020160009054906101000a900473ffffffffffffffffffffffffffffffffffffffff1673ffffffffffffffffffffffffffffffffffffffff161461117b576040517f08c379a0000000000000000000000000000000000000000000000000000000008152600401611172906141e4565b60405180910390fd5b600a5434146111bf576040517f08c379a00000000000000000000000000000000000000000000000000000000081526004016111b690614276565b60405180910390fd5b6000600e600084815260200190815260200160002060040160006101000a81548160ff02191690831515021790555080600e60008481526020019081526020016000206003018190555033600e600084815260200190815260200160002060010160006101000a81548173ffffffffffffffffffffffffffffffffffffffff021916908373ffffffffffffffffffffffffffffffffffffffff16021790555030600e600084815260200190815260200160002060020160006101000a81548173ffffffffffffffffffffffffffffffffffffffff021916908373ffffffffffffffffffffffffffffffffffffffff1602179055506112bd6009612b82565b6112c8333084612257565b5050565b6000600760009054906101000a900473ffffffffffffffffffffffffffffffffffffffff16905090565b6112fe61335d565b600e60008381526020019081526020016000206040518060a0016040529081600082015481526020016001820160009054906101000a900473ffffffffffffffffffffffffffffffffffffffff1673ffffffffffffffffffffffffffffffffffffffff1673ffffffffffffffffffffffffffffffffffffffff1681526020016002820160009054906101000a900473ffffffffffffffffffffffffffffffffffffffff1673ffffffffffffffffffffffffffffffffffffffff1673ffffffffffffffffffffffffffffffffffffffff168152602001600382015481526020016004820160009054906101000a900460ff1615151515815250509050919050565b6060600061140c6008612550565b9050600061141a6009612550565b6114246008612550565b61142e9190614296565b90506000808267ffffffffffffffff81111561144d5761144c613892565b5b60405190808252806020026020018201604052801561148657816020015b61147361335d565b81526020019060019003908161146b5790505b50905060005b8481101561165b573073ffffffffffffffffffffffffffffffffffffffff16600e60006001846114bc9190613ef1565b815260200190815260200160002060020160009054906101000a900473ffffffffffffffffffffffffffffffffffffffff1673ffffffffffffffffffffffffffffffffffffffff16036116485760006001826115189190613ef1565b90506000600e60008381526020019081526020016000209050806040518060a0016040529081600082015481526020016001820160009054906101000a900473ffffffffffffffffffffffffffffffffffffffff1673ffffffffffffffffffffffffffffffffffffffff1673ffffffffffffffffffffffffffffffffffffffff1681526020016002820160009054906101000a900473ffffffffffffffffffffffffffffffffffffffff1673ffffffffffffffffffffffffffffffffffffffff1673ffffffffffffffffffffffffffffffffffffffff168152602001600382015481526020016004820160009054906101000a900460ff16151515158152505084868151811061162b5761162a613f6d565b5b60200260200101819052506001856116439190613ef1565b945050505b808061165390613f25565b91505061148c565b508094505050505090565b60606001805461167590613cdb565b80601f01602080910402602001604051908101604052809291908181526020018280546116a190613cdb565b80156116ee5780601f106116c3576101008083540402835291602001916116ee565b820191906000526020600020905b8154815290600101906020018083116116d157829003601f168201915b5050505050905090565b61170a611703612101565b8383612bde565b5050565b61171661259b565b80600a8190555050565b61173161172b612101565b836121c2565b611770576040517f08c379a000000000000000000000000000000000000000000000000000000000815260040161176790613ea2565b60405180910390fd5b61177c84848484612d4a565b50505050565b6000600e60008381526020019081526020016000206003015490508034146117df576040517f08c379a00000000000000000000000000000000000000000000000000000000081526004016117d69061433c565b60405180910390fd5b33600e600084815260200190815260200160002060020160006101000a81548173ffffffffffffffffffffffffffffffffffffffff021916908373ffffffffffffffffffffffffffffffffffffffff1602179055506001600e600084815260200190815260200160002060040160006101000a81548160ff0219169083151502179055506000600e600084815260200190815260200160002060010160006101000a81548173ffffffffffffffffffffffffffffffffffffffff021916908373ffffffffffffffffffffffffffffffffffffffff1602179055506118c360096126df565b6118ce303384612257565b600b60009054906101000a900473ffffffffffffffffffffffffffffffffffffffff1673ffffffffffffffffffffffffffffffffffffffff166108fc600a549081150290604051600060405180830381858888f19350505050158015611938573d6000803e3d6000fd5b50600e600083815260200190815260200160002060010160009054906101000a900473ffffffffffffffffffffffffffffffffffffffff1673ffffffffffffffffffffffffffffffffffffffff166108fc349081150290604051600060405180830381858888f193505050501580156119b5573d6000803e3d6000fd5b505050565b606060006119c86008612550565b905060008060005b83811015611a70573373ffffffffffffffffffffffffffffffffffffffff16600e6000600184611a009190613ef1565b815260200190815260200160002060020160009054906101000a900473ffffffffffffffffffffffffffffffffffffffff1673ffffffffffffffffffffffffffffffffffffffff1603611a5d57600181611a5a9190613ef1565b92505b8080611a6890613f25565b9150506119d0565b5060008267ffffffffffffffff811115611a8d57611a8c613892565b5b604051908082528060200260200182016040528015611ac657816020015b611ab361335d565b815260200190600190039081611aab5790505b50905060005b84811015611c9b573373ffffffffffffffffffffffffffffffffffffffff16600e6000600184611afc9190613ef1565b815260200190815260200160002060020160009054906101000a900473ffffffffffffffffffffffffffffffffffffffff1673ffffffffffffffffffffffffffffffffffffffff1603611c88576000600182611b589190613ef1565b90506000600e60008381526020019081526020016000209050806040518060a0016040529081600082015481526020016001820160009054906101000a900473ffffffffffffffffffffffffffffffffffffffff1673ffffffffffffffffffffffffffffffffffffffff1673ffffffffffffffffffffffffffffffffffffffff1681526020016002820160009054906101000a900473ffffffffffffffffffffffffffffffffffffffff1673ffffffffffffffffffffffffffffffffffffffff1673ffffffffffffffffffffffffffffffffffffffff168152602001600382015481526020016004820160009054906101000a900460ff161515151581525050848681518110611c6b57611c6a613f6d565b5b6020026020010181905250600185611c839190613ef1565b945050505b8080611c9390613f25565b915050611acc565b508094505050505090565b611cae61259b565b600c60008273ffffffffffffffffffffffffffffffffffffffff1673ffffffffffffffffffffffffffffffffffffffff16815260200190815260200160002060009054906101000a900460ff1615611d3b576040517f08c379a0000000000000000000000000000000000000000000000000000000008152600401611d32906143a8565b60405180910390fd5b6001600c60008373ffffffffffffffffffffffffffffffffffffffff1673ffffffffffffffffffffffffffffffffffffffff16815260200190815260200160002060006101000a81548160ff0219169083151502179055507fac0f15283d37631c15b481bc07dc402bcfc030956bcd94b5585f71d92e84c3da81604051611dc291906135df565b60405180910390a150565b6060611dd8826120b6565b6000600660008481526020019081526020016000208054611df890613cdb565b80601f0160208091040260200160405190810160405280929190818152602001828054611e2490613cdb565b8015611e715780601f10611e4657610100808354040283529160200191611e71565b820191906000526020600020905b815481529060010190602001808311611e5457829003601f168201915b505050505090506000611e82612da6565b90506000815103611e97578192505050611eda565b600082511115611ecc578082604051602001611eb4929190614404565b60405160208183030381529060405292505050611eda565b611ed584612dbd565b925050505b919050565b6000600c60008373ffffffffffffffffffffffffffffffffffffffff1673ffffffffffffffffffffffffffffffffffffffff16815260200190815260200160002060009054906101000a900460ff169050919050565b6000600560008473ffffffffffffffffffffffffffffffffffffffff1673ffffffffffffffffffffffffffffffffffffffff16815260200190815260200160002060008373ffffffffffffffffffffffffffffffffffffffff1673ffffffffffffffffffffffffffffffffffffffff16815260200190815260200160002060009054906101000a900460ff16905092915050565b611fd161259b565b600073ffffffffffffffffffffffffffffffffffffffff168173ffffffffffffffffffffffffffffffffffffffff1603612040576040517f08c379a00000000000000000000000000000000000000000000000000000000081526004016120379061449a565b60405180910390fd5b61204981612619565b50565b60007f01ffc9a7000000000000000000000000000000000000000000000000000000007bffffffffffffffffffffffffffffffffffffffffffffffffffffffff1916827bffffffffffffffffffffffffffffffffffffffffffffffffffffffff1916149050919050565b6120bf81612e25565b6120fe576040517f08c379a00000000000000000000000000000000000000000000000000000000081526004016120f5906140c0565b60405180910390fd5b50565b600033905090565b816004600083815260200190815260200160002060006101000a81548173ffffffffffffffffffffffffffffffffffffffff021916908373ffffffffffffffffffffffffffffffffffffffff160217905550808273ffffffffffffffffffffffffffffffffffffffff1661217c83610f44565b73ffffffffffffffffffffffffffffffffffffffff167f8c5be1e5ebec7d5bd14f71427d1e84f3dd0314c0f7b2291e5b200ac8c7c3b92560405160405180910390a45050565b6000806121ce83610f44565b90508073ffffffffffffffffffffffffffffffffffffffff168473ffffffffffffffffffffffffffffffffffffffff161480612210575061220f8185611f35565b5b8061224e57508373ffffffffffffffffffffffffffffffffffffffff1661223684610870565b73ffffffffffffffffffffffffffffffffffffffff16145b91505092915050565b8273ffffffffffffffffffffffffffffffffffffffff1661227782610f44565b73ffffffffffffffffffffffffffffffffffffffff16146122cd576040517f08c379a00000000000000000000000000000000000000000000000000000000081526004016122c49061452c565b60405180910390fd5b600073ffffffffffffffffffffffffffffffffffffffff168273ffffffffffffffffffffffffffffffffffffffff160361233c576040517f08c379a0000000000000000000000000000000000000000000000000000000008152600401612333906145be565b60405180910390fd5b6123498383836001612e66565b8273ffffffffffffffffffffffffffffffffffffffff1661236982610f44565b73ffffffffffffffffffffffffffffffffffffffff16146123bf576040517f08c379a00000000000000000000000000000000000000000000000000000000081526004016123b69061452c565b60405180910390fd5b6004600082815260200190815260200160002060006101000a81549073ffffffffffffffffffffffffffffffffffffffff02191690556001600360008573ffffffffffffffffffffffffffffffffffffffff1673ffffffffffffffffffffffffffffffffffffffff168152602001908152602001600020600082825403925050819055506001600360008473ffffffffffffffffffffffffffffffffffffffff1673ffffffffffffffffffffffffffffffffffffffff16815260200190815260200160002060008282540192505081905550816002600083815260200190815260200160002060006101000a81548173ffffffffffffffffffffffffffffffffffffffff021916908373ffffffffffffffffffffffffffffffffffffffff160217905550808273ffffffffffffffffffffffffffffffffffffffff168473ffffffffffffffffffffffffffffffffffffffff167fddf252ad1be2c89b69c2b068fc378daa952ba7f163c4a11628f55a4df523b3ef60405160405180910390a461254b8383836001612f8c565b505050565b600081600001549050919050565b60006002600083815260200190815260200160002060009054906101000a900473ffffffffffffffffffffffffffffffffffffffff169050919050565b6125a3612101565b73ffffffffffffffffffffffffffffffffffffffff166125c16112cc565b73ffffffffffffffffffffffffffffffffffffffff1614612617576040517f08c379a000000000000000000000000000000000000000000000000000000000815260040161260e9061462a565b60405180910390fd5b565b6000600760009054906101000a900473ffffffffffffffffffffffffffffffffffffffff16905081600760006101000a81548173ffffffffffffffffffffffffffffffffffffffff021916908373ffffffffffffffffffffffffffffffffffffffff1602179055508173ffffffffffffffffffffffffffffffffffffffff168173ffffffffffffffffffffffffffffffffffffffff167f8be0079c531659141344cd1fd0a4f28419497f9722a3daafe3b4186f6b6457e060405160405180910390a35050565b6001816000016000828254019250508190555050565b600073ffffffffffffffffffffffffffffffffffffffff168273ffffffffffffffffffffffffffffffffffffffff1603612764576040517f08c379a000000000000000000000000000000000000000000000000000000000815260040161275b90614696565b60405180910390fd5b61276d81612e25565b156127ad576040517f08c379a00000000000000000000000000000000000000000000000000000000081526004016127a490614702565b60405180910390fd5b6127bb600083836001612e66565b6127c481612e25565b15612804576040517f08c379a00000000000000000000000000000000000000000000000000000000081526004016127fb90614702565b60405180910390fd5b6001600360008473ffffffffffffffffffffffffffffffffffffffff1673ffffffffffffffffffffffffffffffffffffffff16815260200190815260200160002060008282540192505081905550816002600083815260200190815260200160002060006101000a81548173ffffffffffffffffffffffffffffffffffffffff021916908373ffffffffffffffffffffffffffffffffffffffff160217905550808273ffffffffffffffffffffffffffffffffffffffff16600073ffffffffffffffffffffffffffffffffffffffff167fddf252ad1be2c89b69c2b068fc378daa952ba7f163c4a11628f55a4df523b3ef60405160405180910390a461290e600083836001612f8c565b5050565b61291b82612e25565b61295a576040517f08c379a000000000000000000000000000000000000000000000000000000000815260040161295190614794565b60405180910390fd5b8060066000848152602001908152602001600020908161297a9190614960565b505050565b600081116129c2576040517f08c379a00000000000000000000000000000000000000000000000000000000081526004016129b990614aa4565b60405180910390fd5b600a543414612a06576040517f08c379a00000000000000000000000000000000000000000000000000000000081526004016129fd90614b36565b60405180910390fd5b6040518060a001604052808381526020013373ffffffffffffffffffffffffffffffffffffffff1681526020013073ffffffffffffffffffffffffffffffffffffffff16815260200182815260200160001515815250600e60008481526020019081526020016000206000820151816000015560208201518160010160006101000a81548173ffffffffffffffffffffffffffffffffffffffff021916908373ffffffffffffffffffffffffffffffffffffffff16021790555060408201518160020160006101000a81548173ffffffffffffffffffffffffffffffffffffffff021916908373ffffffffffffffffffffffffffffffffffffffff1602179055506060820151816003015560808201518160040160006101000a81548160ff021916908315150217905550905050612b3f333084612257565b817f3e6929b95aadb146b3880d299110d50a3e90a467efc5c0c9827e521b59b02d153330846000604051612b769493929190614b56565b60405180910390a25050565b60008160000154905060008111612bce576040517f08c379a0000000000000000000000000000000000000000000000000000000008152600401612bc590614be7565b60405180910390fd5b6001810382600001819055505050565b8173ffffffffffffffffffffffffffffffffffffffff168373ffffffffffffffffffffffffffffffffffffffff1603612c4c576040517f08c379a0000000000000000000000000000000000000000000000000000000008152600401612c4390614c53565b60405180910390fd5b80600560008573ffffffffffffffffffffffffffffffffffffffff1673ffffffffffffffffffffffffffffffffffffffff16815260200190815260200160002060008473ffffffffffffffffffffffffffffffffffffffff1673ffffffffffffffffffffffffffffffffffffffff16815260200190815260200160002060006101000a81548160ff0219169083151502179055508173ffffffffffffffffffffffffffffffffffffffff168373ffffffffffffffffffffffffffffffffffffffff167f17307eab39ab6107e8899845ad3d59bd9653f200f220920489ca2b5937696c3183604051612d3d919061346e565b60405180910390a3505050565b612d55848484612257565b612d6184848484612f92565b612da0576040517f08c379a0000000000000000000000000000000000000000000000000000000008152600401612d9790614ce5565b60405180910390fd5b50505050565b606060405180602001604052806000815250905090565b6060612dc8826120b6565b6000612dd2612da6565b90506000815111612df25760405180602001604052806000815250612e1d565b80612dfc84613119565b604051602001612e0d929190614404565b6040516020818303038152906040525b915050919050565b60008073ffffffffffffffffffffffffffffffffffffffff16612e478361255e565b73ffffffffffffffffffffffffffffffffffffffff1614159050919050565b6001811115612f8657600073ffffffffffffffffffffffffffffffffffffffff168473ffffffffffffffffffffffffffffffffffffffff1614612efa5780600360008673ffffffffffffffffffffffffffffffffffffffff1673ffffffffffffffffffffffffffffffffffffffff1681526020019081526020016000206000828254612ef29190614296565b925050819055505b600073ffffffffffffffffffffffffffffffffffffffff168373ffffffffffffffffffffffffffffffffffffffff1614612f855780600360008573ffffffffffffffffffffffffffffffffffffffff1673ffffffffffffffffffffffffffffffffffffffff1681526020019081526020016000206000828254612f7d9190613ef1565b925050819055505b5b50505050565b50505050565b6000612fb38473ffffffffffffffffffffffffffffffffffffffff166131e7565b1561310c578373ffffffffffffffffffffffffffffffffffffffff1663150b7a02612fdc612101565b8786866040518563ffffffff1660e01b8152600401612ffe9493929190614d5a565b6020604051808303816000875af192505050801561303a57506040513d601f19601f820116820180604052508101906130379190614dbb565b60015b6130bc573d806000811461306a576040519150601f19603f3d011682016040523d82523d6000602084013e61306f565b606091505b5060008151036130b4576040517f08c379a00000000000000000000000000000000000000000000000000000000081526004016130ab90614ce5565b60405180910390fd5b805181602001fd5b63150b7a0260e01b7bffffffffffffffffffffffffffffffffffffffffffffffffffffffff1916817bffffffffffffffffffffffffffffffffffffffffffffffffffffffff191614915050613111565b600190505b949350505050565b6060600060016131288461320a565b01905060008167ffffffffffffffff81111561314757613146613892565b5b6040519080825280601f01601f1916602001820160405280156131795781602001600182028036833780820191505090505b509050600082602001820190505b6001156131dc578080600190039150507f3031323334353637383961626364656600000000000000000000000000000000600a86061a8153600a85816131d0576131cf614de8565b5b04945060008503613187575b819350505050919050565b6000808273ffffffffffffffffffffffffffffffffffffffff163b119050919050565b600080600090507a184f03e93ff9f4daa797ed6e38ed64bf6a1f0100000000000000008310613268577a184f03e93ff9f4daa797ed6e38ed64bf6a1f010000000000000000838161325e5761325d614de8565b5b0492506040810190505b6d04ee2d6d415b85acef810000000083106132a5576d04ee2d6d415b85acef8100000000838161329b5761329a614de8565b5b0492506020810190505b662386f26fc1000083106132d457662386f26fc1000083816132ca576132c9614de8565b5b0492506010810190505b6305f5e10083106132fd576305f5e10083816132f3576132f2614de8565b5b0492506008810190505b612710831061332257612710838161331857613317614de8565b5b0492506004810190505b60648310613345576064838161333b5761333a614de8565b5b0492506002810190505b600a8310613354576001810190505b80915050919050565b6040518060a0016040528060008152602001600073ffffffffffffffffffffffffffffffffffffffff168152602001600073ffffffffffffffffffffffffffffffffffffffff168152602001600081526020016000151581525090565b6000604051905090565b600080fd5b600080fd5b60007fffffffff0000000000000000000000000000000000000000000000000000000082169050919050565b613403816133ce565b811461340e57600080fd5b50565b600081359050613420816133fa565b92915050565b60006020828403121561343c5761343b6133c4565b5b600061344a84828501613411565b91505092915050565b60008115159050919050565b61346881613453565b82525050565b6000602082019050613483600083018461345f565b92915050565b600081519050919050565b600082825260208201905092915050565b60005b838110156134c35780820151818401526020810190506134a8565b60008484015250505050565b6000601f19601f8301169050919050565b60006134eb82613489565b6134f58185613494565b93506135058185602086016134a5565b61350e816134cf565b840191505092915050565b6000602082019050818103600083015261353381846134e0565b905092915050565b6000819050919050565b61354e8161353b565b811461355957600080fd5b50565b60008135905061356b81613545565b92915050565b600060208284031215613587576135866133c4565b5b60006135958482850161355c565b91505092915050565b600073ffffffffffffffffffffffffffffffffffffffff82169050919050565b60006135c98261359e565b9050919050565b6135d9816135be565b82525050565b60006020820190506135f460008301846135d0565b92915050565b613603816135be565b811461360e57600080fd5b50565b600081359050613620816135fa565b92915050565b6000806040838503121561363d5761363c6133c4565b5b600061364b85828601613611565b925050602061365c8582860161355c565b9150509250929050565b61366f8161353b565b82525050565b600060208201905061368a6000830184613666565b92915050565b6000806000606084860312156136a9576136a86133c4565b5b60006136b786828701613611565b93505060206136c886828701613611565b92505060406136d98682870161355c565b9150509250925092565b6000602082840312156136f9576136f86133c4565b5b600061370784828501613611565b91505092915050565b600081519050919050565b600082825260208201905092915050565b6000819050602082019050919050565b6137458161353b565b82525050565b60006137568261359e565b9050919050565b6137668161374b565b82525050565b61377581613453565b82525050565b60a082016000820151613791600085018261373c565b5060208201516137a4602085018261375d565b5060408201516137b7604085018261375d565b5060608201516137ca606085018261373c565b5060808201516137dd608085018261376c565b50505050565b60006137ef838361377b565b60a08301905092915050565b6000602082019050919050565b600061381382613710565b61381d818561371b565b93506138288361372c565b8060005b8381101561385957815161384088826137e3565b975061384b836137fb565b92505060018101905061382c565b5085935050505092915050565b600060208201905081810360008301526138808184613808565b905092915050565b600080fd5b600080fd5b7f4e487b7100000000000000000000000000000000000000000000000000000000600052604160045260246000fd5b6138ca826134cf565b810181811067ffffffffffffffff821117156138e9576138e8613892565b5b80604052505050565b60006138fc6133ba565b905061390882826138c1565b919050565b600067ffffffffffffffff82111561392857613927613892565b5b613931826134cf565b9050602081019050919050565b82818337600083830152505050565b600061396061395b8461390d565b6138f2565b90508281526020810184848401111561397c5761397b61388d565b5b61398784828561393e565b509392505050565b600082601f8301126139a4576139a3613888565b5b81356139b484826020860161394d565b91505092915050565b600080604083850312156139d4576139d36133c4565b5b600083013567ffffffffffffffff8111156139f2576139f16133c9565b5b6139fe8582860161398f565b9250506020613a0f8582860161355c565b9150509250929050565b60008060408385031215613a3057613a2f6133c4565b5b6000613a3e8582860161355c565b9250506020613a4f8582860161355c565b9150509250929050565b60a082016000820151613a6f600085018261373c565b506020820151613a82602085018261375d565b506040820151613a95604085018261375d565b506060820151613aa8606085018261373c565b506080820151613abb608085018261376c565b50505050565b600060a082019050613ad66000830184613a59565b92915050565b613ae581613453565b8114613af057600080fd5b50565b600081359050613b0281613adc565b92915050565b60008060408385031215613b1f57613b1e6133c4565b5b6000613b2d85828601613611565b9250506020613b3e85828601613af3565b9150509250929050565b600067ffffffffffffffff821115613b6357613b62613892565b5b613b6c826134cf565b9050602081019050919050565b6000613b8c613b8784613b48565b6138f2565b905082815260208101848484011115613ba857613ba761388d565b5b613bb384828561393e565b509392505050565b600082601f830112613bd057613bcf613888565b5b8135613be0848260208601613b79565b91505092915050565b60008060008060808587031215613c0357613c026133c4565b5b6000613c1187828801613611565b9450506020613c2287828801613611565b9350506040613c338782880161355c565b925050606085013567ffffffffffffffff811115613c5457613c536133c9565b5b613c6087828801613bbb565b91505092959194509250565b60008060408385031215613c8357613c826133c4565b5b6000613c9185828601613611565b9250506020613ca285828601613611565b9150509250929050565b7f4e487b7100000000000000000000000000000000000000000000000000000000600052602260045260246000fd5b60006002820490506001821680613cf357607f821691505b602082108103613d0657613d05613cac565b5b50919050565b7f4552433732313a20617070726f76616c20746f2063757272656e74206f776e6560008201527f7200000000000000000000000000000000000000000000000000000000000000602082015250565b6000613d68602183613494565b9150613d7382613d0c565b604082019050919050565b60006020820190508181036000830152613d9781613d5b565b9050919050565b7f4552433732313a20617070726f76652063616c6c6572206973206e6f7420746f60008201527f6b656e206f776e6572206f7220617070726f76656420666f7220616c6c000000602082015250565b6000613dfa603d83613494565b9150613e0582613d9e565b604082019050919050565b60006020820190508181036000830152613e2981613ded565b9050919050565b7f4552433732313a2063616c6c6572206973206e6f7420746f6b656e206f776e6560008201527f72206f7220617070726f76656400000000000000000000000000000000000000602082015250565b6000613e8c602d83613494565b9150613e9782613e30565b604082019050919050565b60006020820190508181036000830152613ebb81613e7f565b9050919050565b7f4e487b7100000000000000000000000000000000000000000000000000000000600052601160045260246000fd5b6000613efc8261353b565b9150613f078361353b565b9250828201905080821115613f1f57613f1e613ec2565b5b92915050565b6000613f308261353b565b91507fffffffffffffffffffffffffffffffffffffffffffffffffffffffffffffffff8203613f6257613f61613ec2565b5b600182019050919050565b7f4e487b7100000000000000000000000000000000000000000000000000000000600052603260045260246000fd5b7f566f7573206e27c3aa746573207061732061646d696e69737472617465757200600082015250565b6000613fd2601f83613494565b9150613fdd82613f9c565b602082019050919050565b6000602082019050818103600083015261400181613fc5565b9050919050565b7f417274697374652064c3a96ac3a020656e72656769737472c3a92e0000000000600082015250565b600061403e601b83613494565b915061404982614008565b602082019050919050565b6000602082019050818103600083015261406d81614031565b9050919050565b7f4552433732313a20696e76616c696420746f6b656e2049440000000000000000600082015250565b60006140aa601883613494565b91506140b582614074565b602082019050919050565b600060208201905081810360008301526140d98161409d565b9050919050565b7f4552433732313a2061646472657373207a65726f206973206e6f74206120766160008201527f6c6964206f776e65720000000000000000000000000000000000000000000000602082015250565b600061413c602983613494565b9150614147826140e0565b604082019050919050565b6000602082019050818103600083015261416b8161412f565b9050919050565b7f566f7573206e27c3aa74657320706173206c652070726f707269c3a97461697260008201527f6520646520636520746f6b656e00000000000000000000000000000000000000602082015250565b60006141ce602d83613494565b91506141d982614172565b604082019050919050565b600060208201905081810360008301526141fd816141c1565b9050919050565b7f4c65207072697820646f697420c3aa74726520c3a967616c206175207072697860008201527f2064c3a966696e69000000000000000000000000000000000000000000000000602082015250565b6000614260602883613494565b915061426b82614204565b604082019050919050565b6000602082019050818103600083015261428f81614253565b9050919050565b60006142a18261353b565b91506142ac8361353b565b92508282039050818111156142c4576142c3613ec2565b5b92915050565b7f4d65726369206427696e646971756572206c6520707269782064656d616e64c360008201527fa920706f75722066696e616c69736572206c2761636861740000000000000000602082015250565b6000614326603883613494565b9150614331826142ca565b604082019050919050565b6000602082019050818103600083015261435581614319565b9050919050565b7f436574746520706572736f6e6e65206573742064c3a96ac3a02061646d696e2e600082015250565b6000614392602083613494565b915061439d8261435c565b602082019050919050565b600060208201905081810360008301526143c181614385565b9050919050565b600081905092915050565b60006143de82613489565b6143e881856143c8565b93506143f88185602086016134a5565b80840191505092915050565b600061441082856143d3565b915061441c82846143d3565b91508190509392505050565b7f4f776e61626c653a206e6577206f776e657220697320746865207a65726f206160008201527f6464726573730000000000000000000000000000000000000000000000000000602082015250565b6000614484602683613494565b915061448f82614428565b604082019050919050565b600060208201905081810360008301526144b381614477565b9050919050565b7f4552433732313a207472616e736665722066726f6d20696e636f72726563742060008201527f6f776e6572000000000000000000000000000000000000000000000000000000602082015250565b6000614516602583613494565b9150614521826144ba565b604082019050919050565b6000602082019050818103600083015261454581614509565b9050919050565b7f4552433732313a207472616e7366657220746f20746865207a65726f2061646460008201527f7265737300000000000000000000000000000000000000000000000000000000602082015250565b60006145a8602483613494565b91506145b38261454c565b604082019050919050565b600060208201905081810360008301526145d78161459b565b9050919050565b7f4f776e61626c653a2063616c6c6572206973206e6f7420746865206f776e6572600082015250565b6000614614602083613494565b915061461f826145de565b602082019050919050565b6000602082019050818103600083015261464381614607565b9050919050565b7f4552433732313a206d696e7420746f20746865207a65726f2061646472657373600082015250565b6000614680602083613494565b915061468b8261464a565b602082019050919050565b600060208201905081810360008301526146af81614673565b9050919050565b7f4552433732313a20746f6b656e20616c7265616479206d696e74656400000000600082015250565b60006146ec601c83613494565b91506146f7826146b6565b602082019050919050565b6000602082019050818103600083015261471b816146df565b9050919050565b7f45524337323155524953746f726167653a2055524920736574206f66206e6f6e60008201527f6578697374656e7420746f6b656e000000000000000000000000000000000000602082015250565b600061477e602e83613494565b915061478982614722565b604082019050919050565b600060208201905081810360008301526147ad81614771565b9050919050565b60008190508160005260206000209050919050565b60006020601f8301049050919050565b600082821b905092915050565b6000600883026148167fffffffffffffffffffffffffffffffffffffffffffffffffffffffffffffffff826147d9565b61482086836147d9565b95508019841693508086168417925050509392505050565b6000819050919050565b600061485d6148586148538461353b565b614838565b61353b565b9050919050565b6000819050919050565b61487783614842565b61488b61488382614864565b8484546147e6565b825550505050565b600090565b6148a0614893565b6148ab81848461486e565b505050565b5b818110156148cf576148c4600082614898565b6001810190506148b1565b5050565b601f821115614914576148e5816147b4565b6148ee846147c9565b810160208510156148fd578190505b614911614909856147c9565b8301826148b0565b50505b505050565b600082821c905092915050565b600061493760001984600802614919565b1980831691505092915050565b60006149508383614926565b9150826002028217905092915050565b61496982613489565b67ffffffffffffffff81111561498257614981613892565b5b61498c8254613cdb565b6149978282856148d3565b600060209050601f8311600181146149ca57600084156149b8578287015190505b6149c28582614944565b865550614a2a565b601f1984166149d8866147b4565b60005b82811015614a00578489015182556001820191506020850194506020810190506149db565b86831015614a1d5784890151614a19601f891682614926565b8355505b6001600288020188555050505b505050505050565b7f4c65207072697820646f697420c3aa74726520737570c3a9726965757220c3a060008201527f2030000000000000000000000000000000000000000000000000000000000000602082015250565b6000614a8e602283613494565b9150614a9982614a32565b604082019050919050565b60006020820190508181036000830152614abd81614a81565b9050919050565b7f4c65207072697820646f697420c3aa74726520737570c3a9726965757220c3a060008201527f206c6120636f6d6d697373696f6e206465206c6120706c617465666f726d652e602082015250565b6000614b20604083613494565b9150614b2b82614ac4565b604082019050919050565b60006020820190508181036000830152614b4f81614b13565b9050919050565b6000608082019050614b6b60008301876135d0565b614b7860208301866135d0565b614b856040830185613666565b614b92606083018461345f565b95945050505050565b7f436f756e7465723a2064656372656d656e74206f766572666c6f770000000000600082015250565b6000614bd1601b83613494565b9150614bdc82614b9b565b602082019050919050565b60006020820190508181036000830152614c0081614bc4565b9050919050565b7f4552433732313a20617070726f766520746f2063616c6c657200000000000000600082015250565b6000614c3d601983613494565b9150614c4882614c07565b602082019050919050565b60006020820190508181036000830152614c6c81614c30565b9050919050565b7f4552433732313a207472616e7366657220746f206e6f6e20455243373231526560008201527f63656976657220696d706c656d656e7465720000000000000000000000000000602082015250565b6000614ccf603283613494565b9150614cda82614c73565b604082019050919050565b60006020820190508181036000830152614cfe81614cc2565b9050919050565b600081519050919050565b600082825260208201905092915050565b6000614d2c82614d05565b614d368185614d10565b9350614d468185602086016134a5565b614d4f816134cf565b840191505092915050565b6000608082019050614d6f60008301876135d0565b614d7c60208301866135d0565b614d896040830185613666565b8181036060830152614d9b8184614d21565b905095945050505050565b600081519050614db5816133fa565b92915050565b600060208284031215614dd157614dd06133c4565b5b6000614ddf84828501614da6565b91505092915050565b7f4e487b7100000000000000000000000000000000000000000000000000000000600052601260045260246000fdfea2646970667358221220f1aee7b5d17c5c9f2b880d344b6675f240cf04d027cfd8319e225a4efbb222f864736f6c63430008110033",
  "linkReferences": {},
  "deployedLinkReferences": {}
}