{
  "contractName": "DemocratizArt",
  "abi": [
    {
      "inputs": [],
      "stateMutability": "nonpayable",
      "type": "constructor"
    },
    {
      "anonymous": false,
      "inputs": [
        {
          "indexed": false,
          "internalType": "address",
          "name": "_address",
          "type": "address"
        }
      ],
      "name": "AdminRegistered",
      "type": "event"
    },
    {
      "anonymous": false,
      "inputs": [
        {
          "indexed": true,
          "internalType": "address",
          "name": "owner",
          "type": "address"
        },
        {
          "indexed": true,
          "internalType": "address",
          "name": "approved",
          "type": "address"
        },
        {
          "indexed": true,
          "internalType": "uint256",
          "name": "tokenId",
          "type": "uint256"
        }
      ],
      "name": "Approval",
      "type": "event"
    },
    {
      "anonymous": false,
      "inputs": [
        {
          "indexed": true,
          "internalType": "address",
          "name": "owner",
          "type": "address"
        },
        {
          "indexed": true,
          "internalType": "address",
          "name": "operator",
          "type": "address"
        },
        {
          "indexed": false,
          "internalType": "bool",
          "name": "approved",
          "type": "bool"
        }
      ],
      "name": "ApprovalForAll",
      "type": "event"
    },
    {
      "anonymous": false,
      "inputs": [
        {
          "indexed": false,
          "internalType": "address",
          "name": "_address",
          "type": "address"
        }
      ],
      "name": "ArtistRegistered",
      "type": "event"
    },
    {
      "anonymous": false,
      "inputs": [
        {
          "indexed": true,
          "internalType": "address",
          "name": "from",
          "type": "address"
        },
        {
          "indexed": true,
          "internalType": "address",
          "name": "to",
          "type": "address"
        },
        {
          "indexed": true,
          "internalType": "uint256",
          "name": "tokenId",
          "type": "uint256"
        }
      ],
      "name": "Transfer",
      "type": "event"
    },
    {
      "anonymous": false,
      "inputs": [
        {
          "indexed": true,
          "internalType": "uint256",
          "name": "tokenId",
          "type": "uint256"
        },
        {
          "indexed": false,
          "internalType": "address",
          "name": "seller",
          "type": "address"
        },
        {
          "indexed": false,
          "internalType": "address",
          "name": "owner",
          "type": "address"
        },
        {
          "indexed": false,
          "internalType": "uint256",
          "name": "price",
          "type": "uint256"
        },
        {
          "indexed": false,
          "internalType": "bool",
          "name": "sold",
          "type": "bool"
        }
      ],
      "name": "idToMarketItemCreated",
      "type": "event"
    },
    {
      "inputs": [
        {
          "internalType": "address",
          "name": "to",
          "type": "address"
        },
        {
          "internalType": "uint256",
          "name": "tokenId",
          "type": "uint256"
        }
      ],
      "name": "approve",
      "outputs": [],
      "stateMutability": "nonpayable",
      "type": "function"
    },
    {
      "inputs": [
        {
          "internalType": "address",
          "name": "owner",
          "type": "address"
        }
      ],
      "name": "balanceOf",
      "outputs": [
        {
          "internalType": "uint256",
          "name": "",
          "type": "uint256"
        }
      ],
      "stateMutability": "view",
      "type": "function",
      "constant": true
    },
    {
      "inputs": [
        {
          "internalType": "uint256",
          "name": "tokenId",
          "type": "uint256"
        }
      ],
      "name": "getApproved",
      "outputs": [
        {
          "internalType": "address",
          "name": "",
          "type": "address"
        }
      ],
      "stateMutability": "view",
      "type": "function",
      "constant": true
    },
    {
      "inputs": [
        {
          "internalType": "address",
          "name": "owner",
          "type": "address"
        },
        {
          "internalType": "address",
          "name": "operator",
          "type": "address"
        }
      ],
      "name": "isApprovedForAll",
      "outputs": [
        {
          "internalType": "bool",
          "name": "",
          "type": "bool"
        }
      ],
      "stateMutability": "view",
      "type": "function",
      "constant": true
    },
    {
      "inputs": [],
      "name": "name",
      "outputs": [
        {
          "internalType": "string",
          "name": "",
          "type": "string"
        }
      ],
      "stateMutability": "view",
      "type": "function",
      "constant": true
    },
    {
      "inputs": [
        {
          "internalType": "uint256",
          "name": "tokenId",
          "type": "uint256"
        }
      ],
      "name": "ownerOf",
      "outputs": [
        {
          "internalType": "address",
          "name": "",
          "type": "address"
        }
      ],
      "stateMutability": "view",
      "type": "function",
      "constant": true
    },
    {
      "inputs": [
        {
          "internalType": "address",
          "name": "from",
          "type": "address"
        },
        {
          "internalType": "address",
          "name": "to",
          "type": "address"
        },
        {
          "internalType": "uint256",
          "name": "tokenId",
          "type": "uint256"
        }
      ],
      "name": "safeTransferFrom",
      "outputs": [],
      "stateMutability": "nonpayable",
      "type": "function"
    },
    {
      "inputs": [
        {
          "internalType": "address",
          "name": "from",
          "type": "address"
        },
        {
          "internalType": "address",
          "name": "to",
          "type": "address"
        },
        {
          "internalType": "uint256",
          "name": "tokenId",
          "type": "uint256"
        },
        {
          "internalType": "bytes",
          "name": "data",
          "type": "bytes"
        }
      ],
      "name": "safeTransferFrom",
      "outputs": [],
      "stateMutability": "nonpayable",
      "type": "function"
    },
    {
      "inputs": [
        {
          "internalType": "address",
          "name": "operator",
          "type": "address"
        },
        {
          "internalType": "bool",
          "name": "approved",
          "type": "bool"
        }
      ],
      "name": "setApprovalForAll",
      "outputs": [],
      "stateMutability": "nonpayable",
      "type": "function"
    },
    {
      "inputs": [
        {
          "internalType": "bytes4",
          "name": "interfaceId",
          "type": "bytes4"
        }
      ],
      "name": "supportsInterface",
      "outputs": [
        {
          "internalType": "bool",
          "name": "",
          "type": "bool"
        }
      ],
      "stateMutability": "view",
      "type": "function",
      "constant": true
    },
    {
      "inputs": [],
      "name": "symbol",
      "outputs": [
        {
          "internalType": "string",
          "name": "",
          "type": "string"
        }
      ],
      "stateMutability": "view",
      "type": "function",
      "constant": true
    },
    {
      "inputs": [
        {
          "internalType": "uint256",
          "name": "tokenId",
          "type": "uint256"
        }
      ],
      "name": "tokenURI",
      "outputs": [
        {
          "internalType": "string",
          "name": "",
          "type": "string"
        }
      ],
      "stateMutability": "view",
      "type": "function",
      "constant": true
    },
    {
      "inputs": [
        {
          "internalType": "address",
          "name": "from",
          "type": "address"
        },
        {
          "internalType": "address",
          "name": "to",
          "type": "address"
        },
        {
          "internalType": "uint256",
          "name": "tokenId",
          "type": "uint256"
        }
      ],
      "name": "transferFrom",
      "outputs": [],
      "stateMutability": "nonpayable",
      "type": "function"
    },
    {
      "inputs": [
        {
          "internalType": "address",
          "name": "_address",
          "type": "address"
        }
      ],
      "name": "registerAdmin",
      "outputs": [],
      "stateMutability": "nonpayable",
      "type": "function"
    },
    {
      "inputs": [
        {
          "internalType": "address",
          "name": "_address",
          "type": "address"
        }
      ],
      "name": "registerArtist",
      "outputs": [],
      "stateMutability": "nonpayable",
      "type": "function"
    },
    {
      "inputs": [
        {
          "internalType": "uint256",
          "name": "_listingPrice",
          "type": "uint256"
        }
      ],
      "name": "updateListingPrice",
      "outputs": [],
      "stateMutability": "payable",
      "type": "function",
      "payable": true
    },
    {
      "inputs": [],
      "name": "getListingPrice",
      "outputs": [
        {
          "internalType": "uint256",
          "name": "",
          "type": "uint256"
        }
      ],
      "stateMutability": "view",
      "type": "function",
      "constant": true
    },
    {
      "inputs": [
        {
          "internalType": "string",
          "name": "tokenURI",
          "type": "string"
        },
        {
          "internalType": "uint256",
          "name": "price",
          "type": "uint256"
        }
      ],
      "name": "createToken",
      "outputs": [
        {
          "internalType": "uint256",
          "name": "",
          "type": "uint256"
        }
      ],
      "stateMutability": "payable",
      "type": "function",
      "payable": true
    },
    {
      "inputs": [
        {
          "internalType": "uint256",
          "name": "tokenId",
          "type": "uint256"
        },
        {
          "internalType": "uint256",
          "name": "price",
          "type": "uint256"
        }
      ],
      "name": "reSellToken",
      "outputs": [],
      "stateMutability": "payable",
      "type": "function",
      "payable": true
    },
    {
      "inputs": [
        {
          "internalType": "uint256",
          "name": "tokenId",
          "type": "uint256"
        }
      ],
      "name": "createMarketSale",
      "outputs": [],
      "stateMutability": "payable",
      "type": "function",
      "payable": true
    },
    {
      "inputs": [],
      "name": "fetchMarketItem",
      "outputs": [
        {
          "components": [
            {
              "internalType": "uint256",
              "name": "tokenId",
              "type": "uint256"
            },
            {
              "internalType": "address payable",
              "name": "seller",
              "type": "address"
            },
            {
              "internalType": "address payable",
              "name": "owner",
              "type": "address"
            },
            {
              "internalType": "uint256",
              "name": "price",
              "type": "uint256"
            },
            {
              "internalType": "bool",
              "name": "sold",
              "type": "bool"
            }
          ],
          "internalType": "struct DemocratizArt.MarketItem[]",
          "name": "",
          "type": "tuple[]"
        }
      ],
      "stateMutability": "view",
      "type": "function",
      "constant": true
    },
    {
      "inputs": [],
      "name": "fetchMyNFT",
      "outputs": [
        {
          "components": [
            {
              "internalType": "uint256",
              "name": "tokenId",
              "type": "uint256"
            },
            {
              "internalType": "address payable",
              "name": "seller",
              "type": "address"
            },
            {
              "internalType": "address payable",
              "name": "owner",
              "type": "address"
            },
            {
              "internalType": "uint256",
              "name": "price",
              "type": "uint256"
            },
            {
              "internalType": "bool",
              "name": "sold",
              "type": "bool"
            }
          ],
          "internalType": "struct DemocratizArt.MarketItem[]",
          "name": "",
          "type": "tuple[]"
        }
      ],
      "stateMutability": "view",
      "type": "function",
      "constant": true
    },
    {
      "inputs": [],
      "name": "fetchItemsListed",
      "outputs": [
        {
          "components": [
            {
              "internalType": "uint256",
              "name": "tokenId",
              "type": "uint256"
            },
            {
              "internalType": "address payable",
              "name": "seller",
              "type": "address"
            },
            {
              "internalType": "address payable",
              "name": "owner",
              "type": "address"
            },
            {
              "internalType": "uint256",
              "name": "price",
              "type": "uint256"
            },
            {
              "internalType": "bool",
              "name": "sold",
              "type": "bool"
            }
          ],
          "internalType": "struct DemocratizArt.MarketItem[]",
          "name": "",
          "type": "tuple[]"
        }
      ],
      "stateMutability": "view",
      "type": "function",
      "constant": true
    }
  ],
  "bytecode": "0x60806040526605543df729c0006009553480156200001c57600080fd5b506040518060400160405280601281526020017f4e46542044656d6f63726174697a5f41727400000000000000000000000000008152506040518060400160405280600581526020017f44414e465400000000000000000000000000000000000000000000000000000081525081600090816200009a919062000355565b508060019081620000ac919062000355565b5050503373ffffffffffffffffffffffffffffffffffffffff16600a60009054906101000a905050506200043c565b600081519050919050565b7f4e487b7100000000000000000000000000000000000000000000000000000000600052604160045260246000fd5b7f4e487b7100000000000000000000000000000000000000000000000000000000600052602260045260246000fd5b600060028204905060018216806200015d57607f821691505b60208210810362000173576200017262000115565b5b50919050565b60008190508160005260206000209050919050565b60006020601f8301049050919050565b600082821b905092915050565b600060088302620001dd7fffffffffffffffffffffffffffffffffffffffffffffffffffffffffffffffff826200019e565b620001e986836200019e565b95508019841693508086168417925050509392505050565b6000819050919050565b6000819050919050565b600062000236620002306200022a8462000201565b6200020b565b62000201565b9050919050565b6000819050919050565b620002528362000215565b6200026a62000261826200023d565b848454620001ab565b825550505050565b600090565b6200028162000272565b6200028e81848462000247565b505050565b5b81811015620002b657620002aa60008262000277565b60018101905062000294565b5050565b601f8211156200030557620002cf8162000179565b620002da846200018e565b81016020851015620002ea578190505b62000302620002f9856200018e565b83018262000293565b50505b505050565b600082821c905092915050565b60006200032a600019846008026200030a565b1980831691505092915050565b600062000345838362000317565b9150826002028217905092915050565b6200036082620000db565b67ffffffffffffffff8111156200037c576200037b620000e6565b5b62000388825462000144565b62000395828285620002ba565b600060209050601f831160018114620003cd5760008415620003b8578287015190505b620003c4858262000337565b86555062000434565b601f198416620003dd8662000179565b60005b828110156200040757848901518255600182019150602085019450602081019050620003e0565b8683101562000427578489015162000423601f89168262000317565b8355505b6001600288020188555050505b505050505050565b6149a3806200044c6000396000f3fe6080604052600436106101405760003560e01c806372b3b620116100b6578063b88d4fde1161006f578063b88d4fde14610445578063be9af5361461046e578063c18763f71461048a578063c38c5813146104b5578063c87b56dd146104de578063e985e9c51461051b57610140565b806372b3b6201461035e57806385535b251461038e5780638fafd021146103aa57806395d89b41146103d5578063a22cb46514610400578063ae677aa31461042957610140565b806323b872dd1161010857806323b872dd1461023e57806342842e0e1461026757806345f8fa80146102905780634cb33d5b146102bb5780636352211e146102e457806370a082311461032157610140565b806301ffc9a71461014557806306fdde0314610182578063081812fc146101ad578063095ea7b3146101ea57806312e8558514610213575b600080fd5b34801561015157600080fd5b5061016c60048036038101906101679190612fd9565b610558565b6040516101799190613021565b60405180910390f35b34801561018e57600080fd5b5061019761063a565b6040516101a491906130cc565b60405180910390f35b3480156101b957600080fd5b506101d460048036038101906101cf9190613124565b6106cc565b6040516101e19190613192565b60405180910390f35b3480156101f657600080fd5b50610211600480360381019061020c91906131d9565b610712565b005b34801561021f57600080fd5b50610228610829565b6040516102359190613228565b60405180910390f35b34801561024a57600080fd5b5061026560048036038101906102609190613243565b610833565b005b34801561027357600080fd5b5061028e60048036038101906102899190613243565b610893565b005b34801561029c57600080fd5b506102a56108b3565b6040516102b291906133ec565b60405180910390f35b3480156102c757600080fd5b506102e260048036038101906102dd919061340e565b610b9f565b005b3480156102f057600080fd5b5061030b60048036038101906103069190613124565b610d4a565b6040516103189190613192565b60405180910390f35b34801561032d57600080fd5b506103486004803603810190610343919061340e565b610dd0565b6040516103559190613228565b60405180910390f35b61037860048036038101906103739190613570565b610e87565b6040516103859190613228565b60405180910390f35b6103a860048036038101906103a391906135cc565b610ec9565b005b3480156103b657600080fd5b506103bf6110be565b6040516103cc91906133ec565b60405180910390f35b3480156103e157600080fd5b506103ea611326565b6040516103f791906130cc565b60405180910390f35b34801561040c57600080fd5b5061042760048036038101906104229190613638565b6113b8565b005b610443600480360381019061043e9190613124565b6113ce565b005b34801561045157600080fd5b5061046c60048036038101906104679190613719565b611468565b005b61048860048036038101906104839190613124565b6114ca565b005b34801561049657600080fd5b5061049f611702565b6040516104ac91906133ec565b60405180910390f35b3480156104c157600080fd5b506104dc60048036038101906104d7919061340e565b6119ee565b005b3480156104ea57600080fd5b5061050560048036038101906105009190613124565b611b9d565b60405161051291906130cc565b60405180910390f35b34801561052757600080fd5b50610542600480360381019061053d919061379c565b611caf565b60405161054f9190613021565b60405180910390f35b60007f80ac58cd000000000000000000000000000000000000000000000000000000007bffffffffffffffffffffffffffffffffffffffffffffffffffffffff1916827bffffffffffffffffffffffffffffffffffffffffffffffffffffffff1916148061062357507f5b5e139f000000000000000000000000000000000000000000000000000000007bffffffffffffffffffffffffffffffffffffffffffffffffffffffff1916827bffffffffffffffffffffffffffffffffffffffffffffffffffffffff1916145b80610633575061063282611d43565b5b9050919050565b6060600080546106499061380b565b80601f01602080910402602001604051908101604052809291908181526020018280546106759061380b565b80156106c25780601f10610697576101008083540402835291602001916106c2565b820191906000526020600020905b8154815290600101906020018083116106a557829003601f168201915b5050505050905090565b60006106d782611dad565b6004600083815260200190815260200160002060009054906101000a900473ffffffffffffffffffffffffffffffffffffffff169050919050565b600061071d82610d4a565b90508073ffffffffffffffffffffffffffffffffffffffff168373ffffffffffffffffffffffffffffffffffffffff160361078d576040517f08c379a0000000000000000000000000000000000000000000000000000000008152600401610784906138ae565b60405180910390fd5b8073ffffffffffffffffffffffffffffffffffffffff166107ac611df8565b73ffffffffffffffffffffffffffffffffffffffff1614806107db57506107da816107d5611df8565b611caf565b5b61081a576040517f08c379a000000000000000000000000000000000000000000000000000000000815260040161081190613940565b60405180910390fd5b6108248383611e00565b505050565b6000600954905090565b61084461083e611df8565b82611eb9565b610883576040517f08c379a000000000000000000000000000000000000000000000000000000000815260040161087a906139d2565b60405180910390fd5b61088e838383611f4e565b505050565b6108ae83838360405180602001604052806000815250611468565b505050565b606060006108c16007612247565b905060008060005b83811015610969573373ffffffffffffffffffffffffffffffffffffffff16600d60006001846108f99190613a21565b815260200190815260200160002060010160009054906101000a900473ffffffffffffffffffffffffffffffffffffffff1673ffffffffffffffffffffffffffffffffffffffff1603610956576001816109539190613a21565b92505b808061096190613a55565b9150506108c9565b5060008267ffffffffffffffff81111561098657610985613445565b5b6040519080825280602002602001820160405280156109bf57816020015b6109ac612f10565b8152602001906001900390816109a45790505b50905060005b84811015610b94573373ffffffffffffffffffffffffffffffffffffffff16600d60006001846109f59190613a21565b815260200190815260200160002060010160009054906101000a900473ffffffffffffffffffffffffffffffffffffffff1673ffffffffffffffffffffffffffffffffffffffff1603610b81576000600182610a519190613a21565b90506000600d60008381526020019081526020016000209050806040518060a0016040529081600082015481526020016001820160009054906101000a900473ffffffffffffffffffffffffffffffffffffffff1673ffffffffffffffffffffffffffffffffffffffff1673ffffffffffffffffffffffffffffffffffffffff1681526020016002820160009054906101000a900473ffffffffffffffffffffffffffffffffffffffff1673ffffffffffffffffffffffffffffffffffffffff1673ffffffffffffffffffffffffffffffffffffffff168152602001600382015481526020016004820160009054906101000a900460ff161515151581525050848681518110610b6457610b63613a9d565b5b6020026020010181905250600185610b7c9190613a21565b945050505b8080610b8c90613a55565b9150506109c5565b508094505050505090565b600b60003373ffffffffffffffffffffffffffffffffffffffff1673ffffffffffffffffffffffffffffffffffffffff16815260200190815260200160002060009054906101000a900460ff16610c2b576040517f08c379a0000000000000000000000000000000000000000000000000000000008152600401610c2290613b18565b60405180910390fd5b600c60008273ffffffffffffffffffffffffffffffffffffffff1673ffffffffffffffffffffffffffffffffffffffff16815260200190815260200160002060009054906101000a900460ff1615610cb8576040517f08c379a0000000000000000000000000000000000000000000000000000000008152600401610caf90613b84565b60405180910390fd5b6001600c60008373ffffffffffffffffffffffffffffffffffffffff1673ffffffffffffffffffffffffffffffffffffffff16815260200190815260200160002060006101000a81548160ff0219169083151502179055507fa8476a100dfe10a5a1eaf141fb52ce03e930b3592d93f086ea603b0f9152649a81604051610d3f9190613192565b60405180910390a150565b600080610d5683612255565b9050600073ffffffffffffffffffffffffffffffffffffffff168173ffffffffffffffffffffffffffffffffffffffff1603610dc7576040517f08c379a0000000000000000000000000000000000000000000000000000000008152600401610dbe90613bf0565b60405180910390fd5b80915050919050565b60008073ffffffffffffffffffffffffffffffffffffffff168273ffffffffffffffffffffffffffffffffffffffff1603610e40576040517f08c379a0000000000000000000000000000000000000000000000000000000008152600401610e3790613c82565b60405180910390fd5b600360008373ffffffffffffffffffffffffffffffffffffffff1673ffffffffffffffffffffffffffffffffffffffff168152602001908152602001600020549050919050565b6000610e936007612292565b6000610e9f6007612247565b9050610eab33826122a8565b610eb581856124c5565b610ebf8184612532565b8091505092915050565b3373ffffffffffffffffffffffffffffffffffffffff16600d600084815260200190815260200160002060020160009054906101000a900473ffffffffffffffffffffffffffffffffffffffff1673ffffffffffffffffffffffffffffffffffffffff1614610f6d576040517f08c379a0000000000000000000000000000000000000000000000000000000008152600401610f6490613d14565b60405180910390fd5b6009543414610fb1576040517f08c379a0000000000000000000000000000000000000000000000000000000008152600401610fa890613da6565b60405180910390fd5b6000600d600084815260200190815260200160002060040160006101000a81548160ff02191690831515021790555080600d60008481526020019081526020016000206003018190555033600d600084815260200190815260200160002060010160006101000a81548173ffffffffffffffffffffffffffffffffffffffff021916908373ffffffffffffffffffffffffffffffffffffffff16021790555030600d600084815260200190815260200160002060020160006101000a81548173ffffffffffffffffffffffffffffffffffffffff021916908373ffffffffffffffffffffffffffffffffffffffff1602179055506110af6008612735565b6110ba333084611f4e565b5050565b606060006110cc6007612247565b905060006110da6008612247565b6110e46007612247565b6110ee9190613dc6565b90506000808267ffffffffffffffff81111561110d5761110c613445565b5b60405190808252806020026020018201604052801561114657816020015b611133612f10565b81526020019060019003908161112b5790505b50905060005b8481101561131b573073ffffffffffffffffffffffffffffffffffffffff16600d600060018461117c9190613a21565b815260200190815260200160002060020160009054906101000a900473ffffffffffffffffffffffffffffffffffffffff1673ffffffffffffffffffffffffffffffffffffffff16036113085760006001826111d89190613a21565b90506000600d60008381526020019081526020016000209050806040518060a0016040529081600082015481526020016001820160009054906101000a900473ffffffffffffffffffffffffffffffffffffffff1673ffffffffffffffffffffffffffffffffffffffff1673ffffffffffffffffffffffffffffffffffffffff1681526020016002820160009054906101000a900473ffffffffffffffffffffffffffffffffffffffff1673ffffffffffffffffffffffffffffffffffffffff1673ffffffffffffffffffffffffffffffffffffffff168152602001600382015481526020016004820160009054906101000a900460ff1615151515815250508486815181106112eb576112ea613a9d565b5b60200260200101819052506001856113039190613a21565b945050505b808061131390613a55565b91505061114c565b508094505050505090565b6060600180546113359061380b565b80601f01602080910402602001604051908101604052809291908181526020018280546113619061380b565b80156113ae5780601f10611383576101008083540402835291602001916113ae565b820191906000526020600020905b81548152906001019060200180831161139157829003601f168201915b5050505050905090565b6113ca6113c3611df8565b8383612791565b5050565b3373ffffffffffffffffffffffffffffffffffffffff16600a60009054906101000a900473ffffffffffffffffffffffffffffffffffffffff1673ffffffffffffffffffffffffffffffffffffffff161461145e576040517f08c379a000000000000000000000000000000000000000000000000000000000815260040161145590613e6c565b60405180910390fd5b8060098190555050565b611479611473611df8565b83611eb9565b6114b8576040517f08c379a00000000000000000000000000000000000000000000000000000000081526004016114af906139d2565b60405180910390fd5b6114c4848484846128fd565b50505050565b6000600d6000838152602001908152602001600020600301549050803414611527576040517f08c379a000000000000000000000000000000000000000000000000000000000815260040161151e90613efe565b60405180910390fd5b33600d600084815260200190815260200160002060020160006101000a81548173ffffffffffffffffffffffffffffffffffffffff021916908373ffffffffffffffffffffffffffffffffffffffff1602179055506001600d600084815260200190815260200160002060040160006101000a81548160ff0219169083151502179055506000600d600084815260200190815260200160002060010160006101000a81548173ffffffffffffffffffffffffffffffffffffffff021916908373ffffffffffffffffffffffffffffffffffffffff16021790555061160b6008612292565b611616303384611f4e565b600a60009054906101000a900473ffffffffffffffffffffffffffffffffffffffff1673ffffffffffffffffffffffffffffffffffffffff166108fc6009549081150290604051600060405180830381858888f19350505050158015611680573d6000803e3d6000fd5b50600d600083815260200190815260200160002060010160009054906101000a900473ffffffffffffffffffffffffffffffffffffffff1673ffffffffffffffffffffffffffffffffffffffff166108fc349081150290604051600060405180830381858888f193505050501580156116fd573d6000803e3d6000fd5b505050565b606060006117106007612247565b905060008060005b838110156117b8573373ffffffffffffffffffffffffffffffffffffffff16600d60006001846117489190613a21565b815260200190815260200160002060020160009054906101000a900473ffffffffffffffffffffffffffffffffffffffff1673ffffffffffffffffffffffffffffffffffffffff16036117a5576001816117a29190613a21565b92505b80806117b090613a55565b915050611718565b5060008267ffffffffffffffff8111156117d5576117d4613445565b5b60405190808252806020026020018201604052801561180e57816020015b6117fb612f10565b8152602001906001900390816117f35790505b50905060005b848110156119e3573373ffffffffffffffffffffffffffffffffffffffff16600d60006001846118449190613a21565b815260200190815260200160002060020160009054906101000a900473ffffffffffffffffffffffffffffffffffffffff1673ffffffffffffffffffffffffffffffffffffffff16036119d05760006001826118a09190613a21565b90506000600d60008381526020019081526020016000209050806040518060a0016040529081600082015481526020016001820160009054906101000a900473ffffffffffffffffffffffffffffffffffffffff1673ffffffffffffffffffffffffffffffffffffffff1673ffffffffffffffffffffffffffffffffffffffff1681526020016002820160009054906101000a900473ffffffffffffffffffffffffffffffffffffffff1673ffffffffffffffffffffffffffffffffffffffff1673ffffffffffffffffffffffffffffffffffffffff168152602001600382015481526020016004820160009054906101000a900460ff1615151515815250508486815181106119b3576119b2613a9d565b5b60200260200101819052506001856119cb9190613a21565b945050505b80806119db90613a55565b915050611814565b508094505050505090565b3373ffffffffffffffffffffffffffffffffffffffff16600a60009054906101000a900473ffffffffffffffffffffffffffffffffffffffff1673ffffffffffffffffffffffffffffffffffffffff1614611a7e576040517f08c379a0000000000000000000000000000000000000000000000000000000008152600401611a7590613f90565b60405180910390fd5b600b60008273ffffffffffffffffffffffffffffffffffffffff1673ffffffffffffffffffffffffffffffffffffffff16815260200190815260200160002060009054906101000a900460ff1615611b0b576040517f08c379a0000000000000000000000000000000000000000000000000000000008152600401611b0290613ffc565b60405180910390fd5b6001600b60008373ffffffffffffffffffffffffffffffffffffffff1673ffffffffffffffffffffffffffffffffffffffff16815260200190815260200160002060006101000a81548160ff0219169083151502179055507fac0f15283d37631c15b481bc07dc402bcfc030956bcd94b5585f71d92e84c3da81604051611b929190613192565b60405180910390a150565b6060611ba882611dad565b6000600660008481526020019081526020016000208054611bc89061380b565b80601f0160208091040260200160405190810160405280929190818152602001828054611bf49061380b565b8015611c415780601f10611c1657610100808354040283529160200191611c41565b820191906000526020600020905b815481529060010190602001808311611c2457829003601f168201915b505050505090506000611c52612959565b90506000815103611c67578192505050611caa565b600082511115611c9c578082604051602001611c84929190614058565b60405160208183030381529060405292505050611caa565b611ca584612970565b925050505b919050565b6000600560008473ffffffffffffffffffffffffffffffffffffffff1673ffffffffffffffffffffffffffffffffffffffff16815260200190815260200160002060008373ffffffffffffffffffffffffffffffffffffffff1673ffffffffffffffffffffffffffffffffffffffff16815260200190815260200160002060009054906101000a900460ff16905092915050565b60007f01ffc9a7000000000000000000000000000000000000000000000000000000007bffffffffffffffffffffffffffffffffffffffffffffffffffffffff1916827bffffffffffffffffffffffffffffffffffffffffffffffffffffffff1916149050919050565b611db6816129d8565b611df5576040517f08c379a0000000000000000000000000000000000000000000000000000000008152600401611dec90613bf0565b60405180910390fd5b50565b600033905090565b816004600083815260200190815260200160002060006101000a81548173ffffffffffffffffffffffffffffffffffffffff021916908373ffffffffffffffffffffffffffffffffffffffff160217905550808273ffffffffffffffffffffffffffffffffffffffff16611e7383610d4a565b73ffffffffffffffffffffffffffffffffffffffff167f8c5be1e5ebec7d5bd14f71427d1e84f3dd0314c0f7b2291e5b200ac8c7c3b92560405160405180910390a45050565b600080611ec583610d4a565b90508073ffffffffffffffffffffffffffffffffffffffff168473ffffffffffffffffffffffffffffffffffffffff161480611f075750611f068185611caf565b5b80611f4557508373ffffffffffffffffffffffffffffffffffffffff16611f2d846106cc565b73ffffffffffffffffffffffffffffffffffffffff16145b91505092915050565b8273ffffffffffffffffffffffffffffffffffffffff16611f6e82610d4a565b73ffffffffffffffffffffffffffffffffffffffff1614611fc4576040517f08c379a0000000000000000000000000000000000000000000000000000000008152600401611fbb906140ee565b60405180910390fd5b600073ffffffffffffffffffffffffffffffffffffffff168273ffffffffffffffffffffffffffffffffffffffff1603612033576040517f08c379a000000000000000000000000000000000000000000000000000000000815260040161202a90614180565b60405180910390fd5b6120408383836001612a19565b8273ffffffffffffffffffffffffffffffffffffffff1661206082610d4a565b73ffffffffffffffffffffffffffffffffffffffff16146120b6576040517f08c379a00000000000000000000000000000000000000000000000000000000081526004016120ad906140ee565b60405180910390fd5b6004600082815260200190815260200160002060006101000a81549073ffffffffffffffffffffffffffffffffffffffff02191690556001600360008573ffffffffffffffffffffffffffffffffffffffff1673ffffffffffffffffffffffffffffffffffffffff168152602001908152602001600020600082825403925050819055506001600360008473ffffffffffffffffffffffffffffffffffffffff1673ffffffffffffffffffffffffffffffffffffffff16815260200190815260200160002060008282540192505081905550816002600083815260200190815260200160002060006101000a81548173ffffffffffffffffffffffffffffffffffffffff021916908373ffffffffffffffffffffffffffffffffffffffff160217905550808273ffffffffffffffffffffffffffffffffffffffff168473ffffffffffffffffffffffffffffffffffffffff167fddf252ad1be2c89b69c2b068fc378daa952ba7f163c4a11628f55a4df523b3ef60405160405180910390a46122428383836001612b3f565b505050565b600081600001549050919050565b60006002600083815260200190815260200160002060009054906101000a900473ffffffffffffffffffffffffffffffffffffffff169050919050565b6001816000016000828254019250508190555050565b600073ffffffffffffffffffffffffffffffffffffffff168273ffffffffffffffffffffffffffffffffffffffff1603612317576040517f08c379a000000000000000000000000000000000000000000000000000000000815260040161230e906141ec565b60405180910390fd5b612320816129d8565b15612360576040517f08c379a000000000000000000000000000000000000000000000000000000000815260040161235790614258565b60405180910390fd5b61236e600083836001612a19565b612377816129d8565b156123b7576040517f08c379a00000000000000000000000000000000000000000000000000000000081526004016123ae90614258565b60405180910390fd5b6001600360008473ffffffffffffffffffffffffffffffffffffffff1673ffffffffffffffffffffffffffffffffffffffff16815260200190815260200160002060008282540192505081905550816002600083815260200190815260200160002060006101000a81548173ffffffffffffffffffffffffffffffffffffffff021916908373ffffffffffffffffffffffffffffffffffffffff160217905550808273ffffffffffffffffffffffffffffffffffffffff16600073ffffffffffffffffffffffffffffffffffffffff167fddf252ad1be2c89b69c2b068fc378daa952ba7f163c4a11628f55a4df523b3ef60405160405180910390a46124c1600083836001612b3f565b5050565b6124ce826129d8565b61250d576040517f08c379a0000000000000000000000000000000000000000000000000000000008152600401612504906142ea565b60405180910390fd5b8060066000848152602001908152602001600020908161252d91906144b6565b505050565b60008111612575576040517f08c379a000000000000000000000000000000000000000000000000000000000815260040161256c906145fa565b60405180910390fd5b60095434146125b9576040517f08c379a00000000000000000000000000000000000000000000000000000000081526004016125b09061468c565b60405180910390fd5b6040518060a001604052808381526020013373ffffffffffffffffffffffffffffffffffffffff1681526020013073ffffffffffffffffffffffffffffffffffffffff16815260200182815260200160001515815250600d60008481526020019081526020016000206000820151816000015560208201518160010160006101000a81548173ffffffffffffffffffffffffffffffffffffffff021916908373ffffffffffffffffffffffffffffffffffffffff16021790555060408201518160020160006101000a81548173ffffffffffffffffffffffffffffffffffffffff021916908373ffffffffffffffffffffffffffffffffffffffff1602179055506060820151816003015560808201518160040160006101000a81548160ff0219169083151502179055509050506126f2333084611f4e565b817f3e6929b95aadb146b3880d299110d50a3e90a467efc5c0c9827e521b59b02d15333084600060405161272994939291906146ac565b60405180910390a25050565b60008160000154905060008111612781576040517f08c379a00000000000000000000000000000000000000000000000000000000081526004016127789061473d565b60405180910390fd5b6001810382600001819055505050565b8173ffffffffffffffffffffffffffffffffffffffff168373ffffffffffffffffffffffffffffffffffffffff16036127ff576040517f08c379a00000000000000000000000000000000000000000000000000000000081526004016127f6906147a9565b60405180910390fd5b80600560008573ffffffffffffffffffffffffffffffffffffffff1673ffffffffffffffffffffffffffffffffffffffff16815260200190815260200160002060008473ffffffffffffffffffffffffffffffffffffffff1673ffffffffffffffffffffffffffffffffffffffff16815260200190815260200160002060006101000a81548160ff0219169083151502179055508173ffffffffffffffffffffffffffffffffffffffff168373ffffffffffffffffffffffffffffffffffffffff167f17307eab39ab6107e8899845ad3d59bd9653f200f220920489ca2b5937696c31836040516128f09190613021565b60405180910390a3505050565b612908848484611f4e565b61291484848484612b45565b612953576040517f08c379a000000000000000000000000000000000000000000000000000000000815260040161294a9061483b565b60405180910390fd5b50505050565b606060405180602001604052806000815250905090565b606061297b82611dad565b6000612985612959565b905060008151116129a557604051806020016040528060008152506129d0565b806129af84612ccc565b6040516020016129c0929190614058565b6040516020818303038152906040525b915050919050565b60008073ffffffffffffffffffffffffffffffffffffffff166129fa83612255565b73ffffffffffffffffffffffffffffffffffffffff1614159050919050565b6001811115612b3957600073ffffffffffffffffffffffffffffffffffffffff168473ffffffffffffffffffffffffffffffffffffffff1614612aad5780600360008673ffffffffffffffffffffffffffffffffffffffff1673ffffffffffffffffffffffffffffffffffffffff1681526020019081526020016000206000828254612aa59190613dc6565b925050819055505b600073ffffffffffffffffffffffffffffffffffffffff168373ffffffffffffffffffffffffffffffffffffffff1614612b385780600360008573ffffffffffffffffffffffffffffffffffffffff1673ffffffffffffffffffffffffffffffffffffffff1681526020019081526020016000206000828254612b309190613a21565b925050819055505b5b50505050565b50505050565b6000612b668473ffffffffffffffffffffffffffffffffffffffff16612d9a565b15612cbf578373ffffffffffffffffffffffffffffffffffffffff1663150b7a02612b8f611df8565b8786866040518563ffffffff1660e01b8152600401612bb194939291906148b0565b6020604051808303816000875af1925050508015612bed57506040513d601f19601f82011682018060405250810190612bea9190614911565b60015b612c6f573d8060008114612c1d576040519150601f19603f3d011682016040523d82523d6000602084013e612c22565b606091505b506000815103612c67576040517f08c379a0000000000000000000000000000000000000000000000000000000008152600401612c5e9061483b565b60405180910390fd5b805181602001fd5b63150b7a0260e01b7bffffffffffffffffffffffffffffffffffffffffffffffffffffffff1916817bffffffffffffffffffffffffffffffffffffffffffffffffffffffff191614915050612cc4565b600190505b949350505050565b606060006001612cdb84612dbd565b01905060008167ffffffffffffffff811115612cfa57612cf9613445565b5b6040519080825280601f01601f191660200182016040528015612d2c5781602001600182028036833780820191505090505b509050600082602001820190505b600115612d8f578080600190039150507f3031323334353637383961626364656600000000000000000000000000000000600a86061a8153600a8581612d8357612d8261493e565b5b04945060008503612d3a575b819350505050919050565b6000808273ffffffffffffffffffffffffffffffffffffffff163b119050919050565b600080600090507a184f03e93ff9f4daa797ed6e38ed64bf6a1f0100000000000000008310612e1b577a184f03e93ff9f4daa797ed6e38ed64bf6a1f0100000000000000008381612e1157612e1061493e565b5b0492506040810190505b6d04ee2d6d415b85acef81000000008310612e58576d04ee2d6d415b85acef81000000008381612e4e57612e4d61493e565b5b0492506020810190505b662386f26fc100008310612e8757662386f26fc100008381612e7d57612e7c61493e565b5b0492506010810190505b6305f5e1008310612eb0576305f5e1008381612ea657612ea561493e565b5b0492506008810190505b6127108310612ed5576127108381612ecb57612eca61493e565b5b0492506004810190505b60648310612ef85760648381612eee57612eed61493e565b5b0492506002810190505b600a8310612f07576001810190505b80915050919050565b6040518060a0016040528060008152602001600073ffffffffffffffffffffffffffffffffffffffff168152602001600073ffffffffffffffffffffffffffffffffffffffff168152602001600081526020016000151581525090565b6000604051905090565b600080fd5b600080fd5b60007fffffffff0000000000000000000000000000000000000000000000000000000082169050919050565b612fb681612f81565b8114612fc157600080fd5b50565b600081359050612fd381612fad565b92915050565b600060208284031215612fef57612fee612f77565b5b6000612ffd84828501612fc4565b91505092915050565b60008115159050919050565b61301b81613006565b82525050565b60006020820190506130366000830184613012565b92915050565b600081519050919050565b600082825260208201905092915050565b60005b8381101561307657808201518184015260208101905061305b565b60008484015250505050565b6000601f19601f8301169050919050565b600061309e8261303c565b6130a88185613047565b93506130b8818560208601613058565b6130c181613082565b840191505092915050565b600060208201905081810360008301526130e68184613093565b905092915050565b6000819050919050565b613101816130ee565b811461310c57600080fd5b50565b60008135905061311e816130f8565b92915050565b60006020828403121561313a57613139612f77565b5b60006131488482850161310f565b91505092915050565b600073ffffffffffffffffffffffffffffffffffffffff82169050919050565b600061317c82613151565b9050919050565b61318c81613171565b82525050565b60006020820190506131a76000830184613183565b92915050565b6131b681613171565b81146131c157600080fd5b50565b6000813590506131d3816131ad565b92915050565b600080604083850312156131f0576131ef612f77565b5b60006131fe858286016131c4565b925050602061320f8582860161310f565b9150509250929050565b613222816130ee565b82525050565b600060208201905061323d6000830184613219565b92915050565b60008060006060848603121561325c5761325b612f77565b5b600061326a868287016131c4565b935050602061327b868287016131c4565b925050604061328c8682870161310f565b9150509250925092565b600081519050919050565b600082825260208201905092915050565b6000819050602082019050919050565b6132cb816130ee565b82525050565b60006132dc82613151565b9050919050565b6132ec816132d1565b82525050565b6132fb81613006565b82525050565b60a08201600082015161331760008501826132c2565b50602082015161332a60208501826132e3565b50604082015161333d60408501826132e3565b50606082015161335060608501826132c2565b50608082015161336360808501826132f2565b50505050565b60006133758383613301565b60a08301905092915050565b6000602082019050919050565b600061339982613296565b6133a381856132a1565b93506133ae836132b2565b8060005b838110156133df5781516133c68882613369565b97506133d183613381565b9250506001810190506133b2565b5085935050505092915050565b60006020820190508181036000830152613406818461338e565b905092915050565b60006020828403121561342457613423612f77565b5b6000613432848285016131c4565b91505092915050565b600080fd5b600080fd5b7f4e487b7100000000000000000000000000000000000000000000000000000000600052604160045260246000fd5b61347d82613082565b810181811067ffffffffffffffff8211171561349c5761349b613445565b5b80604052505050565b60006134af612f6d565b90506134bb8282613474565b919050565b600067ffffffffffffffff8211156134db576134da613445565b5b6134e482613082565b9050602081019050919050565b82818337600083830152505050565b600061351361350e846134c0565b6134a5565b90508281526020810184848401111561352f5761352e613440565b5b61353a8482856134f1565b509392505050565b600082601f8301126135575761355661343b565b5b8135613567848260208601613500565b91505092915050565b6000806040838503121561358757613586612f77565b5b600083013567ffffffffffffffff8111156135a5576135a4612f7c565b5b6135b185828601613542565b92505060206135c28582860161310f565b9150509250929050565b600080604083850312156135e3576135e2612f77565b5b60006135f18582860161310f565b92505060206136028582860161310f565b9150509250929050565b61361581613006565b811461362057600080fd5b50565b6000813590506136328161360c565b92915050565b6000806040838503121561364f5761364e612f77565b5b600061365d858286016131c4565b925050602061366e85828601613623565b9150509250929050565b600067ffffffffffffffff82111561369357613692613445565b5b61369c82613082565b9050602081019050919050565b60006136bc6136b784613678565b6134a5565b9050828152602081018484840111156136d8576136d7613440565b5b6136e38482856134f1565b509392505050565b600082601f830112613700576136ff61343b565b5b81356137108482602086016136a9565b91505092915050565b6000806000806080858703121561373357613732612f77565b5b6000613741878288016131c4565b9450506020613752878288016131c4565b93505060406137638782880161310f565b925050606085013567ffffffffffffffff81111561378457613783612f7c565b5b613790878288016136eb565b91505092959194509250565b600080604083850312156137b3576137b2612f77565b5b60006137c1858286016131c4565b92505060206137d2858286016131c4565b9150509250929050565b7f4e487b7100000000000000000000000000000000000000000000000000000000600052602260045260246000fd5b6000600282049050600182168061382357607f821691505b602082108103613836576138356137dc565b5b50919050565b7f4552433732313a20617070726f76616c20746f2063757272656e74206f776e6560008201527f7200000000000000000000000000000000000000000000000000000000000000602082015250565b6000613898602183613047565b91506138a38261383c565b604082019050919050565b600060208201905081810360008301526138c78161388b565b9050919050565b7f4552433732313a20617070726f76652063616c6c6572206973206e6f7420746f60008201527f6b656e206f776e6572206f7220617070726f76656420666f7220616c6c000000602082015250565b600061392a603d83613047565b9150613935826138ce565b604082019050919050565b600060208201905081810360008301526139598161391d565b9050919050565b7f4552433732313a2063616c6c6572206973206e6f7420746f6b656e206f776e6560008201527f72206f7220617070726f76656400000000000000000000000000000000000000602082015250565b60006139bc602d83613047565b91506139c782613960565b604082019050919050565b600060208201905081810360008301526139eb816139af565b9050919050565b7f4e487b7100000000000000000000000000000000000000000000000000000000600052601160045260246000fd5b6000613a2c826130ee565b9150613a37836130ee565b9250828201905080821115613a4f57613a4e6139f2565b5b92915050565b6000613a60826130ee565b91507fffffffffffffffffffffffffffffffffffffffffffffffffffffffffffffffff8203613a9257613a916139f2565b5b600182019050919050565b7f4e487b7100000000000000000000000000000000000000000000000000000000600052603260045260246000fd5b7f566f7573206e27c3aa746573207061732061646d696e69737472617465757200600082015250565b6000613b02601f83613047565b9150613b0d82613acc565b602082019050919050565b60006020820190508181036000830152613b3181613af5565b9050919050565b7f417274697374652064c3a96ac3a020656e72656769737472c3a92e0000000000600082015250565b6000613b6e601b83613047565b9150613b7982613b38565b602082019050919050565b60006020820190508181036000830152613b9d81613b61565b9050919050565b7f4552433732313a20696e76616c696420746f6b656e2049440000000000000000600082015250565b6000613bda601883613047565b9150613be582613ba4565b602082019050919050565b60006020820190508181036000830152613c0981613bcd565b9050919050565b7f4552433732313a2061646472657373207a65726f206973206e6f74206120766160008201527f6c6964206f776e65720000000000000000000000000000000000000000000000602082015250565b6000613c6c602983613047565b9150613c7782613c10565b604082019050919050565b60006020820190508181036000830152613c9b81613c5f565b9050919050565b7f566f7573206e27c3aa74657320706173206c652070726f707269c3a97461697260008201527f6520646520636520746f6b656e00000000000000000000000000000000000000602082015250565b6000613cfe602d83613047565b9150613d0982613ca2565b604082019050919050565b60006020820190508181036000830152613d2d81613cf1565b9050919050565b7f4c65207072697820646f697420c3aa74726520c3a967616c206175207072697860008201527f2064c3a966696e69000000000000000000000000000000000000000000000000602082015250565b6000613d90602883613047565b9150613d9b82613d34565b604082019050919050565b60006020820190508181036000830152613dbf81613d83565b9050919050565b6000613dd1826130ee565b9150613ddc836130ee565b9250828203905081811115613df457613df36139f2565b5b92915050565b7f5365756c206c652070726f707269c3a97461697265206465206c61206d61726b60008201527f6574706c6163652070657574206368616e676572206c6520707269782e000000602082015250565b6000613e56603d83613047565b9150613e6182613dfa565b604082019050919050565b60006020820190508181036000830152613e8581613e49565b9050919050565b7f4d65726369206427696e646971756572206c6520707269782064656d616e64c360008201527fa920706f75722066696e616c69736572206c2761636861740000000000000000602082015250565b6000613ee8603883613047565b9150613ef382613e8c565b604082019050919050565b60006020820190508181036000830152613f1781613edb565b9050919050565b7f566f7573206e27c3aa74657320706173206c652070726f707269c3a97461697260008201527f6520647520636f6e747261742e00000000000000000000000000000000000000602082015250565b6000613f7a602d83613047565b9150613f8582613f1e565b604082019050919050565b60006020820190508181036000830152613fa981613f6d565b9050919050565b7f436574746520706572736f6e6e65206573742064c3a96ac3a02061646d696e2e600082015250565b6000613fe6602083613047565b9150613ff182613fb0565b602082019050919050565b6000602082019050818103600083015261401581613fd9565b9050919050565b600081905092915050565b60006140328261303c565b61403c818561401c565b935061404c818560208601613058565b80840191505092915050565b60006140648285614027565b91506140708284614027565b91508190509392505050565b7f4552433732313a207472616e736665722066726f6d20696e636f72726563742060008201527f6f776e6572000000000000000000000000000000000000000000000000000000602082015250565b60006140d8602583613047565b91506140e38261407c565b604082019050919050565b60006020820190508181036000830152614107816140cb565b9050919050565b7f4552433732313a207472616e7366657220746f20746865207a65726f2061646460008201527f7265737300000000000000000000000000000000000000000000000000000000602082015250565b600061416a602483613047565b91506141758261410e565b604082019050919050565b600060208201905081810360008301526141998161415d565b9050919050565b7f4552433732313a206d696e7420746f20746865207a65726f2061646472657373600082015250565b60006141d6602083613047565b91506141e1826141a0565b602082019050919050565b60006020820190508181036000830152614205816141c9565b9050919050565b7f4552433732313a20746f6b656e20616c7265616479206d696e74656400000000600082015250565b6000614242601c83613047565b915061424d8261420c565b602082019050919050565b6000602082019050818103600083015261427181614235565b9050919050565b7f45524337323155524953746f726167653a2055524920736574206f66206e6f6e60008201527f6578697374656e7420746f6b656e000000000000000000000000000000000000602082015250565b60006142d4602e83613047565b91506142df82614278565b604082019050919050565b60006020820190508181036000830152614303816142c7565b9050919050565b60008190508160005260206000209050919050565b60006020601f8301049050919050565b600082821b905092915050565b60006008830261436c7fffffffffffffffffffffffffffffffffffffffffffffffffffffffffffffffff8261432f565b614376868361432f565b95508019841693508086168417925050509392505050565b6000819050919050565b60006143b36143ae6143a9846130ee565b61438e565b6130ee565b9050919050565b6000819050919050565b6143cd83614398565b6143e16143d9826143ba565b84845461433c565b825550505050565b600090565b6143f66143e9565b6144018184846143c4565b505050565b5b818110156144255761441a6000826143ee565b600181019050614407565b5050565b601f82111561446a5761443b8161430a565b6144448461431f565b81016020851015614453578190505b61446761445f8561431f565b830182614406565b50505b505050565b600082821c905092915050565b600061448d6000198460080261446f565b1980831691505092915050565b60006144a6838361447c565b9150826002028217905092915050565b6144bf8261303c565b67ffffffffffffffff8111156144d8576144d7613445565b5b6144e2825461380b565b6144ed828285614429565b600060209050601f831160018114614520576000841561450e578287015190505b614518858261449a565b865550614580565b601f19841661452e8661430a565b60005b8281101561455657848901518255600182019150602085019450602081019050614531565b86831015614573578489015161456f601f89168261447c565b8355505b6001600288020188555050505b505050505050565b7f4c65207072697820646f697420c3aa74726520737570c3a9726965757220c3a060008201527f2030000000000000000000000000000000000000000000000000000000000000602082015250565b60006145e4602283613047565b91506145ef82614588565b604082019050919050565b60006020820190508181036000830152614613816145d7565b9050919050565b7f4c65207072697820646f697420c3aa74726520737570c3a9726965757220c3a060008201527f206c6120636f6d6d697373696f6e206465206c6120706c617465666f726d652e602082015250565b6000614676604083613047565b91506146818261461a565b604082019050919050565b600060208201905081810360008301526146a581614669565b9050919050565b60006080820190506146c16000830187613183565b6146ce6020830186613183565b6146db6040830185613219565b6146e86060830184613012565b95945050505050565b7f436f756e7465723a2064656372656d656e74206f766572666c6f770000000000600082015250565b6000614727601b83613047565b9150614732826146f1565b602082019050919050565b600060208201905081810360008301526147568161471a565b9050919050565b7f4552433732313a20617070726f766520746f2063616c6c657200000000000000600082015250565b6000614793601983613047565b915061479e8261475d565b602082019050919050565b600060208201905081810360008301526147c281614786565b9050919050565b7f4552433732313a207472616e7366657220746f206e6f6e20455243373231526560008201527f63656976657220696d706c656d656e7465720000000000000000000000000000602082015250565b6000614825603283613047565b9150614830826147c9565b604082019050919050565b6000602082019050818103600083015261485481614818565b9050919050565b600081519050919050565b600082825260208201905092915050565b60006148828261485b565b61488c8185614866565b935061489c818560208601613058565b6148a581613082565b840191505092915050565b60006080820190506148c56000830187613183565b6148d26020830186613183565b6148df6040830185613219565b81810360608301526148f18184614877565b905095945050505050565b60008151905061490b81612fad565b92915050565b60006020828403121561492757614926612f77565b5b6000614935848285016148fc565b91505092915050565b7f4e487b7100000000000000000000000000000000000000000000000000000000600052601260045260246000fdfea26469706673582212203023e151788e5faaedc13cec501e4edecd10c3f46621d6b3edfc44f2aec29e9564736f6c63430008110033",
  "immutableReferences": {},
  "source": "// SPDX-License-Identifier: MIT\npragma solidity 0.8.17;\n\n/// @dev Import contracts from openzeppelin\nimport \"../node_modules/@openzeppelin/contracts/token/ERC721/ERC721.sol\";\nimport \"../node_modules/@openzeppelin/contracts/token/ERC721/extensions/ERC721URIStorage.sol\";\nimport \"../node_modules/@openzeppelin/contracts/utils/Counters.sol\";\n\ncontract DemocratizArt is ERC721URIStorage {\n    using Counters for Counters.Counter;\n\n    Counters.Counter private _tokenIds;\n    Counters.Counter private _itemsSold;\n\n    uint256 listingPrice = 0.0015 ether;\n\n    address payable owner;\n\n    mapping(address => bool) private admins;\n\n    mapping(address => bool) private artists;\n\n    mapping(uint256 => MarketItem) private idToMarketItem;\n\n    struct MarketItem {\n        uint256 tokenId;\n        address payable seller;\n        address payable owner;\n        uint256 price;\n        bool sold;\n    }\n\n    event AdminRegistered(address _address);\n\n    event ArtistRegistered(address _address);\n\n    event idToMarketItemCreated(\n        uint256 indexed tokenId,\n        address seller,\n        address owner,\n        uint256 price,\n        bool sold\n    );\n\n    constructor() ERC721(\"NFT Democratiz_Art\", \"DANFT\") {\n        owner == payable(msg.sender);\n    }\n\n    /// @dev manage artists and admin access\n    function registerAdmin(address _address) public {\n        require(\n            owner == msg.sender,\n            unicode\"Vous n'tes pas le propritaire du contrat.\"\n        );\n        require(!admins[_address], unicode\"Cette personne est dj admin.\");\n        admins[_address] = true;\n        emit AdminRegistered(_address);\n    }\n\n    modifier onlyAdmin() {\n        require(admins[msg.sender], unicode\"Vous n'tes pas administrateur\");\n        _;\n    }\n\n    function registerArtist(address _address) public onlyAdmin {\n        require(!artists[_address], unicode\"Artiste dj enregistr.\");\n        artists[_address] = true;\n        emit ArtistRegistered(_address);\n    }\n\n    modifier onlyArtist() {\n        require(\n            artists[msg.sender],\n            unicode\"Vous n'tes pas inscrit en tant qu'artiste.\"\n        );\n        _;\n    }\n\n    /// @dev Charge money for Democratiz_Art\n    function updateListingPrice(uint256 _listingPrice) public payable {\n        require(\n            owner == msg.sender,\n            unicode\"Seul le propritaire de la marketplace peut changer le prix.\"\n        );\n        listingPrice = _listingPrice;\n    }\n\n    /// @dev Return listing price of the contract\n    function getListingPrice() public view returns (uint256) {\n        return listingPrice;\n    }\n\n    /// @dev Create NFT and list on the marketplace\n    function createToken(string memory tokenURI, uint256 price)\n        public\n        payable\n        returns (uint256)\n    {\n        _tokenIds.increment();\n\n        uint256 newTokenId = _tokenIds.current();\n\n        _mint(msg.sender, newTokenId);\n        _setTokenURI(newTokenId, tokenURI);\n\n        createMarketItem(newTokenId, price);\n\n        return newTokenId;\n    }\n\n    /// @dev Create collection\n    function createMarketItem(uint256 tokenId, uint256 price) private {\n        require(price > 0, unicode\"Le prix doit tre suprieur  0\");\n        require(\n            msg.value == listingPrice,\n            unicode\"Le prix doit tre suprieur  la commission de la plateforme.\"\n        );\n\n        idToMarketItem[tokenId] = MarketItem(\n            tokenId,\n            payable(msg.sender),\n            payable(address(this)),\n            price,\n            false\n        );\n\n        /// @dev transfer to contract\n        _transfer(msg.sender, address(this), tokenId);\n\n        emit idToMarketItemCreated(\n            tokenId,\n            msg.sender,\n            address(this),\n            price,\n            false\n        );\n    }\n\n    /// @dev allows a purchase token to be resale\n    function reSellToken(uint256 tokenId, uint256 price) public payable {\n        require(\n            idToMarketItem[tokenId].owner == msg.sender,\n            unicode\"Vous n'tes pas le propritaire de ce token\"\n        );\n\n        require(\n            msg.value == listingPrice,\n            unicode\"Le prix doit tre gal au prix dfini\"\n        );\n\n        idToMarketItem[tokenId].sold = false;\n        idToMarketItem[tokenId].price = price;\n        idToMarketItem[tokenId].seller = payable(msg.sender);\n        idToMarketItem[tokenId].owner = payable(address(this));\n\n        _itemsSold.decrement();\n\n        _transfer(msg.sender, address(this), tokenId);\n    }\n\n    /// @dev Create Item Market Sale and transfer ownership and funds\n    function createMarketSale(uint256 tokenId) public payable {\n        uint256 price = idToMarketItem[tokenId].price;\n\n        require(\n            msg.value == price,\n            unicode\"Merci d'indiquer le prix demand pour finaliser l'achat\"\n        );\n\n        idToMarketItem[tokenId].owner = payable(msg.sender);\n        idToMarketItem[tokenId].sold = true;\n        idToMarketItem[tokenId].seller = payable(address(0));\n\n        _itemsSold.increment();\n\n        _transfer(address(this), msg.sender, tokenId);\n\n        payable(owner).transfer(listingPrice);\n        payable(idToMarketItem[tokenId].seller).transfer(msg.value);\n    }\n\n    /// @dev Get Unsold NFT Data\n    function fetchMarketItem() public view returns (MarketItem[] memory) {\n        uint256 itemCount = _tokenIds.current();\n        uint256 unsoldItemCount = _tokenIds.current() - _itemsSold.current();\n        uint256 currentIndex = 0;\n\n        MarketItem[] memory items = new MarketItem[](unsoldItemCount);\n        for (uint256 i = 0; i < itemCount; i++) {\n            if (idToMarketItem[i + 1].owner == address(this)) {\n                uint256 currentId = i + 1;\n\n                MarketItem storage currentItem = idToMarketItem[currentId];\n                items[currentIndex] = currentItem;\n                currentIndex += 1;\n            }\n        }\n        return items;\n    }\n\n    /// @dev Get only the NFTs of the user\n    function fetchMyNFT() public view returns (MarketItem[] memory) {\n        uint256 totalCount = _tokenIds.current();\n        uint256 itemCount = 0;\n        uint256 currentIndex = 0;\n\n        for (uint256 i = 0; i < totalCount; i++) {\n            if (idToMarketItem[i + 1].owner == msg.sender) {\n                itemCount = i + 1;\n            }\n        }\n\n        MarketItem[] memory items = new MarketItem[](itemCount);\n        for (uint256 i = 0; i < totalCount; i++) {\n            if (idToMarketItem[i + 1].owner == msg.sender) {\n                uint256 currentId = i + 1;\n                MarketItem storage currentItem = idToMarketItem[currentId];\n                items[currentIndex] = currentItem;\n                currentIndex += 1;\n            }\n        }\n        return items;\n    }\n\n    /// @dev Returns item listed by user\n    function fetchItemsListed() public view returns (MarketItem[] memory) {\n        uint256 totalCount = _tokenIds.current();\n        uint256 itemCount = 0;\n        uint256 currentIndex = 0;\n\n        for (uint256 i = 0; i < totalCount; i++) {\n            if (idToMarketItem[i + 1].seller == msg.sender) {\n                itemCount = i + 1;\n            }\n        }\n\n        MarketItem[] memory items = new MarketItem[](itemCount);\n        for (uint256 i = 0; i < totalCount; i++) {\n            if (idToMarketItem[i + 1].seller == msg.sender) {\n                uint256 currentId = i + 1;\n                MarketItem storage currentItem = idToMarketItem[currentId];\n                items[currentIndex] = currentItem;\n                currentIndex += 1;\n            }\n        }\n        return items;\n    }\n}\n",
  "sourcePath": "/home/blu3m00n/Documents/Informatique/Dvelopement/Alyra/Ethereum/Projets/democratiz_art/truffle/contracts/DemocratizArt.sol",
  "compiler": {
    "name": "solc",
    "version": "0.8.17+commit.8df45f5f.Emscripten.clang"
  },
  "schemaVersion": "3.4.10",
  "updatedAt": "2022-12-01T09:50:08.733Z",
  "networkType": "ethereum",
  "devdoc": {
    "kind": "dev",
    "methods": {
      "approve(address,uint256)": {
        "details": "See {IERC721-approve}."
      },
      "balanceOf(address)": {
        "details": "See {IERC721-balanceOf}."
      },
      "createMarketSale(uint256)": {
        "details": "Create Item Market Sale and transfer ownership and funds"
      },
      "createToken(string,uint256)": {
        "details": "Create NFT and list on the marketplace"
      },
      "fetchItemsListed()": {
        "details": "Returns item listed by user"
      },
      "fetchMarketItem()": {
        "details": "Get Unsold NFT Data"
      },
      "fetchMyNFT()": {
        "details": "Get only the NFTs of the user"
      },
      "getApproved(uint256)": {
        "details": "See {IERC721-getApproved}."
      },
      "getListingPrice()": {
        "details": "Return listing price of the contract"
      },
      "isApprovedForAll(address,address)": {
        "details": "See {IERC721-isApprovedForAll}."
      },
      "name()": {
        "details": "See {IERC721Metadata-name}."
      },
      "ownerOf(uint256)": {
        "details": "See {IERC721-ownerOf}."
      },
      "reSellToken(uint256,uint256)": {
        "details": "allows a purchase token to be resale"
      },
      "registerAdmin(address)": {
        "details": "manage artists and admin access"
      },
      "safeTransferFrom(address,address,uint256)": {
        "details": "See {IERC721-safeTransferFrom}."
      },
      "safeTransferFrom(address,address,uint256,bytes)": {
        "details": "See {IERC721-safeTransferFrom}."
      },
      "setApprovalForAll(address,bool)": {
        "details": "See {IERC721-setApprovalForAll}."
      },
      "supportsInterface(bytes4)": {
        "details": "See {IERC165-supportsInterface}."
      },
      "symbol()": {
        "details": "See {IERC721Metadata-symbol}."
      },
      "tokenURI(uint256)": {
        "details": "See {IERC721Metadata-tokenURI}."
      },
      "transferFrom(address,address,uint256)": {
        "details": "See {IERC721-transferFrom}."
      },
      "updateListingPrice(uint256)": {
        "details": "Charge money for Democratiz_Art"
      }
    },
    "version": 1
  },
  "userdoc": {
    "kind": "user",
    "methods": {},
    "version": 1
  }
}